{
  "abi": [
    {
      "anonymous": false,
      "inputs": [
        {
          "indexed": true,
          "internalType": "uint256",
          "name": "id",
          "type": "uint256"
        }
      ],
      "name": "ContractAccepted",
      "type": "event"
    },
    {
      "anonymous": false,
      "inputs": [
        {
          "indexed": true,
          "internalType": "uint256",
          "name": "id",
          "type": "uint256"
        },
        {
          "indexed": true,
          "internalType": "address",
          "name": "contractor",
          "type": "address"
        },
        {
          "indexed": true,
          "internalType": "address",
          "name": "farmer",
          "type": "address"
        },
        {
          "indexed": false,
          "internalType": "uint256",
          "name": "totalAmount",
          "type": "uint256"
        }
      ],
      "name": "ContractCreated",
      "type": "event"
    },
    {
      "anonymous": false,
      "inputs": [
        {
          "indexed": true,
          "internalType": "uint256",
          "name": "id",
          "type": "uint256"
        }
      ],
      "name": "ContractRejected",
      "type": "event"
    },
    {
      "anonymous": false,
      "inputs": [
        {
          "indexed": true,
          "internalType": "uint256",
          "name": "id",
          "type": "uint256"
        },
        {
          "indexed": false,
          "internalType": "uint256",
          "name": "newPricePerTon",
          "type": "uint256"
        }
      ],
      "name": "ContractUpdated",
      "type": "event"
    },
    {
      "anonymous": false,
      "inputs": [
        {
          "indexed": true,
          "internalType": "uint256",
          "name": "id",
          "type": "uint256"
        }
      ],
      "name": "Delivered",
      "type": "event"
    },
    {
      "anonymous": false,
      "inputs": [
        {
          "indexed": true,
          "internalType": "uint256",
          "name": "id",
          "type": "uint256"
        }
      ],
      "name": "OutForDelivery",
      "type": "event"
    },
    {
      "anonymous": false,
      "inputs": [
        {
          "indexed": true,
          "internalType": "uint256",
          "name": "id",
          "type": "uint256"
        }
      ],
      "name": "Refunded",
      "type": "event"
    },
    {
      "inputs": [
        {
          "internalType": "uint256",
          "name": "_id",
          "type": "uint256"
        }
      ],
      "name": "acceptContract",
      "outputs": [],
      "stateMutability": "nonpayable",
      "type": "function"
    },
    {
      "inputs": [
        {
          "internalType": "uint256",
          "name": "_id",
          "type": "uint256"
        }
      ],
      "name": "confirmDelivery",
      "outputs": [],
      "stateMutability": "nonpayable",
      "type": "function"
    },
    {
      "inputs": [],
      "name": "contractCounter",
      "outputs": [
        {
          "internalType": "uint256",
          "name": "",
          "type": "uint256"
        }
      ],
      "stateMutability": "view",
      "type": "function"
    },
    {
      "inputs": [
        {
          "internalType": "uint256",
          "name": "",
          "type": "uint256"
        }
      ],
      "name": "contracts",
      "outputs": [
        {
          "internalType": "uint256",
          "name": "id",
          "type": "uint256"
        },
        {
          "internalType": "address",
          "name": "contractor",
          "type": "address"
        },
        {
          "internalType": "address",
          "name": "farmer",
          "type": "address"
        },
        {
          "internalType": "string",
          "name": "cropName",
          "type": "string"
        },
        {
          "internalType": "uint256",
          "name": "quantity",
          "type": "uint256"
        },
        {
          "internalType": "uint256",
          "name": "pricePerTon",
          "type": "uint256"
        },
        {
          "internalType": "uint256",
          "name": "totalAmount",
          "type": "uint256"
        },
        {
          "internalType": "enum KrishiVerseEscrow.Status",
          "name": "status",
          "type": "uint8"
        }
      ],
      "stateMutability": "view",
      "type": "function"
    },
    {
      "inputs": [
        {
          "internalType": "address",
          "name": "_farmer",
          "type": "address"
        },
        {
          "internalType": "string",
          "name": "_cropName",
          "type": "string"
        },
        {
          "internalType": "uint256",
          "name": "_quantity",
          "type": "uint256"
        },
        {
          "internalType": "uint256",
          "name": "_pricePerTon",
          "type": "uint256"
        }
      ],
      "name": "createContract",
      "outputs": [],
      "stateMutability": "payable",
      "type": "function"
    },
    {
      "inputs": [
        {
          "internalType": "uint256",
          "name": "_id",
          "type": "uint256"
        }
      ],
      "name": "getContract",
      "outputs": [
        {
          "components": [
            {
              "internalType": "uint256",
              "name": "id",
              "type": "uint256"
            },
            {
              "internalType": "address",
              "name": "contractor",
              "type": "address"
            },
            {
              "internalType": "address",
              "name": "farmer",
              "type": "address"
            },
            {
              "internalType": "string",
              "name": "cropName",
              "type": "string"
            },
            {
              "internalType": "uint256",
              "name": "quantity",
              "type": "uint256"
            },
            {
              "internalType": "uint256",
              "name": "pricePerTon",
              "type": "uint256"
            },
            {
              "internalType": "uint256",
              "name": "totalAmount",
              "type": "uint256"
            },
            {
              "internalType": "enum KrishiVerseEscrow.Status",
              "name": "status",
              "type": "uint8"
            }
          ],
          "internalType": "struct KrishiVerseEscrow.CropContract",
          "name": "",
          "type": "tuple"
        }
      ],
      "stateMutability": "view",
      "type": "function"
    },
    {
      "inputs": [],
      "name": "getContractBalance",
      "outputs": [
        {
          "internalType": "uint256",
          "name": "",
          "type": "uint256"
        }
      ],
      "stateMutability": "view",
      "type": "function"
    },
    {
      "inputs": [
        {
          "internalType": "uint256",
          "name": "_id",
          "type": "uint256"
        }
      ],
      "name": "markOutForDelivery",
      "outputs": [],
      "stateMutability": "nonpayable",
      "type": "function"
    },
    {
      "inputs": [
        {
          "internalType": "uint256",
          "name": "_id",
          "type": "uint256"
        }
      ],
      "name": "rejectContract",
      "outputs": [],
      "stateMutability": "nonpayable",
      "type": "function"
    },
    {
      "inputs": [
        {
          "internalType": "uint256",
          "name": "_id",
          "type": "uint256"
        },
        {
          "internalType": "uint256",
          "name": "_newPricePerTon",
          "type": "uint256"
        }
      ],
      "name": "updateContract",
      "outputs": [],
      "stateMutability": "payable",
      "type": "function"
    }
  ],
  "devdoc": {
    "kind": "dev",
    "methods": {},
    "version": 1
  },
  "evm": {
    "assembly": "    /* \"KrishiVerseEscrow.sol\":61:7412  contract KrishiVerseEscrow {... */\n  mstore(0x40, 0x80)\n  callvalue\n  dup1\n  iszero\n  tag_1\n  jumpi\n  0x00\n  dup1\n  revert\ntag_1:\n  pop\n  dataSize(sub_0)\n  dup1\n  dataOffset(sub_0)\n  0x00\n  codecopy\n  0x00\n  return\nstop\n\nsub_0: assembly {\n        /* \"KrishiVerseEscrow.sol\":61:7412  contract KrishiVerseEscrow {... */\n      mstore(0x40, 0x80)\n      jumpi(tag_1, lt(calldatasize, 0x04))\n      shr(0xe0, calldataload(0x00))\n      dup1\n      0x868dce01\n      gt\n      tag_12\n      jumpi\n      dup1\n      0xc99994ef\n      gt\n      tag_13\n      jumpi\n      dup1\n      0xc99994ef\n      eq\n      tag_9\n      jumpi\n      dup1\n      0xd3176889\n      eq\n      tag_10\n      jumpi\n      dup1\n      0xfd84cb97\n      eq\n      tag_11\n      jumpi\n      0x00\n      dup1\n      revert\n    tag_13:\n      dup1\n      0x868dce01\n      eq\n      tag_7\n      jumpi\n      dup1\n      0x9a115c04\n      eq\n      tag_8\n      jumpi\n      0x00\n      dup1\n      revert\n    tag_12:\n      dup1\n      0x474da79a\n      gt\n      tag_14\n      jumpi\n      dup1\n      0x474da79a\n      eq\n      tag_4\n      jumpi\n      dup1\n      0x6ebc8c86\n      eq\n      tag_5\n      jumpi\n      dup1\n      0x6f9fb98a\n      eq\n      tag_6\n      jumpi\n      0x00\n      dup1\n      revert\n    tag_14:\n      dup1\n      0x067bd3b4\n      eq\n      tag_2\n      jumpi\n      dup1\n      0x24cc936b\n      eq\n      tag_3\n      jumpi\n    tag_1:\n      0x00\n      dup1\n      revert\n        /* \"KrishiVerseEscrow.sol\":717:747  uint256 public contractCounter */\n    tag_2:\n      callvalue\n      dup1\n      iszero\n      tag_15\n      jumpi\n      0x00\n      dup1\n      revert\n    tag_15:\n      pop\n      tag_16\n      sload(0x01)\n      dup2\n      jump\n    tag_16:\n      mload(0x40)\n        /* \"#utility.yul\":160:185   */\n      swap1\n      dup2\n      mstore\n        /* \"#utility.yul\":148:150   */\n      0x20\n        /* \"#utility.yul\":133:151   */\n      add\n        /* \"KrishiVerseEscrow.sol\":717:747  uint256 public contractCounter */\n    tag_18:\n      mload(0x40)\n      dup1\n      swap2\n      sub\n      swap1\n      return\n        /* \"KrishiVerseEscrow.sol\":2118:3078  function createContract(... */\n    tag_3:\n      tag_20\n      tag_21\n      calldatasize\n      0x04\n      tag_22\n      jump\t// in\n    tag_21:\n      tag_23\n      jump\t// in\n    tag_20:\n      stop\n        /* \"KrishiVerseEscrow.sol\":754:803  mapping(uint256 => CropContract) public contracts */\n    tag_4:\n      callvalue\n      dup1\n      iszero\n      tag_24\n      jumpi\n      0x00\n      dup1\n      revert\n    tag_24:\n      pop\n      tag_25\n      tag_26\n      calldatasize\n      0x04\n      tag_27\n      jump\t// in\n    tag_26:\n      tag_28\n      jump\t// in\n    tag_25:\n      mload(0x40)\n      tag_18\n      swap9\n      swap8\n      swap7\n      swap6\n      swap5\n      swap4\n      swap3\n      swap2\n      swap1\n      tag_30\n      jump\t// in\n        /* \"KrishiVerseEscrow.sol\":7139:7292  function getContract(... */\n    tag_5:\n      callvalue\n      dup1\n      iszero\n      tag_31\n      jumpi\n      0x00\n      dup1\n      revert\n    tag_31:\n      pop\n      tag_32\n      tag_33\n      calldatasize\n      0x04\n      tag_27\n      jump\t// in\n    tag_33:\n      tag_34\n      jump\t// in\n    tag_32:\n      mload(0x40)\n      tag_18\n      swap2\n      swap1\n      tag_36\n      jump\t// in\n        /* \"KrishiVerseEscrow.sol\":7300:7409  function getContractBalance() external view returns (uint256) {... */\n    tag_6:\n      callvalue\n      dup1\n      iszero\n      tag_37\n      jumpi\n      0x00\n      dup1\n      revert\n    tag_37:\n      pop\n        /* \"KrishiVerseEscrow.sol\":7380:7401  address(this).balance */\n      selfbalance\n        /* \"KrishiVerseEscrow.sol\":7300:7409  function getContractBalance() external view returns (uint256) {... */\n      jump(tag_16)\n        /* \"KrishiVerseEscrow.sol\":3269:4512  function updateContract(... */\n    tag_7:\n      tag_20\n      tag_42\n      calldatasize\n      0x04\n      tag_43\n      jump\t// in\n    tag_42:\n      tag_44\n      jump\t// in\n        /* \"KrishiVerseEscrow.sol\":4684:4949  function acceptContract(... */\n    tag_8:\n      callvalue\n      dup1\n      iszero\n      tag_45\n      jumpi\n      0x00\n      dup1\n      revert\n    tag_45:\n      pop\n      tag_20\n      tag_47\n      calldatasize\n      0x04\n      tag_27\n      jump\t// in\n    tag_47:\n      tag_48\n      jump\t// in\n        /* \"KrishiVerseEscrow.sol\":5134:5742  function rejectContract(... */\n    tag_9:\n      callvalue\n      dup1\n      iszero\n      tag_49\n      jumpi\n      0x00\n      dup1\n      revert\n    tag_49:\n      pop\n      tag_20\n      tag_51\n      calldatasize\n      0x04\n      tag_27\n      jump\t// in\n    tag_51:\n      tag_52\n      jump\t// in\n        /* \"KrishiVerseEscrow.sol\":5920:6194  function markOutForDelivery(... */\n    tag_10:\n      callvalue\n      dup1\n      iszero\n      tag_53\n      jumpi\n      0x00\n      dup1\n      revert\n    tag_53:\n      pop\n      tag_20\n      tag_55\n      calldatasize\n      0x04\n      tag_27\n      jump\t// in\n    tag_55:\n      tag_56\n      jump\t// in\n        /* \"KrishiVerseEscrow.sol\":6391:6984  function confirmDelivery(... */\n    tag_11:\n      callvalue\n      dup1\n      iszero\n      tag_57\n      jumpi\n      0x00\n      dup1\n      revert\n    tag_57:\n      pop\n      tag_20\n      tag_59\n      calldatasize\n      0x04\n      tag_27\n      jump\t// in\n    tag_59:\n      tag_60\n      jump\t// in\n        /* \"KrishiVerseEscrow.sol\":2118:3078  function createContract(... */\n    tag_23:\n        /* \"KrishiVerseEscrow.sol\":210:216  locked */\n      and(0xff, sload(0x00))\n        /* \"KrishiVerseEscrow.sol\":209:216  !locked */\n      iszero\n        /* \"KrishiVerseEscrow.sol\":201:244  require(!locked, \"Reentrant call detected\") */\n      tag_62\n      jumpi\n      mload(0x40)\n      shl(0xe5, 0x461bcd)\n      dup2\n      mstore\n        /* \"#utility.yul\":4753:4755   */\n      0x20\n        /* \"KrishiVerseEscrow.sol\":201:244  require(!locked, \"Reentrant call detected\") */\n      0x04\n      dup3\n      add\n        /* \"#utility.yul\":4735:4756   */\n      mstore\n        /* \"#utility.yul\":4792:4794   */\n      0x17\n        /* \"#utility.yul\":4772:4790   */\n      0x24\n      dup3\n      add\n        /* \"#utility.yul\":4765:4795   */\n      mstore\n        /* \"#utility.yul\":4831:4856   */\n      0x5265656e7472616e742063616c6c206465746563746564000000000000000000\n        /* \"#utility.yul\":4811:4829   */\n      0x44\n      dup3\n      add\n        /* \"#utility.yul\":4804:4857   */\n      mstore\n        /* \"#utility.yul\":4874:4892   */\n      0x64\n      add\n        /* \"KrishiVerseEscrow.sol\":201:244  require(!locked, \"Reentrant call detected\") */\n    tag_63:\n      mload(0x40)\n      dup1\n      swap2\n      sub\n      swap1\n      revert\n    tag_62:\n        /* \"KrishiVerseEscrow.sol\":255:261  locked */\n      0x00\n        /* \"KrishiVerseEscrow.sol\":255:268  locked = true */\n      dup1\n      sload\n      not(0xff)\n      and\n        /* \"KrishiVerseEscrow.sol\":264:268  true */\n      0x01\n        /* \"KrishiVerseEscrow.sol\":255:268  locked = true */\n      or\n      swap1\n      sstore\n      sub(shl(0xa0, 0x01), 0x01)\n        /* \"KrishiVerseEscrow.sol\":2317:2338  _farmer != address(0) */\n      dup5\n      and\n        /* \"KrishiVerseEscrow.sol\":2309:2357  require(_farmer != address(0), \"Invalid farmer\") */\n      tag_66\n      jumpi\n      mload(0x40)\n      shl(0xe5, 0x461bcd)\n      dup2\n      mstore\n        /* \"#utility.yul\":5105:5107   */\n      0x20\n        /* \"KrishiVerseEscrow.sol\":2309:2357  require(_farmer != address(0), \"Invalid farmer\") */\n      0x04\n      dup3\n      add\n        /* \"#utility.yul\":5087:5108   */\n      mstore\n        /* \"#utility.yul\":5144:5146   */\n      0x0e\n        /* \"#utility.yul\":5124:5142   */\n      0x24\n      dup3\n      add\n        /* \"#utility.yul\":5117:5147   */\n      mstore\n        /* \"#utility.yul\":5183:5199   */\n      0x496e76616c6964206661726d6572000000000000000000000000000000000000\n        /* \"#utility.yul\":5163:5181   */\n      0x44\n      dup3\n      add\n        /* \"#utility.yul\":5156:5200   */\n      mstore\n        /* \"#utility.yul\":5217:5235   */\n      0x64\n      add\n        /* \"KrishiVerseEscrow.sol\":2309:2357  require(_farmer != address(0), \"Invalid farmer\") */\n      tag_63\n        /* \"#utility.yul\":4903:5241   */\n      jump\n        /* \"KrishiVerseEscrow.sol\":2309:2357  require(_farmer != address(0), \"Invalid farmer\") */\n    tag_66:\n        /* \"KrishiVerseEscrow.sol\":2388:2389  0 */\n      0x00\n        /* \"KrishiVerseEscrow.sol\":2376:2385  _quantity */\n      dup3\n        /* \"KrishiVerseEscrow.sol\":2376:2389  _quantity > 0 */\n      gt\n        /* \"KrishiVerseEscrow.sol\":2368:2414  require(_quantity > 0, \"Quantity must be > 0\") */\n      tag_69\n      jumpi\n      mload(0x40)\n      shl(0xe5, 0x461bcd)\n      dup2\n      mstore\n        /* \"#utility.yul\":5448:5450   */\n      0x20\n        /* \"KrishiVerseEscrow.sol\":2368:2414  require(_quantity > 0, \"Quantity must be > 0\") */\n      0x04\n      dup3\n      add\n        /* \"#utility.yul\":5430:5451   */\n      mstore\n        /* \"#utility.yul\":5487:5489   */\n      0x14\n        /* \"#utility.yul\":5467:5485   */\n      0x24\n      dup3\n      add\n        /* \"#utility.yul\":5460:5490   */\n      mstore\n        /* \"#utility.yul\":5526:5548   */\n      0x5175616e74697479206d757374206265203e2030000000000000000000000000\n        /* \"#utility.yul\":5506:5524   */\n      0x44\n      dup3\n      add\n        /* \"#utility.yul\":5499:5549   */\n      mstore\n        /* \"#utility.yul\":5566:5584   */\n      0x64\n      add\n        /* \"KrishiVerseEscrow.sol\":2368:2414  require(_quantity > 0, \"Quantity must be > 0\") */\n      tag_63\n        /* \"#utility.yul\":5246:5590   */\n      jump\n        /* \"KrishiVerseEscrow.sol\":2368:2414  require(_quantity > 0, \"Quantity must be > 0\") */\n    tag_69:\n        /* \"KrishiVerseEscrow.sol\":2448:2449  0 */\n      0x00\n        /* \"KrishiVerseEscrow.sol\":2433:2445  _pricePerTon */\n      dup2\n        /* \"KrishiVerseEscrow.sol\":2433:2449  _pricePerTon > 0 */\n      gt\n        /* \"KrishiVerseEscrow.sol\":2425:2471  require(_pricePerTon > 0, \"Price must be > 0\") */\n      tag_72\n      jumpi\n      mload(0x40)\n      shl(0xe5, 0x461bcd)\n      dup2\n      mstore\n        /* \"#utility.yul\":5797:5799   */\n      0x20\n        /* \"KrishiVerseEscrow.sol\":2425:2471  require(_pricePerTon > 0, \"Price must be > 0\") */\n      0x04\n      dup3\n      add\n        /* \"#utility.yul\":5779:5800   */\n      mstore\n        /* \"#utility.yul\":5836:5838   */\n      0x11\n        /* \"#utility.yul\":5816:5834   */\n      0x24\n      dup3\n      add\n        /* \"#utility.yul\":5809:5839   */\n      mstore\n        /* \"#utility.yul\":5875:5894   */\n      0x5072696365206d757374206265203e2030000000000000000000000000000000\n        /* \"#utility.yul\":5855:5873   */\n      0x44\n      dup3\n      add\n        /* \"#utility.yul\":5848:5895   */\n      mstore\n        /* \"#utility.yul\":5912:5930   */\n      0x64\n      add\n        /* \"KrishiVerseEscrow.sol\":2425:2471  require(_pricePerTon > 0, \"Price must be > 0\") */\n      tag_63\n        /* \"#utility.yul\":5595:5936   */\n      jump\n        /* \"KrishiVerseEscrow.sol\":2425:2471  require(_pricePerTon > 0, \"Price must be > 0\") */\n    tag_72:\n        /* \"KrishiVerseEscrow.sol\":2484:2503  uint256 totalAmount */\n      0x00\n        /* \"KrishiVerseEscrow.sol\":2506:2530  _quantity * _pricePerTon */\n      tag_75\n        /* \"KrishiVerseEscrow.sol\":2518:2530  _pricePerTon */\n      dup3\n        /* \"KrishiVerseEscrow.sol\":2506:2515  _quantity */\n      dup5\n        /* \"KrishiVerseEscrow.sol\":2506:2530  _quantity * _pricePerTon */\n      tag_76\n      jump\t// in\n    tag_75:\n        /* \"KrishiVerseEscrow.sol\":2484:2530  uint256 totalAmount = _quantity * _pricePerTon */\n      swap1\n      pop\n        /* \"KrishiVerseEscrow.sol\":2564:2575  totalAmount */\n      dup1\n        /* \"KrishiVerseEscrow.sol\":2551:2560  msg.value */\n      callvalue\n        /* \"KrishiVerseEscrow.sol\":2551:2575  msg.value == totalAmount */\n      eq\n        /* \"KrishiVerseEscrow.sol\":2543:2604  require(msg.value == totalAmount, \"Incorrect payment amount\") */\n      tag_77\n      jumpi\n      mload(0x40)\n      shl(0xe5, 0x461bcd)\n      dup2\n      mstore\n        /* \"#utility.yul\":6448:6450   */\n      0x20\n        /* \"KrishiVerseEscrow.sol\":2543:2604  require(msg.value == totalAmount, \"Incorrect payment amount\") */\n      0x04\n      dup3\n      add\n        /* \"#utility.yul\":6430:6451   */\n      mstore\n        /* \"#utility.yul\":6487:6489   */\n      0x18\n        /* \"#utility.yul\":6467:6485   */\n      0x24\n      dup3\n      add\n        /* \"#utility.yul\":6460:6490   */\n      mstore\n        /* \"#utility.yul\":6526:6552   */\n      0x496e636f7272656374207061796d656e7420616d6f756e740000000000000000\n        /* \"#utility.yul\":6506:6524   */\n      0x44\n      dup3\n      add\n        /* \"#utility.yul\":6499:6553   */\n      mstore\n        /* \"#utility.yul\":6570:6588   */\n      0x64\n      add\n        /* \"KrishiVerseEscrow.sol\":2543:2604  require(msg.value == totalAmount, \"Incorrect payment amount\") */\n      tag_63\n        /* \"#utility.yul\":6246:6594   */\n      jump\n        /* \"KrishiVerseEscrow.sol\":2543:2604  require(msg.value == totalAmount, \"Incorrect payment amount\") */\n    tag_77:\n        /* \"KrishiVerseEscrow.sol\":2646:2956  CropContract({... */\n      mload(0x40)\n      dup1\n      0x0100\n      add\n      0x40\n      mstore\n      dup1\n        /* \"KrishiVerseEscrow.sol\":2678:2693  contractCounter */\n      sload(0x01)\n        /* \"KrishiVerseEscrow.sol\":2646:2956  CropContract({... */\n      dup2\n      mstore\n      0x20\n      add\n        /* \"KrishiVerseEscrow.sol\":2720:2730  msg.sender */\n      caller\n      sub(shl(0xa0, 0x01), 0x01)\n        /* \"KrishiVerseEscrow.sol\":2646:2956  CropContract({... */\n      and\n      dup2\n      mstore\n      0x20\n      add\n        /* \"KrishiVerseEscrow.sol\":2753:2760  _farmer */\n      dup7\n      sub(shl(0xa0, 0x01), 0x01)\n        /* \"KrishiVerseEscrow.sol\":2646:2956  CropContract({... */\n      and\n      dup2\n      mstore\n      0x20\n      add\n        /* \"KrishiVerseEscrow.sol\":2785:2794  _cropName */\n      dup6\n        /* \"KrishiVerseEscrow.sol\":2646:2956  CropContract({... */\n      dup2\n      mstore\n      0x20\n      add\n        /* \"KrishiVerseEscrow.sol\":2819:2828  _quantity */\n      dup5\n        /* \"KrishiVerseEscrow.sol\":2646:2956  CropContract({... */\n      dup2\n      mstore\n      0x20\n      add\n        /* \"KrishiVerseEscrow.sol\":2856:2868  _pricePerTon */\n      dup4\n        /* \"KrishiVerseEscrow.sol\":2646:2956  CropContract({... */\n      dup2\n      mstore\n      0x20\n      add\n        /* \"KrishiVerseEscrow.sol\":2896:2907  totalAmount */\n      dup3\n        /* \"KrishiVerseEscrow.sol\":2646:2956  CropContract({... */\n      dup2\n      mstore\n      0x20\n      add\n        /* \"KrishiVerseEscrow.sol\":2930:2944  Status.Created */\n      0x00\n        /* \"KrishiVerseEscrow.sol\":2646:2956  CropContract({... */\n      0x05\n      dup2\n      gt\n      iszero\n      tag_81\n      jumpi\n      tag_81\n      tag_82\n      jump\t// in\n    tag_81:\n      swap1\n      mstore\n        /* \"KrishiVerseEscrow.sol\":2627:2642  contractCounter */\n      0x01\n      dup1\n      sload\n        /* \"KrishiVerseEscrow.sol\":2617:2643  contracts[contractCounter] */\n      0x00\n      swap1\n      dup2\n      mstore\n        /* \"KrishiVerseEscrow.sol\":2617:2626  contracts */\n      0x02\n        /* \"KrishiVerseEscrow.sol\":2617:2643  contracts[contractCounter] */\n      0x20\n      dup2\n      dup2\n      mstore\n      0x40\n      swap3\n      dup4\n      swap1\n      keccak256\n        /* \"KrishiVerseEscrow.sol\":2617:2956  contracts[contractCounter] = CropContract({... */\n      dup6\n      mload\n      dup2\n      sstore\n      swap1\n      dup6\n      add\n      mload\n      swap4\n      dup2\n      add\n      dup1\n      sload\n      0xffffffffffffffffffffffff0000000000000000000000000000000000000000\n      swap1\n      dup2\n      and\n      sub(shl(0xa0, 0x01), 0x01)\n      swap7\n      dup8\n      and\n      or\n      swap1\n      swap2\n      sstore\n      swap3\n      dup6\n      add\n      mload\n      swap2\n      dup2\n      add\n      dup1\n      sload\n      swap1\n      swap4\n      and\n      swap2\n      swap1\n      swap4\n      and\n      or\n      swap1\n      sstore\n      0x60\n      dup3\n      add\n      mload\n      0x03\n      dup3\n      add\n      swap1\n      tag_83\n      swap1\n      dup3\n      tag_84\n      jump\t// in\n    tag_83:\n      pop\n      0x80\n      dup3\n      add\n      mload\n      dup2\n      0x04\n      add\n      sstore\n      0xa0\n      dup3\n      add\n      mload\n      dup2\n      0x05\n      add\n      sstore\n      0xc0\n      dup3\n      add\n      mload\n      dup2\n      0x06\n      add\n      sstore\n      0xe0\n      dup3\n      add\n      mload\n      dup2\n      0x07\n      add\n      exp(0x0100, 0x00)\n      dup2\n      sload\n      dup2\n      0xff\n      mul\n      not\n      and\n      swap1\n      dup4\n      0x05\n      dup2\n      gt\n      iszero\n      tag_86\n      jumpi\n      tag_86\n      tag_82\n      jump\t// in\n    tag_86:\n      mul\n      or\n      swap1\n      sstore\n      pop\n      pop\n        /* \"KrishiVerseEscrow.sol\":2990:3005  contractCounter */\n      sload(0x01)\n        /* \"KrishiVerseEscrow.sol\":2974:3040  ContractCreated(contractCounter, msg.sender, _farmer, totalAmount) */\n      mload(0x40)\n        /* \"#utility.yul\":160:185   */\n      dup4\n      dup2\n      mstore\n      sub(shl(0xa0, 0x01), 0x01)\n        /* \"KrishiVerseEscrow.sol\":2974:3040  ContractCreated(contractCounter, msg.sender, _farmer, totalAmount) */\n      dup9\n      and\n      swap3\n      pop\n        /* \"KrishiVerseEscrow.sol\":3007:3017  msg.sender */\n      caller\n      swap2\n        /* \"KrishiVerseEscrow.sol\":2990:3005  contractCounter */\n      swap1\n        /* \"KrishiVerseEscrow.sol\":2974:3040  ContractCreated(contractCounter, msg.sender, _farmer, totalAmount) */\n      0x3c82c7acfd65de4acffc8bb4aa92575cb40870181efe476224a7198d57870ad8\n      swap1\n        /* \"#utility.yul\":148:150   */\n      0x20\n        /* \"#utility.yul\":133:151   */\n      add\n        /* \"KrishiVerseEscrow.sol\":2974:3040  ContractCreated(contractCounter, msg.sender, _farmer, totalAmount) */\n      mload(0x40)\n      dup1\n      swap2\n      sub\n      swap1\n      log4\n        /* \"KrishiVerseEscrow.sol\":3053:3068  contractCounter */\n      0x01\n        /* \"KrishiVerseEscrow.sol\":3053:3070  contractCounter++ */\n      dup1\n      sload\n      swap1\n        /* \"KrishiVerseEscrow.sol\":3053:3068  contractCounter */\n      0x00\n        /* \"KrishiVerseEscrow.sol\":3053:3070  contractCounter++ */\n      tag_88\n      dup4\n      tag_89\n      jump\t// in\n    tag_88:\n      swap1\n      swap2\n      sstore\n      pop\n      pop\n        /* \"KrishiVerseEscrow.sol\":300:305  false */\n      0x00\n        /* \"KrishiVerseEscrow.sol\":291:305  locked = false */\n      dup1\n      sload\n      not(0xff)\n      and\n      swap1\n      sstore\n      pop\n      pop\n      pop\n      pop\n      pop\n        /* \"KrishiVerseEscrow.sol\":2118:3078  function createContract(... */\n      jump\t// out\n        /* \"KrishiVerseEscrow.sol\":754:803  mapping(uint256 => CropContract) public contracts */\n    tag_28:\n      0x02\n      0x20\n      dup2\n      swap1\n      mstore\n      0x00\n      swap2\n      dup3\n      mstore\n      0x40\n      swap1\n      swap2\n      keccak256\n      dup1\n      sload\n      0x01\n      dup3\n      add\n      sload\n      swap3\n      dup3\n      add\n      sload\n      0x03\n      dup4\n      add\n      dup1\n      sload\n      swap3\n      swap5\n      sub(shl(0xa0, 0x01), 0x01)\n      swap1\n      dup2\n      and\n      swap5\n      swap3\n      and\n      swap3\n      tag_90\n      swap1\n      tag_91\n      jump\t// in\n    tag_90:\n      dup1\n      0x1f\n      add\n      0x20\n      dup1\n      swap2\n      div\n      mul\n      0x20\n      add\n      mload(0x40)\n      swap1\n      dup2\n      add\n      0x40\n      mstore\n      dup1\n      swap3\n      swap2\n      swap1\n      dup2\n      dup2\n      mstore\n      0x20\n      add\n      dup3\n      dup1\n      sload\n      tag_92\n      swap1\n      tag_91\n      jump\t// in\n    tag_92:\n      dup1\n      iszero\n      tag_93\n      jumpi\n      dup1\n      0x1f\n      lt\n      tag_94\n      jumpi\n      0x0100\n      dup1\n      dup4\n      sload\n      div\n      mul\n      dup4\n      mstore\n      swap2\n      0x20\n      add\n      swap2\n      jump(tag_93)\n    tag_94:\n      dup3\n      add\n      swap2\n      swap1\n      0x00\n      mstore\n      keccak256(0x00, 0x20)\n      swap1\n    tag_95:\n      dup2\n      sload\n      dup2\n      mstore\n      swap1\n      0x01\n      add\n      swap1\n      0x20\n      add\n      dup1\n      dup4\n      gt\n      tag_95\n      jumpi\n      dup3\n      swap1\n      sub\n      0x1f\n      and\n      dup3\n      add\n      swap2\n    tag_93:\n      pop\n      pop\n      pop\n      pop\n      0x04\n      dup4\n      add\n      sload\n      0x05\n      dup5\n      add\n      sload\n      0x06\n      dup6\n      add\n      sload\n      0x07\n      swap1\n      swap6\n      add\n      sload\n      swap4\n      swap5\n      swap2\n      swap4\n      swap1\n      swap3\n      pop\n      0xff\n      and\n      dup9\n      jump\t// out\n        /* \"KrishiVerseEscrow.sol\":7139:7292  function getContract(... */\n    tag_34:\n        /* \"KrishiVerseEscrow.sol\":7231:7250  CropContract memory */\n      tag_96\n      tag_97\n      jump\t// in\n    tag_96:\n        /* \"KrishiVerseEscrow.sol\":7217:7220  _id */\n      dup2\n        /* \"KrishiVerseEscrow.sol\":1718:1733  contractCounter */\n      sload(0x01)\n        /* \"KrishiVerseEscrow.sol\":1712:1715  _id */\n      dup2\n        /* \"KrishiVerseEscrow.sol\":1712:1733  _id < contractCounter */\n      lt\n        /* \"KrishiVerseEscrow.sol\":1704:1757  require(_id < contractCounter, \"Invalid contract ID\") */\n      tag_99\n      jumpi\n      mload(0x40)\n      shl(0xe5, 0x461bcd)\n      dup2\n      mstore\n        /* \"#utility.yul\":9496:9498   */\n      0x20\n        /* \"KrishiVerseEscrow.sol\":1704:1757  require(_id < contractCounter, \"Invalid contract ID\") */\n      0x04\n      dup3\n      add\n        /* \"#utility.yul\":9478:9499   */\n      mstore\n        /* \"#utility.yul\":9535:9537   */\n      0x13\n        /* \"#utility.yul\":9515:9533   */\n      0x24\n      dup3\n      add\n        /* \"#utility.yul\":9508:9538   */\n      mstore\n      shl(0x6a, 0x125b9d985b1a590818dbdb9d1c9858dd081251)\n        /* \"#utility.yul\":9554:9572   */\n      0x44\n      dup3\n      add\n        /* \"#utility.yul\":9547:9596   */\n      mstore\n        /* \"#utility.yul\":9613:9631   */\n      0x64\n      add\n        /* \"KrishiVerseEscrow.sol\":1704:1757  require(_id < contractCounter, \"Invalid contract ID\") */\n      tag_63\n        /* \"#utility.yul\":9294:9637   */\n      jump\n        /* \"KrishiVerseEscrow.sol\":1704:1757  require(_id < contractCounter, \"Invalid contract ID\") */\n    tag_99:\n        /* \"KrishiVerseEscrow.sol\":7270:7284  contracts[_id] */\n      0x00\n      dup4\n      dup2\n      mstore\n        /* \"KrishiVerseEscrow.sol\":7270:7279  contracts */\n      0x02\n        /* \"KrishiVerseEscrow.sol\":7270:7284  contracts[_id] */\n      0x20\n      dup2\n      dup2\n      mstore\n      0x40\n      swap3\n      dup4\n      swap1\n      keccak256\n        /* \"KrishiVerseEscrow.sol\":7263:7284  return contracts[_id] */\n      dup4\n      mload\n      0x0100\n      dup2\n      add\n      dup6\n      mstore\n      dup2\n      sload\n      dup2\n      mstore\n      0x01\n      dup3\n      add\n      sload\n      sub(shl(0xa0, 0x01), 0x01)\n      swap1\n      dup2\n      and\n      swap4\n      dup3\n      add\n      swap4\n      swap1\n      swap4\n      mstore\n      swap3\n      dup2\n      add\n      sload\n      swap1\n      swap2\n      and\n      swap3\n      dup3\n      add\n      swap3\n      swap1\n      swap3\n      mstore\n      0x03\n      dup3\n      add\n      dup1\n      sload\n      swap2\n      swap3\n        /* \"KrishiVerseEscrow.sol\":7270:7284  contracts[_id] */\n      swap2\n        /* \"KrishiVerseEscrow.sol\":7263:7284  return contracts[_id] */\n      0x60\n      dup5\n      add\n      swap2\n      swap1\n      tag_103\n      swap1\n      tag_91\n      jump\t// in\n    tag_103:\n      dup1\n      0x1f\n      add\n      0x20\n      dup1\n      swap2\n      div\n      mul\n      0x20\n      add\n      mload(0x40)\n      swap1\n      dup2\n      add\n      0x40\n      mstore\n      dup1\n      swap3\n      swap2\n      swap1\n      dup2\n      dup2\n      mstore\n      0x20\n      add\n      dup3\n      dup1\n      sload\n      tag_104\n      swap1\n      tag_91\n      jump\t// in\n    tag_104:\n      dup1\n      iszero\n      tag_105\n      jumpi\n      dup1\n      0x1f\n      lt\n      tag_106\n      jumpi\n      0x0100\n      dup1\n      dup4\n      sload\n      div\n      mul\n      dup4\n      mstore\n      swap2\n      0x20\n      add\n      swap2\n      jump(tag_105)\n    tag_106:\n      dup3\n      add\n      swap2\n      swap1\n      0x00\n      mstore\n      keccak256(0x00, 0x20)\n      swap1\n    tag_107:\n      dup2\n      sload\n      dup2\n      mstore\n      swap1\n      0x01\n      add\n      swap1\n      0x20\n      add\n      dup1\n      dup4\n      gt\n      tag_107\n      jumpi\n      dup3\n      swap1\n      sub\n      0x1f\n      and\n      dup3\n      add\n      swap2\n    tag_105:\n      pop\n      pop\n      pop\n      swap2\n      dup4\n      mstore\n      pop\n      pop\n      0x04\n      dup3\n      add\n      sload\n      0x20\n      dup3\n      add\n      mstore\n      0x05\n      dup1\n      dup4\n      add\n      sload\n      0x40\n      dup4\n      add\n      mstore\n      0x06\n      dup4\n      add\n      sload\n      0x60\n      dup4\n      add\n      mstore\n      0x07\n      dup4\n      add\n      sload\n      0x80\n      swap1\n      swap3\n      add\n      swap2\n      0xff\n      and\n      swap1\n      dup2\n      gt\n      iszero\n      tag_109\n      jumpi\n      tag_109\n      tag_82\n      jump\t// in\n    tag_109:\n      0x05\n      dup2\n      gt\n      iszero\n      tag_111\n      jumpi\n      tag_111\n      tag_82\n      jump\t// in\n    tag_111:\n      swap1\n      mstore\n      pop\n      swap2\n      pop\n        /* \"KrishiVerseEscrow.sol\":1768:1769  _ */\n    tag_102:\n        /* \"KrishiVerseEscrow.sol\":7139:7292  function getContract(... */\n      pop\n      swap2\n      swap1\n      pop\n      jump\t// out\n        /* \"KrishiVerseEscrow.sol\":3269:4512  function updateContract(... */\n    tag_44:\n        /* \"KrishiVerseEscrow.sol\":3414:3417  _id */\n      dup2\n        /* \"KrishiVerseEscrow.sol\":1718:1733  contractCounter */\n      sload(0x01)\n        /* \"KrishiVerseEscrow.sol\":1712:1715  _id */\n      dup2\n        /* \"KrishiVerseEscrow.sol\":1712:1733  _id < contractCounter */\n      lt\n        /* \"KrishiVerseEscrow.sol\":1704:1757  require(_id < contractCounter, \"Invalid contract ID\") */\n      tag_114\n      jumpi\n      mload(0x40)\n      shl(0xe5, 0x461bcd)\n      dup2\n      mstore\n        /* \"#utility.yul\":9496:9498   */\n      0x20\n        /* \"KrishiVerseEscrow.sol\":1704:1757  require(_id < contractCounter, \"Invalid contract ID\") */\n      0x04\n      dup3\n      add\n        /* \"#utility.yul\":9478:9499   */\n      mstore\n        /* \"#utility.yul\":9535:9537   */\n      0x13\n        /* \"#utility.yul\":9515:9533   */\n      0x24\n      dup3\n      add\n        /* \"#utility.yul\":9508:9538   */\n      mstore\n      shl(0x6a, 0x125b9d985b1a590818dbdb9d1c9858dd081251)\n        /* \"#utility.yul\":9554:9572   */\n      0x44\n      dup3\n      add\n        /* \"#utility.yul\":9547:9596   */\n      mstore\n        /* \"#utility.yul\":9613:9631   */\n      0x64\n      add\n        /* \"KrishiVerseEscrow.sol\":1704:1757  require(_id < contractCounter, \"Invalid contract ID\") */\n      tag_63\n        /* \"#utility.yul\":9294:9637   */\n      jump\n        /* \"KrishiVerseEscrow.sol\":1704:1757  require(_id < contractCounter, \"Invalid contract ID\") */\n    tag_114:\n        /* \"KrishiVerseEscrow.sol\":1455:1469  contracts[_id] */\n      0x00\n      dup4\n      dup2\n      mstore\n        /* \"KrishiVerseEscrow.sol\":1455:1464  contracts */\n      0x02\n        /* \"KrishiVerseEscrow.sol\":1455:1469  contracts[_id] */\n      0x20\n      mstore\n      0x40\n      swap1\n      keccak256\n        /* \"KrishiVerseEscrow.sol\":1455:1480  contracts[_id].contractor */\n      0x01\n      add\n      sload\n        /* \"KrishiVerseEscrow.sol\":1455:1469  contracts[_id] */\n      dup4\n      swap1\n      sub(shl(0xa0, 0x01), 0x01)\n        /* \"KrishiVerseEscrow.sol\":1455:1480  contracts[_id].contractor */\n      and\n        /* \"KrishiVerseEscrow.sol\":1441:1451  msg.sender */\n      caller\n        /* \"KrishiVerseEscrow.sol\":1441:1480  msg.sender == contracts[_id].contractor */\n      eq\n        /* \"KrishiVerseEscrow.sol\":1433:1499  require(msg.sender == contracts[_id].contractor, \"Not contractor\") */\n      tag_117\n      jumpi\n      mload(0x40)\n      shl(0xe5, 0x461bcd)\n      dup2\n      mstore\n        /* \"#utility.yul\":9844:9846   */\n      0x20\n        /* \"KrishiVerseEscrow.sol\":1433:1499  require(msg.sender == contracts[_id].contractor, \"Not contractor\") */\n      0x04\n      dup3\n      add\n        /* \"#utility.yul\":9826:9847   */\n      mstore\n        /* \"#utility.yul\":9883:9885   */\n      0x0e\n        /* \"#utility.yul\":9863:9881   */\n      0x24\n      dup3\n      add\n        /* \"#utility.yul\":9856:9886   */\n      mstore\n      shl(0x91, 0x2737ba1031b7b73a3930b1ba37b9)\n        /* \"#utility.yul\":9902:9920   */\n      0x44\n      dup3\n      add\n        /* \"#utility.yul\":9895:9939   */\n      mstore\n        /* \"#utility.yul\":9956:9974   */\n      0x64\n      add\n        /* \"KrishiVerseEscrow.sol\":1433:1499  require(msg.sender == contracts[_id].contractor, \"Not contractor\") */\n      tag_63\n        /* \"#utility.yul\":9642:9980   */\n      jump\n        /* \"KrishiVerseEscrow.sol\":1433:1499  require(msg.sender == contracts[_id].contractor, \"Not contractor\") */\n    tag_117:\n        /* \"KrishiVerseEscrow.sol\":3466:3469  _id */\n      dup4\n        /* \"KrishiVerseEscrow.sol\":3471:3485  Status.Created */\n      0x00\n      dup1\n        /* \"KrishiVerseEscrow.sol\":1851:1865  contracts[_id] */\n      0x00\n      dup4\n      dup2\n      mstore\n        /* \"KrishiVerseEscrow.sol\":1851:1860  contracts */\n      0x02\n        /* \"KrishiVerseEscrow.sol\":1851:1865  contracts[_id] */\n      0x20\n      mstore\n      0x40\n      swap1\n      keccak256\n        /* \"KrishiVerseEscrow.sol\":1851:1872  contracts[_id].status */\n      0x07\n      add\n      sload\n      0xff\n      and\n        /* \"KrishiVerseEscrow.sol\":1851:1883  contracts[_id].status == _status */\n      0x05\n      dup2\n      gt\n      iszero\n      tag_124\n      jumpi\n      tag_124\n      tag_82\n      jump\t// in\n    tag_124:\n      eq\n        /* \"KrishiVerseEscrow.sol\":1843:1902  require(contracts[_id].status == _status, \"Invalid status\") */\n      tag_125\n      jumpi\n      mload(0x40)\n      shl(0xe5, 0x461bcd)\n      dup2\n      mstore\n        /* \"#utility.yul\":10187:10189   */\n      0x20\n        /* \"KrishiVerseEscrow.sol\":1843:1902  require(contracts[_id].status == _status, \"Invalid status\") */\n      0x04\n      dup3\n      add\n        /* \"#utility.yul\":10169:10190   */\n      mstore\n        /* \"#utility.yul\":10226:10228   */\n      0x0e\n        /* \"#utility.yul\":10206:10224   */\n      0x24\n      dup3\n      add\n        /* \"#utility.yul\":10199:10229   */\n      mstore\n      shl(0x90, 0x496e76616c696420737461747573)\n        /* \"#utility.yul\":10245:10263   */\n      0x44\n      dup3\n      add\n        /* \"#utility.yul\":10238:10282   */\n      mstore\n        /* \"#utility.yul\":10299:10317   */\n      0x64\n      add\n        /* \"KrishiVerseEscrow.sol\":1843:1902  require(contracts[_id].status == _status, \"Invalid status\") */\n      tag_63\n        /* \"#utility.yul\":9985:10323   */\n      jump\n        /* \"KrishiVerseEscrow.sol\":1843:1902  require(contracts[_id].status == _status, \"Invalid status\") */\n    tag_125:\n        /* \"KrishiVerseEscrow.sol\":210:216  locked */\n      and(0xff, sload(0x00))\n        /* \"KrishiVerseEscrow.sol\":209:216  !locked */\n      iszero\n        /* \"KrishiVerseEscrow.sol\":201:244  require(!locked, \"Reentrant call detected\") */\n      tag_129\n      jumpi\n      mload(0x40)\n      shl(0xe5, 0x461bcd)\n      dup2\n      mstore\n        /* \"#utility.yul\":4753:4755   */\n      0x20\n        /* \"KrishiVerseEscrow.sol\":201:244  require(!locked, \"Reentrant call detected\") */\n      0x04\n      dup3\n      add\n        /* \"#utility.yul\":4735:4756   */\n      mstore\n        /* \"#utility.yul\":4792:4794   */\n      0x17\n        /* \"#utility.yul\":4772:4790   */\n      0x24\n      dup3\n      add\n        /* \"#utility.yul\":4765:4795   */\n      mstore\n        /* \"#utility.yul\":4831:4856   */\n      0x5265656e7472616e742063616c6c206465746563746564000000000000000000\n        /* \"#utility.yul\":4811:4829   */\n      0x44\n      dup3\n      add\n        /* \"#utility.yul\":4804:4857   */\n      mstore\n        /* \"#utility.yul\":4874:4892   */\n      0x64\n      add\n        /* \"KrishiVerseEscrow.sol\":201:244  require(!locked, \"Reentrant call detected\") */\n      tag_63\n        /* \"#utility.yul\":4551:4898   */\n      jump\n        /* \"KrishiVerseEscrow.sol\":201:244  require(!locked, \"Reentrant call detected\") */\n    tag_129:\n        /* \"KrishiVerseEscrow.sol\":255:261  locked */\n      0x00\n        /* \"KrishiVerseEscrow.sol\":255:268  locked = true */\n      dup1\n      sload\n      not(0xff)\n      and\n        /* \"KrishiVerseEscrow.sol\":264:268  true */\n      0x01\n        /* \"KrishiVerseEscrow.sol\":255:268  locked = true */\n      or\n      swap1\n      sstore\n        /* \"KrishiVerseEscrow.sol\":3533:3552  _newPricePerTon > 0 */\n      dup5\n        /* \"KrishiVerseEscrow.sol\":3525:3570  require(_newPricePerTon > 0, \"Invalid price\") */\n      tag_132\n      jumpi\n      mload(0x40)\n      shl(0xe5, 0x461bcd)\n      dup2\n      mstore\n        /* \"#utility.yul\":10530:10532   */\n      0x20\n        /* \"KrishiVerseEscrow.sol\":3525:3570  require(_newPricePerTon > 0, \"Invalid price\") */\n      0x04\n      dup3\n      add\n        /* \"#utility.yul\":10512:10533   */\n      mstore\n        /* \"#utility.yul\":10569:10571   */\n      0x0d\n        /* \"#utility.yul\":10549:10567   */\n      0x24\n      dup3\n      add\n        /* \"#utility.yul\":10542:10572   */\n      mstore\n        /* \"#utility.yul\":10608:10623   */\n      0x496e76616c696420707269636500000000000000000000000000000000000000\n        /* \"#utility.yul\":10588:10606   */\n      0x44\n      dup3\n      add\n        /* \"#utility.yul\":10581:10624   */\n      mstore\n        /* \"#utility.yul\":10641:10659   */\n      0x64\n      add\n        /* \"KrishiVerseEscrow.sol\":3525:3570  require(_newPricePerTon > 0, \"Invalid price\") */\n      tag_63\n        /* \"#utility.yul\":10328:10665   */\n      jump\n        /* \"KrishiVerseEscrow.sol\":3525:3570  require(_newPricePerTon > 0, \"Invalid price\") */\n    tag_132:\n        /* \"KrishiVerseEscrow.sol\":3583:3608  CropContract storage crop */\n      0x00\n        /* \"KrishiVerseEscrow.sol\":3611:3625  contracts[_id] */\n      dup7\n      dup2\n      mstore\n        /* \"KrishiVerseEscrow.sol\":3611:3620  contracts */\n      0x02\n        /* \"KrishiVerseEscrow.sol\":3611:3625  contracts[_id] */\n      0x20\n      mstore\n      0x40\n      dup2\n      keccak256\n        /* \"KrishiVerseEscrow.sol\":3657:3673  crop.totalAmount */\n      0x06\n      dup2\n      add\n      sload\n        /* \"KrishiVerseEscrow.sol\":3703:3716  crop.quantity */\n      0x04\n      dup3\n      add\n      sload\n        /* \"KrishiVerseEscrow.sol\":3611:3625  contracts[_id] */\n      swap2\n      swap3\n        /* \"KrishiVerseEscrow.sol\":3657:3673  crop.totalAmount */\n      swap1\n      swap2\n        /* \"KrishiVerseEscrow.sol\":3703:3734  crop.quantity * _newPricePerTon */\n      tag_135\n      swap1\n        /* \"KrishiVerseEscrow.sol\":3719:3734  _newPricePerTon */\n      dup10\n      swap1\n        /* \"KrishiVerseEscrow.sol\":3703:3734  crop.quantity * _newPricePerTon */\n      tag_76\n      jump\t// in\n    tag_135:\n        /* \"KrishiVerseEscrow.sol\":3684:3734  uint256 newTotal = crop.quantity * _newPricePerTon */\n      swap1\n      pop\n        /* \"KrishiVerseEscrow.sol\":3762:3770  oldTotal */\n      dup2\n        /* \"KrishiVerseEscrow.sol\":3751:3759  newTotal */\n      dup2\n        /* \"KrishiVerseEscrow.sol\":3751:3770  newTotal > oldTotal */\n      gt\n        /* \"KrishiVerseEscrow.sol\":3747:4365  if (newTotal > oldTotal) {... */\n      iszero\n      tag_136\n      jumpi\n        /* \"KrishiVerseEscrow.sol\":3827:3846  newTotal - oldTotal */\n      tag_137\n        /* \"KrishiVerseEscrow.sol\":3838:3846  oldTotal */\n      dup3\n        /* \"KrishiVerseEscrow.sol\":3827:3835  newTotal */\n      dup3\n        /* \"KrishiVerseEscrow.sol\":3827:3846  newTotal - oldTotal */\n      tag_138\n      jump\t// in\n    tag_137:\n        /* \"KrishiVerseEscrow.sol\":3813:3822  msg.value */\n      callvalue\n        /* \"KrishiVerseEscrow.sol\":3813:3847  msg.value == (newTotal - oldTotal) */\n      eq\n        /* \"KrishiVerseEscrow.sol\":3787:3910  require(... */\n      tag_139\n      jumpi\n      mload(0x40)\n      shl(0xe5, 0x461bcd)\n      dup2\n      mstore\n        /* \"#utility.yul\":11005:11007   */\n      0x20\n        /* \"KrishiVerseEscrow.sol\":3787:3910  require(... */\n      0x04\n      dup3\n      add\n        /* \"#utility.yul\":10987:11008   */\n      mstore\n        /* \"#utility.yul\":11044:11046   */\n      0x1b\n        /* \"#utility.yul\":11024:11042   */\n      0x24\n      dup3\n      add\n        /* \"#utility.yul\":11017:11047   */\n      mstore\n        /* \"#utility.yul\":11083:11112   */\n      0x4164646974696f6e616c207061796d656e742072657175697265640000000000\n        /* \"#utility.yul\":11063:11081   */\n      0x44\n      dup3\n      add\n        /* \"#utility.yul\":11056:11113   */\n      mstore\n        /* \"#utility.yul\":11130:11148   */\n      0x64\n      add\n        /* \"KrishiVerseEscrow.sol\":3787:3910  require(... */\n      tag_63\n        /* \"#utility.yul\":10803:11154   */\n      jump\n        /* \"KrishiVerseEscrow.sol\":3787:3910  require(... */\n    tag_139:\n        /* \"KrishiVerseEscrow.sol\":3747:4365  if (newTotal > oldTotal) {... */\n      jump(tag_143)\n    tag_136:\n        /* \"KrishiVerseEscrow.sol\":3943:3951  oldTotal */\n      dup2\n        /* \"KrishiVerseEscrow.sol\":3932:3940  newTotal */\n      dup2\n        /* \"KrishiVerseEscrow.sol\":3932:3951  newTotal < oldTotal */\n      lt\n        /* \"KrishiVerseEscrow.sol\":3928:4365  if (newTotal < oldTotal) {... */\n      iszero\n      tag_143\n      jumpi\n        /* \"KrishiVerseEscrow.sol\":3968:3988  uint256 refundAmount */\n      0x00\n        /* \"KrishiVerseEscrow.sol\":3991:4010  oldTotal - newTotal */\n      tag_144\n        /* \"KrishiVerseEscrow.sol\":4002:4010  newTotal */\n      dup3\n        /* \"KrishiVerseEscrow.sol\":3991:3999  oldTotal */\n      dup5\n        /* \"KrishiVerseEscrow.sol\":3991:4010  oldTotal - newTotal */\n      tag_138\n      jump\t// in\n    tag_144:\n        /* \"KrishiVerseEscrow.sol\":4027:4043  crop.totalAmount */\n      0x06\n      dup6\n      add\n        /* \"KrishiVerseEscrow.sol\":4027:4054  crop.totalAmount = newTotal */\n      dup4\n      swap1\n      sstore\n        /* \"KrishiVerseEscrow.sol\":4069:4085  crop.pricePerTon */\n      0x05\n      dup6\n      add\n        /* \"KrishiVerseEscrow.sol\":4069:4103  crop.pricePerTon = _newPricePerTon */\n      dup11\n      swap1\n      sstore\n      0x01\n        /* \"KrishiVerseEscrow.sol\":4147:4162  crop.contractor */\n      dup6\n      add\n      sload\n        /* \"KrishiVerseEscrow.sol\":4139:4225  payable(crop.contractor).call{... */\n      mload(0x40)\n        /* \"KrishiVerseEscrow.sol\":3968:4010  uint256 refundAmount = oldTotal - newTotal */\n      swap2\n      swap3\n      pop\n      0x00\n      swap2\n      sub(shl(0xa0, 0x01), 0x01)\n        /* \"KrishiVerseEscrow.sol\":4147:4162  crop.contractor */\n      swap1\n      swap2\n      and\n      swap1\n        /* \"KrishiVerseEscrow.sol\":3968:4010  uint256 refundAmount = oldTotal - newTotal */\n      dup4\n      swap1\n      dup4\n        /* \"KrishiVerseEscrow.sol\":4139:4225  payable(crop.contractor).call{... */\n      dup2\n      dup2\n      dup2\n        /* \"KrishiVerseEscrow.sol\":3968:4010  uint256 refundAmount = oldTotal - newTotal */\n      dup6\n        /* \"KrishiVerseEscrow.sol\":4147:4162  crop.contractor */\n      dup8\n        /* \"KrishiVerseEscrow.sol\":4139:4225  payable(crop.contractor).call{... */\n      gas\n      call\n      swap3\n      pop\n      pop\n      pop\n      returndatasize\n      dup1\n      0x00\n      dup2\n      eq\n      tag_149\n      jumpi\n      mload(0x40)\n      swap2\n      pop\n      and(add(returndatasize, 0x3f), not(0x1f))\n      dup3\n      add\n      0x40\n      mstore\n      returndatasize\n      dup3\n      mstore\n      returndatasize\n      0x00\n      0x20\n      dup5\n      add\n      returndatacopy\n      jump(tag_148)\n    tag_149:\n      0x60\n      swap2\n      pop\n    tag_148:\n      pop\n        /* \"KrishiVerseEscrow.sol\":4120:4225  (bool success, ) = payable(crop.contractor).call{... */\n      pop\n      swap1\n      pop\n        /* \"KrishiVerseEscrow.sol\":4248:4255  success */\n      dup1\n        /* \"KrishiVerseEscrow.sol\":4240:4273  require(success, \"Refund failed\") */\n      tag_150\n      jumpi\n      mload(0x40)\n      shl(0xe5, 0x461bcd)\n      dup2\n      mstore\n        /* \"#utility.yul\":11571:11573   */\n      0x20\n        /* \"KrishiVerseEscrow.sol\":4240:4273  require(success, \"Refund failed\") */\n      0x04\n      dup3\n      add\n        /* \"#utility.yul\":11553:11574   */\n      mstore\n        /* \"#utility.yul\":11610:11612   */\n      0x0d\n        /* \"#utility.yul\":11590:11608   */\n      0x24\n      dup3\n      add\n        /* \"#utility.yul\":11583:11613   */\n      mstore\n      shl(0x9a, 0x1499599d5b990819985a5b1959)\n        /* \"#utility.yul\":11629:11647   */\n      0x44\n      dup3\n      add\n        /* \"#utility.yul\":11622:11665   */\n      mstore\n        /* \"#utility.yul\":11682:11700   */\n      0x64\n      add\n        /* \"KrishiVerseEscrow.sol\":4240:4273  require(success, \"Refund failed\") */\n      tag_63\n        /* \"#utility.yul\":11369:11706   */\n      jump\n        /* \"KrishiVerseEscrow.sol\":4240:4273  require(success, \"Refund failed\") */\n    tag_150:\n        /* \"KrishiVerseEscrow.sol\":4311:4314  _id */\n      dup11\n        /* \"KrishiVerseEscrow.sol\":4295:4332  ContractUpdated(_id, _newPricePerTon) */\n      0xd8d9aca34b33358a82f9ffe591bcca6863de1c4e4e801817f86790fd5628ff1d\n        /* \"KrishiVerseEscrow.sol\":4316:4331  _newPricePerTon */\n      dup12\n        /* \"KrishiVerseEscrow.sol\":4295:4332  ContractUpdated(_id, _newPricePerTon) */\n      mload(0x40)\n      tag_153\n      swap2\n        /* \"#utility.yul\":160:185   */\n      dup2\n      mstore\n        /* \"#utility.yul\":148:150   */\n      0x20\n        /* \"#utility.yul\":133:151   */\n      add\n      swap1\n        /* \"#utility.yul\":14:191   */\n      jump\n        /* \"KrishiVerseEscrow.sol\":4295:4332  ContractUpdated(_id, _newPricePerTon) */\n    tag_153:\n      mload(0x40)\n      dup1\n      swap2\n      sub\n      swap1\n      log2\n        /* \"KrishiVerseEscrow.sol\":4347:4354  return; */\n      pop\n      pop\n      pop\n      pop\n      pop\n      jump(tag_131)\n        /* \"KrishiVerseEscrow.sol\":3928:4365  if (newTotal < oldTotal) {... */\n    tag_143:\n        /* \"KrishiVerseEscrow.sol\":4377:4393  crop.totalAmount */\n      0x06\n      dup4\n      add\n        /* \"KrishiVerseEscrow.sol\":4377:4404  crop.totalAmount = newTotal */\n      dup2\n      swap1\n      sstore\n        /* \"KrishiVerseEscrow.sol\":4415:4431  crop.pricePerTon */\n      0x05\n      dup4\n      add\n        /* \"KrishiVerseEscrow.sol\":4415:4449  crop.pricePerTon = _newPricePerTon */\n      dup9\n      swap1\n      sstore\n        /* \"KrishiVerseEscrow.sol\":4467:4504  ContractUpdated(_id, _newPricePerTon) */\n      mload(0x40)\n        /* \"#utility.yul\":160:185   */\n      dup9\n      dup2\n      mstore\n        /* \"KrishiVerseEscrow.sol\":4483:4486  _id */\n      dup10\n      swap1\n        /* \"KrishiVerseEscrow.sol\":4467:4504  ContractUpdated(_id, _newPricePerTon) */\n      0xd8d9aca34b33358a82f9ffe591bcca6863de1c4e4e801817f86790fd5628ff1d\n      swap1\n        /* \"#utility.yul\":148:150   */\n      0x20\n        /* \"#utility.yul\":133:151   */\n      add\n        /* \"KrishiVerseEscrow.sol\":4467:4504  ContractUpdated(_id, _newPricePerTon) */\n      mload(0x40)\n      dup1\n      swap2\n      sub\n      swap1\n      log2\n        /* \"KrishiVerseEscrow.sol\":3514:4512  {... */\n      pop\n      pop\n      pop\n        /* \"KrishiVerseEscrow.sol\":279:280  _ */\n    tag_131:\n      pop\n      pop\n        /* \"KrishiVerseEscrow.sol\":300:305  false */\n      0x00\n        /* \"KrishiVerseEscrow.sol\":291:305  locked = false */\n      dup1\n      sload\n      not(0xff)\n      and\n      swap1\n      sstore\n      pop\n      pop\n      pop\n      pop\n        /* \"KrishiVerseEscrow.sol\":3269:4512  function updateContract(... */\n      jump\t// out\n        /* \"KrishiVerseEscrow.sol\":4684:4949  function acceptContract(... */\n    tag_48:\n        /* \"KrishiVerseEscrow.sol\":4778:4781  _id */\n      dup1\n        /* \"KrishiVerseEscrow.sol\":1718:1733  contractCounter */\n      sload(0x01)\n        /* \"KrishiVerseEscrow.sol\":1712:1715  _id */\n      dup2\n        /* \"KrishiVerseEscrow.sol\":1712:1733  _id < contractCounter */\n      lt\n        /* \"KrishiVerseEscrow.sol\":1704:1757  require(_id < contractCounter, \"Invalid contract ID\") */\n      tag_156\n      jumpi\n      mload(0x40)\n      shl(0xe5, 0x461bcd)\n      dup2\n      mstore\n        /* \"#utility.yul\":9496:9498   */\n      0x20\n        /* \"KrishiVerseEscrow.sol\":1704:1757  require(_id < contractCounter, \"Invalid contract ID\") */\n      0x04\n      dup3\n      add\n        /* \"#utility.yul\":9478:9499   */\n      mstore\n        /* \"#utility.yul\":9535:9537   */\n      0x13\n        /* \"#utility.yul\":9515:9533   */\n      0x24\n      dup3\n      add\n        /* \"#utility.yul\":9508:9538   */\n      mstore\n      shl(0x6a, 0x125b9d985b1a590818dbdb9d1c9858dd081251)\n        /* \"#utility.yul\":9554:9572   */\n      0x44\n      dup3\n      add\n        /* \"#utility.yul\":9547:9596   */\n      mstore\n        /* \"#utility.yul\":9613:9631   */\n      0x64\n      add\n        /* \"KrishiVerseEscrow.sol\":1704:1757  require(_id < contractCounter, \"Invalid contract ID\") */\n      tag_63\n        /* \"#utility.yul\":9294:9637   */\n      jump\n        /* \"KrishiVerseEscrow.sol\":1704:1757  require(_id < contractCounter, \"Invalid contract ID\") */\n    tag_156:\n        /* \"KrishiVerseEscrow.sol\":1593:1607  contracts[_id] */\n      0x00\n      dup3\n      dup2\n      mstore\n        /* \"KrishiVerseEscrow.sol\":1593:1602  contracts */\n      0x02\n        /* \"KrishiVerseEscrow.sol\":1593:1607  contracts[_id] */\n      0x20\n      dup2\n      swap1\n      mstore\n      0x40\n      swap1\n      swap2\n      keccak256\n        /* \"KrishiVerseEscrow.sol\":1593:1614  contracts[_id].farmer */\n      add\n      sload\n        /* \"KrishiVerseEscrow.sol\":1593:1607  contracts[_id] */\n      dup3\n      swap1\n      sub(shl(0xa0, 0x01), 0x01)\n        /* \"KrishiVerseEscrow.sol\":1593:1614  contracts[_id].farmer */\n      and\n        /* \"KrishiVerseEscrow.sol\":1579:1589  msg.sender */\n      caller\n        /* \"KrishiVerseEscrow.sol\":1579:1614  msg.sender == contracts[_id].farmer */\n      eq\n        /* \"KrishiVerseEscrow.sol\":1571:1629  require(msg.sender == contracts[_id].farmer, \"Not farmer\") */\n      tag_159\n      jumpi\n      mload(0x40)\n      shl(0xe5, 0x461bcd)\n      dup2\n      mstore\n        /* \"#utility.yul\":11913:11915   */\n      0x20\n        /* \"KrishiVerseEscrow.sol\":1571:1629  require(msg.sender == contracts[_id].farmer, \"Not farmer\") */\n      0x04\n      dup3\n      add\n        /* \"#utility.yul\":11895:11916   */\n      mstore\n        /* \"#utility.yul\":11952:11954   */\n      0x0a\n        /* \"#utility.yul\":11932:11950   */\n      0x24\n      dup3\n      add\n        /* \"#utility.yul\":11925:11955   */\n      mstore\n      shl(0xb1, 0x2737ba103330b936b2b9)\n        /* \"#utility.yul\":11971:11989   */\n      0x44\n      dup3\n      add\n        /* \"#utility.yul\":11964:12004   */\n      mstore\n        /* \"#utility.yul\":12021:12039   */\n      0x64\n      add\n        /* \"KrishiVerseEscrow.sol\":1571:1629  require(msg.sender == contracts[_id].farmer, \"Not farmer\") */\n      tag_63\n        /* \"#utility.yul\":11711:12045   */\n      jump\n        /* \"KrishiVerseEscrow.sol\":1571:1629  require(msg.sender == contracts[_id].farmer, \"Not farmer\") */\n    tag_159:\n        /* \"KrishiVerseEscrow.sol\":4826:4829  _id */\n      dup3\n        /* \"KrishiVerseEscrow.sol\":4831:4845  Status.Created */\n      0x00\n      dup1\n        /* \"KrishiVerseEscrow.sol\":1851:1865  contracts[_id] */\n      0x00\n      dup4\n      dup2\n      mstore\n        /* \"KrishiVerseEscrow.sol\":1851:1860  contracts */\n      0x02\n        /* \"KrishiVerseEscrow.sol\":1851:1865  contracts[_id] */\n      0x20\n      mstore\n      0x40\n      swap1\n      keccak256\n        /* \"KrishiVerseEscrow.sol\":1851:1872  contracts[_id].status */\n      0x07\n      add\n      sload\n      0xff\n      and\n        /* \"KrishiVerseEscrow.sol\":1851:1883  contracts[_id].status == _status */\n      0x05\n      dup2\n      gt\n      iszero\n      tag_166\n      jumpi\n      tag_166\n      tag_82\n      jump\t// in\n    tag_166:\n      eq\n        /* \"KrishiVerseEscrow.sol\":1843:1902  require(contracts[_id].status == _status, \"Invalid status\") */\n      tag_167\n      jumpi\n      mload(0x40)\n      shl(0xe5, 0x461bcd)\n      dup2\n      mstore\n        /* \"#utility.yul\":10187:10189   */\n      0x20\n        /* \"KrishiVerseEscrow.sol\":1843:1902  require(contracts[_id].status == _status, \"Invalid status\") */\n      0x04\n      dup3\n      add\n        /* \"#utility.yul\":10169:10190   */\n      mstore\n        /* \"#utility.yul\":10226:10228   */\n      0x0e\n        /* \"#utility.yul\":10206:10224   */\n      0x24\n      dup3\n      add\n        /* \"#utility.yul\":10199:10229   */\n      mstore\n      shl(0x90, 0x496e76616c696420737461747573)\n        /* \"#utility.yul\":10245:10263   */\n      0x44\n      dup3\n      add\n        /* \"#utility.yul\":10238:10282   */\n      mstore\n        /* \"#utility.yul\":10299:10317   */\n      0x64\n      add\n        /* \"KrishiVerseEscrow.sol\":1843:1902  require(contracts[_id].status == _status, \"Invalid status\") */\n      tag_63\n        /* \"#utility.yul\":9985:10323   */\n      jump\n        /* \"KrishiVerseEscrow.sol\":1843:1902  require(contracts[_id].status == _status, \"Invalid status\") */\n    tag_167:\n        /* \"KrishiVerseEscrow.sol\":4863:4877  contracts[_id] */\n      0x00\n      dup6\n      dup2\n      mstore\n        /* \"KrishiVerseEscrow.sol\":4863:4872  contracts */\n      0x02\n        /* \"KrishiVerseEscrow.sol\":4863:4877  contracts[_id] */\n      0x20\n      mstore\n      0x40\n      dup1\n      dup3\n      keccak256\n        /* \"KrishiVerseEscrow.sol\":4863:4884  contracts[_id].status */\n      0x07\n      add\n        /* \"KrishiVerseEscrow.sol\":4863:4902  contracts[_id].status = Status.Accepted */\n      dup1\n      sload\n      not(0xff)\n      and\n        /* \"KrishiVerseEscrow.sol\":4887:4902  Status.Accepted */\n      0x01\n        /* \"KrishiVerseEscrow.sol\":4863:4902  contracts[_id].status = Status.Accepted */\n      or\n      swap1\n      sstore\n        /* \"KrishiVerseEscrow.sol\":4920:4941  ContractAccepted(_id) */\n      mload\n        /* \"KrishiVerseEscrow.sol\":4863:4877  contracts[_id] */\n      dup7\n      swap2\n        /* \"KrishiVerseEscrow.sol\":4920:4941  ContractAccepted(_id) */\n      0x9c7132f4e666e19f03a58e9057e7395c8b73454680b59d0df359c8d65e529de3\n      swap2\n      log2\n        /* \"KrishiVerseEscrow.sol\":1640:1641  _ */\n      pop\n      pop\n        /* \"KrishiVerseEscrow.sol\":1768:1769  _ */\n      pop\n        /* \"KrishiVerseEscrow.sol\":4684:4949  function acceptContract(... */\n      pop\n      pop\n      jump\t// out\n        /* \"KrishiVerseEscrow.sol\":5134:5742  function rejectContract(... */\n    tag_52:\n        /* \"KrishiVerseEscrow.sol\":5228:5231  _id */\n      dup1\n        /* \"KrishiVerseEscrow.sol\":1718:1733  contractCounter */\n      sload(0x01)\n        /* \"KrishiVerseEscrow.sol\":1712:1715  _id */\n      dup2\n        /* \"KrishiVerseEscrow.sol\":1712:1733  _id < contractCounter */\n      lt\n        /* \"KrishiVerseEscrow.sol\":1704:1757  require(_id < contractCounter, \"Invalid contract ID\") */\n      tag_173\n      jumpi\n      mload(0x40)\n      shl(0xe5, 0x461bcd)\n      dup2\n      mstore\n        /* \"#utility.yul\":9496:9498   */\n      0x20\n        /* \"KrishiVerseEscrow.sol\":1704:1757  require(_id < contractCounter, \"Invalid contract ID\") */\n      0x04\n      dup3\n      add\n        /* \"#utility.yul\":9478:9499   */\n      mstore\n        /* \"#utility.yul\":9535:9537   */\n      0x13\n        /* \"#utility.yul\":9515:9533   */\n      0x24\n      dup3\n      add\n        /* \"#utility.yul\":9508:9538   */\n      mstore\n      shl(0x6a, 0x125b9d985b1a590818dbdb9d1c9858dd081251)\n        /* \"#utility.yul\":9554:9572   */\n      0x44\n      dup3\n      add\n        /* \"#utility.yul\":9547:9596   */\n      mstore\n        /* \"#utility.yul\":9613:9631   */\n      0x64\n      add\n        /* \"KrishiVerseEscrow.sol\":1704:1757  require(_id < contractCounter, \"Invalid contract ID\") */\n      tag_63\n        /* \"#utility.yul\":9294:9637   */\n      jump\n        /* \"KrishiVerseEscrow.sol\":1704:1757  require(_id < contractCounter, \"Invalid contract ID\") */\n    tag_173:\n        /* \"KrishiVerseEscrow.sol\":1593:1607  contracts[_id] */\n      0x00\n      dup3\n      dup2\n      mstore\n        /* \"KrishiVerseEscrow.sol\":1593:1602  contracts */\n      0x02\n        /* \"KrishiVerseEscrow.sol\":1593:1607  contracts[_id] */\n      0x20\n      dup2\n      swap1\n      mstore\n      0x40\n      swap1\n      swap2\n      keccak256\n        /* \"KrishiVerseEscrow.sol\":1593:1614  contracts[_id].farmer */\n      add\n      sload\n        /* \"KrishiVerseEscrow.sol\":1593:1607  contracts[_id] */\n      dup3\n      swap1\n      sub(shl(0xa0, 0x01), 0x01)\n        /* \"KrishiVerseEscrow.sol\":1593:1614  contracts[_id].farmer */\n      and\n        /* \"KrishiVerseEscrow.sol\":1579:1589  msg.sender */\n      caller\n        /* \"KrishiVerseEscrow.sol\":1579:1614  msg.sender == contracts[_id].farmer */\n      eq\n        /* \"KrishiVerseEscrow.sol\":1571:1629  require(msg.sender == contracts[_id].farmer, \"Not farmer\") */\n      tag_176\n      jumpi\n      mload(0x40)\n      shl(0xe5, 0x461bcd)\n      dup2\n      mstore\n        /* \"#utility.yul\":11913:11915   */\n      0x20\n        /* \"KrishiVerseEscrow.sol\":1571:1629  require(msg.sender == contracts[_id].farmer, \"Not farmer\") */\n      0x04\n      dup3\n      add\n        /* \"#utility.yul\":11895:11916   */\n      mstore\n        /* \"#utility.yul\":11952:11954   */\n      0x0a\n        /* \"#utility.yul\":11932:11950   */\n      0x24\n      dup3\n      add\n        /* \"#utility.yul\":11925:11955   */\n      mstore\n      shl(0xb1, 0x2737ba103330b936b2b9)\n        /* \"#utility.yul\":11971:11989   */\n      0x44\n      dup3\n      add\n        /* \"#utility.yul\":11964:12004   */\n      mstore\n        /* \"#utility.yul\":12021:12039   */\n      0x64\n      add\n        /* \"KrishiVerseEscrow.sol\":1571:1629  require(msg.sender == contracts[_id].farmer, \"Not farmer\") */\n      tag_63\n        /* \"#utility.yul\":11711:12045   */\n      jump\n        /* \"KrishiVerseEscrow.sol\":1571:1629  require(msg.sender == contracts[_id].farmer, \"Not farmer\") */\n    tag_176:\n        /* \"KrishiVerseEscrow.sol\":5276:5279  _id */\n      dup3\n        /* \"KrishiVerseEscrow.sol\":5281:5295  Status.Created */\n      0x00\n      dup1\n        /* \"KrishiVerseEscrow.sol\":1851:1865  contracts[_id] */\n      0x00\n      dup4\n      dup2\n      mstore\n        /* \"KrishiVerseEscrow.sol\":1851:1860  contracts */\n      0x02\n        /* \"KrishiVerseEscrow.sol\":1851:1865  contracts[_id] */\n      0x20\n      mstore\n      0x40\n      swap1\n      keccak256\n        /* \"KrishiVerseEscrow.sol\":1851:1872  contracts[_id].status */\n      0x07\n      add\n      sload\n      0xff\n      and\n        /* \"KrishiVerseEscrow.sol\":1851:1883  contracts[_id].status == _status */\n      0x05\n      dup2\n      gt\n      iszero\n      tag_182\n      jumpi\n      tag_182\n      tag_82\n      jump\t// in\n    tag_182:\n      eq\n        /* \"KrishiVerseEscrow.sol\":1843:1902  require(contracts[_id].status == _status, \"Invalid status\") */\n      tag_183\n      jumpi\n      mload(0x40)\n      shl(0xe5, 0x461bcd)\n      dup2\n      mstore\n        /* \"#utility.yul\":10187:10189   */\n      0x20\n        /* \"KrishiVerseEscrow.sol\":1843:1902  require(contracts[_id].status == _status, \"Invalid status\") */\n      0x04\n      dup3\n      add\n        /* \"#utility.yul\":10169:10190   */\n      mstore\n        /* \"#utility.yul\":10226:10228   */\n      0x0e\n        /* \"#utility.yul\":10206:10224   */\n      0x24\n      dup3\n      add\n        /* \"#utility.yul\":10199:10229   */\n      mstore\n      shl(0x90, 0x496e76616c696420737461747573)\n        /* \"#utility.yul\":10245:10263   */\n      0x44\n      dup3\n      add\n        /* \"#utility.yul\":10238:10282   */\n      mstore\n        /* \"#utility.yul\":10299:10317   */\n      0x64\n      add\n        /* \"KrishiVerseEscrow.sol\":1843:1902  require(contracts[_id].status == _status, \"Invalid status\") */\n      tag_63\n        /* \"#utility.yul\":9985:10323   */\n      jump\n        /* \"KrishiVerseEscrow.sol\":1843:1902  require(contracts[_id].status == _status, \"Invalid status\") */\n    tag_183:\n        /* \"KrishiVerseEscrow.sol\":210:216  locked */\n      and(0xff, sload(0x00))\n        /* \"KrishiVerseEscrow.sol\":209:216  !locked */\n      iszero\n        /* \"KrishiVerseEscrow.sol\":201:244  require(!locked, \"Reentrant call detected\") */\n      tag_186\n      jumpi\n      mload(0x40)\n      shl(0xe5, 0x461bcd)\n      dup2\n      mstore\n        /* \"#utility.yul\":4753:4755   */\n      0x20\n        /* \"KrishiVerseEscrow.sol\":201:244  require(!locked, \"Reentrant call detected\") */\n      0x04\n      dup3\n      add\n        /* \"#utility.yul\":4735:4756   */\n      mstore\n        /* \"#utility.yul\":4792:4794   */\n      0x17\n        /* \"#utility.yul\":4772:4790   */\n      0x24\n      dup3\n      add\n        /* \"#utility.yul\":4765:4795   */\n      mstore\n        /* \"#utility.yul\":4831:4856   */\n      0x5265656e7472616e742063616c6c206465746563746564000000000000000000\n        /* \"#utility.yul\":4811:4829   */\n      0x44\n      dup3\n      add\n        /* \"#utility.yul\":4804:4857   */\n      mstore\n        /* \"#utility.yul\":4874:4892   */\n      0x64\n      add\n        /* \"KrishiVerseEscrow.sol\":201:244  require(!locked, \"Reentrant call detected\") */\n      tag_63\n        /* \"#utility.yul\":4551:4898   */\n      jump\n        /* \"KrishiVerseEscrow.sol\":201:244  require(!locked, \"Reentrant call detected\") */\n    tag_186:\n        /* \"KrishiVerseEscrow.sol\":255:261  locked */\n      0x00\n        /* \"KrishiVerseEscrow.sol\":255:268  locked = true */\n      dup1\n      sload\n      not(0xff)\n      and\n        /* \"KrishiVerseEscrow.sol\":264:268  true */\n      0x01\n        /* \"KrishiVerseEscrow.sol\":255:268  locked = true */\n      or\n      dup2\n      sstore\n        /* \"KrishiVerseEscrow.sol\":5363:5377  contracts[_id] */\n      dup6\n      dup2\n      mstore\n        /* \"KrishiVerseEscrow.sol\":5363:5372  contracts */\n      0x02\n        /* \"KrishiVerseEscrow.sol\":5363:5377  contracts[_id] */\n      0x20\n      mstore\n      0x40\n      swap1\n      keccak256\n        /* \"KrishiVerseEscrow.sol\":5407:5423  crop.totalAmount */\n      0x06\n      dup2\n      add\n      sload\n        /* \"KrishiVerseEscrow.sol\":5444:5454  amount > 0 */\n      dup1\n        /* \"KrishiVerseEscrow.sol\":5436:5467  require(amount > 0, \"No funds\") */\n      tag_189\n      jumpi\n      mload(0x40)\n      shl(0xe5, 0x461bcd)\n      dup2\n      mstore\n        /* \"#utility.yul\":12252:12254   */\n      0x20\n        /* \"KrishiVerseEscrow.sol\":5436:5467  require(amount > 0, \"No funds\") */\n      0x04\n      dup3\n      add\n        /* \"#utility.yul\":12234:12255   */\n      mstore\n        /* \"#utility.yul\":12291:12292   */\n      0x08\n        /* \"#utility.yul\":12271:12289   */\n      0x24\n      dup3\n      add\n        /* \"#utility.yul\":12264:12293   */\n      mstore\n        /* \"#utility.yul\":12329:12339   */\n      0x4e6f2066756e6473000000000000000000000000000000000000000000000000\n        /* \"#utility.yul\":12309:12327   */\n      0x44\n      dup3\n      add\n        /* \"#utility.yul\":12302:12340   */\n      mstore\n        /* \"#utility.yul\":12357:12375   */\n      0x64\n      add\n        /* \"KrishiVerseEscrow.sol\":5436:5467  require(amount > 0, \"No funds\") */\n      tag_63\n        /* \"#utility.yul\":12050:12381   */\n      jump\n        /* \"KrishiVerseEscrow.sol\":5436:5467  require(amount > 0, \"No funds\") */\n    tag_189:\n        /* \"KrishiVerseEscrow.sol\":5499:5500  0 */\n      0x00\n        /* \"KrishiVerseEscrow.sol\":5480:5496  crop.totalAmount */\n      0x06\n      dup4\n      add\n        /* \"KrishiVerseEscrow.sol\":5480:5500  crop.totalAmount = 0 */\n      dup2\n      swap1\n      sstore\n        /* \"KrishiVerseEscrow.sol\":5511:5522  crop.status */\n      0x07\n      dup4\n      add\n        /* \"KrishiVerseEscrow.sol\":5511:5540  crop.status = Status.Rejected */\n      dup1\n      sload\n      not(0xff)\n      and\n        /* \"KrishiVerseEscrow.sol\":5525:5540  Status.Rejected */\n      0x02\n        /* \"KrishiVerseEscrow.sol\":5511:5540  crop.status = Status.Rejected */\n      or\n      swap1\n      sstore\n      0x01\n        /* \"KrishiVerseEscrow.sol\":5580:5595  crop.contractor */\n      dup4\n      add\n      sload\n        /* \"KrishiVerseEscrow.sol\":5572:5620  payable(crop.contractor).call{value: amount}(\"\") */\n      mload(0x40)\n      sub(shl(0xa0, 0x01), 0x01)\n        /* \"KrishiVerseEscrow.sol\":5580:5595  crop.contractor */\n      swap1\n      swap2\n      and\n      swap1\n        /* \"KrishiVerseEscrow.sol\":5609:5615  amount */\n      dup4\n      swap1\n        /* \"KrishiVerseEscrow.sol\":5499:5500  0 */\n      dup4\n        /* \"KrishiVerseEscrow.sol\":5572:5620  payable(crop.contractor).call{value: amount}(\"\") */\n      dup2\n        /* \"KrishiVerseEscrow.sol\":5499:5500  0 */\n      dup2\n        /* \"KrishiVerseEscrow.sol\":5572:5620  payable(crop.contractor).call{value: amount}(\"\") */\n      dup2\n        /* \"KrishiVerseEscrow.sol\":5609:5615  amount */\n      dup6\n        /* \"KrishiVerseEscrow.sol\":5580:5595  crop.contractor */\n      dup8\n        /* \"KrishiVerseEscrow.sol\":5572:5620  payable(crop.contractor).call{value: amount}(\"\") */\n      gas\n      call\n      swap3\n      pop\n      pop\n      pop\n      returndatasize\n      dup1\n      0x00\n      dup2\n      eq\n      tag_197\n      jumpi\n      mload(0x40)\n      swap2\n      pop\n      and(add(returndatasize, 0x3f), not(0x1f))\n      dup3\n      add\n      0x40\n      mstore\n      returndatasize\n      dup3\n      mstore\n      returndatasize\n      0x00\n      0x20\n      dup5\n      add\n      returndatacopy\n      jump(tag_196)\n    tag_197:\n      0x60\n      swap2\n      pop\n    tag_196:\n      pop\n        /* \"KrishiVerseEscrow.sol\":5553:5620  (bool success, ) = payable(crop.contractor).call{value: amount}(\"\") */\n      pop\n      swap1\n      pop\n        /* \"KrishiVerseEscrow.sol\":5641:5648  success */\n      dup1\n        /* \"KrishiVerseEscrow.sol\":5633:5666  require(success, \"Refund failed\") */\n      tag_198\n      jumpi\n      mload(0x40)\n      shl(0xe5, 0x461bcd)\n      dup2\n      mstore\n        /* \"#utility.yul\":11571:11573   */\n      0x20\n        /* \"KrishiVerseEscrow.sol\":5633:5666  require(success, \"Refund failed\") */\n      0x04\n      dup3\n      add\n        /* \"#utility.yul\":11553:11574   */\n      mstore\n        /* \"#utility.yul\":11610:11612   */\n      0x0d\n        /* \"#utility.yul\":11590:11608   */\n      0x24\n      dup3\n      add\n        /* \"#utility.yul\":11583:11613   */\n      mstore\n      shl(0x9a, 0x1499599d5b990819985a5b1959)\n        /* \"#utility.yul\":11629:11647   */\n      0x44\n      dup3\n      add\n        /* \"#utility.yul\":11622:11665   */\n      mstore\n        /* \"#utility.yul\":11682:11700   */\n      0x64\n      add\n        /* \"KrishiVerseEscrow.sol\":5633:5666  require(success, \"Refund failed\") */\n      tag_63\n        /* \"#utility.yul\":11369:11706   */\n      jump\n        /* \"KrishiVerseEscrow.sol\":5633:5666  require(success, \"Refund failed\") */\n    tag_198:\n        /* \"KrishiVerseEscrow.sol\":5684:5705  ContractRejected(_id) */\n      mload(0x40)\n        /* \"KrishiVerseEscrow.sol\":5701:5704  _id */\n      dup9\n      swap1\n        /* \"KrishiVerseEscrow.sol\":5684:5705  ContractRejected(_id) */\n      0xe29cd0a4f17a4433c55462cd1d39a0a829ea49064d4c611fbd596d12b2641951\n      swap1\n      0x00\n      swap1\n      log2\n        /* \"KrishiVerseEscrow.sol\":5721:5734  Refunded(_id) */\n      mload(0x40)\n        /* \"KrishiVerseEscrow.sol\":5730:5733  _id */\n      dup9\n      swap1\n        /* \"KrishiVerseEscrow.sol\":5721:5734  Refunded(_id) */\n      0x3d2a04f53164bedf9a8a46353305d6b2d2261410406df3b41f99ce6489dc003c\n      swap1\n      0x00\n      swap1\n      log2\n      pop\n      pop\n        /* \"KrishiVerseEscrow.sol\":300:305  false */\n      0x00\n        /* \"KrishiVerseEscrow.sol\":291:305  locked = false */\n      dup1\n      sload\n      not(0xff)\n      and\n      swap1\n      sstore\n      pop\n      pop\n      pop\n      pop\n      pop\n      pop\n        /* \"KrishiVerseEscrow.sol\":5134:5742  function rejectContract(... */\n      jump\t// out\n        /* \"KrishiVerseEscrow.sol\":5920:6194  function markOutForDelivery(... */\n    tag_56:\n        /* \"KrishiVerseEscrow.sol\":6018:6021  _id */\n      dup1\n        /* \"KrishiVerseEscrow.sol\":1718:1733  contractCounter */\n      sload(0x01)\n        /* \"KrishiVerseEscrow.sol\":1712:1715  _id */\n      dup2\n        /* \"KrishiVerseEscrow.sol\":1712:1733  _id < contractCounter */\n      lt\n        /* \"KrishiVerseEscrow.sol\":1704:1757  require(_id < contractCounter, \"Invalid contract ID\") */\n      tag_201\n      jumpi\n      mload(0x40)\n      shl(0xe5, 0x461bcd)\n      dup2\n      mstore\n        /* \"#utility.yul\":9496:9498   */\n      0x20\n        /* \"KrishiVerseEscrow.sol\":1704:1757  require(_id < contractCounter, \"Invalid contract ID\") */\n      0x04\n      dup3\n      add\n        /* \"#utility.yul\":9478:9499   */\n      mstore\n        /* \"#utility.yul\":9535:9537   */\n      0x13\n        /* \"#utility.yul\":9515:9533   */\n      0x24\n      dup3\n      add\n        /* \"#utility.yul\":9508:9538   */\n      mstore\n      shl(0x6a, 0x125b9d985b1a590818dbdb9d1c9858dd081251)\n        /* \"#utility.yul\":9554:9572   */\n      0x44\n      dup3\n      add\n        /* \"#utility.yul\":9547:9596   */\n      mstore\n        /* \"#utility.yul\":9613:9631   */\n      0x64\n      add\n        /* \"KrishiVerseEscrow.sol\":1704:1757  require(_id < contractCounter, \"Invalid contract ID\") */\n      tag_63\n        /* \"#utility.yul\":9294:9637   */\n      jump\n        /* \"KrishiVerseEscrow.sol\":1704:1757  require(_id < contractCounter, \"Invalid contract ID\") */\n    tag_201:\n        /* \"KrishiVerseEscrow.sol\":1593:1607  contracts[_id] */\n      0x00\n      dup3\n      dup2\n      mstore\n        /* \"KrishiVerseEscrow.sol\":1593:1602  contracts */\n      0x02\n        /* \"KrishiVerseEscrow.sol\":1593:1607  contracts[_id] */\n      0x20\n      dup2\n      swap1\n      mstore\n      0x40\n      swap1\n      swap2\n      keccak256\n        /* \"KrishiVerseEscrow.sol\":1593:1614  contracts[_id].farmer */\n      add\n      sload\n        /* \"KrishiVerseEscrow.sol\":1593:1607  contracts[_id] */\n      dup3\n      swap1\n      sub(shl(0xa0, 0x01), 0x01)\n        /* \"KrishiVerseEscrow.sol\":1593:1614  contracts[_id].farmer */\n      and\n        /* \"KrishiVerseEscrow.sol\":1579:1589  msg.sender */\n      caller\n        /* \"KrishiVerseEscrow.sol\":1579:1614  msg.sender == contracts[_id].farmer */\n      eq\n        /* \"KrishiVerseEscrow.sol\":1571:1629  require(msg.sender == contracts[_id].farmer, \"Not farmer\") */\n      tag_204\n      jumpi\n      mload(0x40)\n      shl(0xe5, 0x461bcd)\n      dup2\n      mstore\n        /* \"#utility.yul\":11913:11915   */\n      0x20\n        /* \"KrishiVerseEscrow.sol\":1571:1629  require(msg.sender == contracts[_id].farmer, \"Not farmer\") */\n      0x04\n      dup3\n      add\n        /* \"#utility.yul\":11895:11916   */\n      mstore\n        /* \"#utility.yul\":11952:11954   */\n      0x0a\n        /* \"#utility.yul\":11932:11950   */\n      0x24\n      dup3\n      add\n        /* \"#utility.yul\":11925:11955   */\n      mstore\n      shl(0xb1, 0x2737ba103330b936b2b9)\n        /* \"#utility.yul\":11971:11989   */\n      0x44\n      dup3\n      add\n        /* \"#utility.yul\":11964:12004   */\n      mstore\n        /* \"#utility.yul\":12021:12039   */\n      0x64\n      add\n        /* \"KrishiVerseEscrow.sol\":1571:1629  require(msg.sender == contracts[_id].farmer, \"Not farmer\") */\n      tag_63\n        /* \"#utility.yul\":11711:12045   */\n      jump\n        /* \"KrishiVerseEscrow.sol\":1571:1629  require(msg.sender == contracts[_id].farmer, \"Not farmer\") */\n    tag_204:\n        /* \"KrishiVerseEscrow.sol\":6066:6069  _id */\n      dup3\n        /* \"KrishiVerseEscrow.sol\":6071:6086  Status.Accepted */\n      0x01\n      dup1\n        /* \"KrishiVerseEscrow.sol\":1851:1865  contracts[_id] */\n      0x00\n      dup4\n      dup2\n      mstore\n        /* \"KrishiVerseEscrow.sol\":1851:1860  contracts */\n      0x02\n        /* \"KrishiVerseEscrow.sol\":1851:1865  contracts[_id] */\n      0x20\n      mstore\n      0x40\n      swap1\n      keccak256\n        /* \"KrishiVerseEscrow.sol\":1851:1872  contracts[_id].status */\n      0x07\n      add\n      sload\n      0xff\n      and\n        /* \"KrishiVerseEscrow.sol\":1851:1883  contracts[_id].status == _status */\n      0x05\n      dup2\n      gt\n      iszero\n      tag_210\n      jumpi\n      tag_210\n      tag_82\n      jump\t// in\n    tag_210:\n      eq\n        /* \"KrishiVerseEscrow.sol\":1843:1902  require(contracts[_id].status == _status, \"Invalid status\") */\n      tag_211\n      jumpi\n      mload(0x40)\n      shl(0xe5, 0x461bcd)\n      dup2\n      mstore\n        /* \"#utility.yul\":10187:10189   */\n      0x20\n        /* \"KrishiVerseEscrow.sol\":1843:1902  require(contracts[_id].status == _status, \"Invalid status\") */\n      0x04\n      dup3\n      add\n        /* \"#utility.yul\":10169:10190   */\n      mstore\n        /* \"#utility.yul\":10226:10228   */\n      0x0e\n        /* \"#utility.yul\":10206:10224   */\n      0x24\n      dup3\n      add\n        /* \"#utility.yul\":10199:10229   */\n      mstore\n      shl(0x90, 0x496e76616c696420737461747573)\n        /* \"#utility.yul\":10245:10263   */\n      0x44\n      dup3\n      add\n        /* \"#utility.yul\":10238:10282   */\n      mstore\n        /* \"#utility.yul\":10299:10317   */\n      0x64\n      add\n        /* \"KrishiVerseEscrow.sol\":1843:1902  require(contracts[_id].status == _status, \"Invalid status\") */\n      tag_63\n        /* \"#utility.yul\":9985:10323   */\n      jump\n        /* \"KrishiVerseEscrow.sol\":1843:1902  require(contracts[_id].status == _status, \"Invalid status\") */\n    tag_211:\n        /* \"KrishiVerseEscrow.sol\":6104:6118  contracts[_id] */\n      0x00\n      dup6\n      dup2\n      mstore\n        /* \"KrishiVerseEscrow.sol\":6104:6113  contracts */\n      0x02\n        /* \"KrishiVerseEscrow.sol\":6104:6118  contracts[_id] */\n      0x20\n      mstore\n      0x40\n      dup1\n      dup3\n      keccak256\n        /* \"KrishiVerseEscrow.sol\":6104:6125  contracts[_id].status */\n      0x07\n      add\n        /* \"KrishiVerseEscrow.sol\":6104:6149  contracts[_id].status = Status.OutForDelivery */\n      dup1\n      sload\n      not(0xff)\n      and\n        /* \"KrishiVerseEscrow.sol\":6128:6149  Status.OutForDelivery */\n      0x03\n        /* \"KrishiVerseEscrow.sol\":6104:6149  contracts[_id].status = Status.OutForDelivery */\n      or\n      swap1\n      sstore\n        /* \"KrishiVerseEscrow.sol\":6167:6186  OutForDelivery(_id) */\n      mload\n        /* \"KrishiVerseEscrow.sol\":6104:6118  contracts[_id] */\n      dup7\n      swap2\n        /* \"KrishiVerseEscrow.sol\":6167:6186  OutForDelivery(_id) */\n      0x03606e8614f03ab01c4f844a0539f68278cd3ba27d7e6970771b43f08157eab2\n      swap2\n      log2\n        /* \"KrishiVerseEscrow.sol\":1640:1641  _ */\n      pop\n      pop\n        /* \"KrishiVerseEscrow.sol\":1768:1769  _ */\n      pop\n        /* \"KrishiVerseEscrow.sol\":5920:6194  function markOutForDelivery(... */\n      pop\n      pop\n      jump\t// out\n        /* \"KrishiVerseEscrow.sol\":6391:6984  function confirmDelivery(... */\n    tag_60:\n        /* \"KrishiVerseEscrow.sol\":6486:6489  _id */\n      dup1\n        /* \"KrishiVerseEscrow.sol\":1718:1733  contractCounter */\n      sload(0x01)\n        /* \"KrishiVerseEscrow.sol\":1712:1715  _id */\n      dup2\n        /* \"KrishiVerseEscrow.sol\":1712:1733  _id < contractCounter */\n      lt\n        /* \"KrishiVerseEscrow.sol\":1704:1757  require(_id < contractCounter, \"Invalid contract ID\") */\n      tag_217\n      jumpi\n      mload(0x40)\n      shl(0xe5, 0x461bcd)\n      dup2\n      mstore\n        /* \"#utility.yul\":9496:9498   */\n      0x20\n        /* \"KrishiVerseEscrow.sol\":1704:1757  require(_id < contractCounter, \"Invalid contract ID\") */\n      0x04\n      dup3\n      add\n        /* \"#utility.yul\":9478:9499   */\n      mstore\n        /* \"#utility.yul\":9535:9537   */\n      0x13\n        /* \"#utility.yul\":9515:9533   */\n      0x24\n      dup3\n      add\n        /* \"#utility.yul\":9508:9538   */\n      mstore\n      shl(0x6a, 0x125b9d985b1a590818dbdb9d1c9858dd081251)\n        /* \"#utility.yul\":9554:9572   */\n      0x44\n      dup3\n      add\n        /* \"#utility.yul\":9547:9596   */\n      mstore\n        /* \"#utility.yul\":9613:9631   */\n      0x64\n      add\n        /* \"KrishiVerseEscrow.sol\":1704:1757  require(_id < contractCounter, \"Invalid contract ID\") */\n      tag_63\n        /* \"#utility.yul\":9294:9637   */\n      jump\n        /* \"KrishiVerseEscrow.sol\":1704:1757  require(_id < contractCounter, \"Invalid contract ID\") */\n    tag_217:\n        /* \"KrishiVerseEscrow.sol\":1455:1469  contracts[_id] */\n      0x00\n      dup3\n      dup2\n      mstore\n        /* \"KrishiVerseEscrow.sol\":1455:1464  contracts */\n      0x02\n        /* \"KrishiVerseEscrow.sol\":1455:1469  contracts[_id] */\n      0x20\n      mstore\n      0x40\n      swap1\n      keccak256\n        /* \"KrishiVerseEscrow.sol\":1455:1480  contracts[_id].contractor */\n      0x01\n      add\n      sload\n        /* \"KrishiVerseEscrow.sol\":1455:1469  contracts[_id] */\n      dup3\n      swap1\n      sub(shl(0xa0, 0x01), 0x01)\n        /* \"KrishiVerseEscrow.sol\":1455:1480  contracts[_id].contractor */\n      and\n        /* \"KrishiVerseEscrow.sol\":1441:1451  msg.sender */\n      caller\n        /* \"KrishiVerseEscrow.sol\":1441:1480  msg.sender == contracts[_id].contractor */\n      eq\n        /* \"KrishiVerseEscrow.sol\":1433:1499  require(msg.sender == contracts[_id].contractor, \"Not contractor\") */\n      tag_220\n      jumpi\n      mload(0x40)\n      shl(0xe5, 0x461bcd)\n      dup2\n      mstore\n        /* \"#utility.yul\":9844:9846   */\n      0x20\n        /* \"KrishiVerseEscrow.sol\":1433:1499  require(msg.sender == contracts[_id].contractor, \"Not contractor\") */\n      0x04\n      dup3\n      add\n        /* \"#utility.yul\":9826:9847   */\n      mstore\n        /* \"#utility.yul\":9883:9885   */\n      0x0e\n        /* \"#utility.yul\":9863:9881   */\n      0x24\n      dup3\n      add\n        /* \"#utility.yul\":9856:9886   */\n      mstore\n      shl(0x91, 0x2737ba1031b7b73a3930b1ba37b9)\n        /* \"#utility.yul\":9902:9920   */\n      0x44\n      dup3\n      add\n        /* \"#utility.yul\":9895:9939   */\n      mstore\n        /* \"#utility.yul\":9956:9974   */\n      0x64\n      add\n        /* \"KrishiVerseEscrow.sol\":1433:1499  require(msg.sender == contracts[_id].contractor, \"Not contractor\") */\n      tag_63\n        /* \"#utility.yul\":9642:9980   */\n      jump\n        /* \"KrishiVerseEscrow.sol\":1433:1499  require(msg.sender == contracts[_id].contractor, \"Not contractor\") */\n    tag_220:\n        /* \"KrishiVerseEscrow.sol\":6538:6541  _id */\n      dup3\n        /* \"KrishiVerseEscrow.sol\":6543:6564  Status.OutForDelivery */\n      0x03\n      dup1\n        /* \"KrishiVerseEscrow.sol\":1851:1865  contracts[_id] */\n      0x00\n      dup4\n      dup2\n      mstore\n        /* \"KrishiVerseEscrow.sol\":1851:1860  contracts */\n      0x02\n        /* \"KrishiVerseEscrow.sol\":1851:1865  contracts[_id] */\n      0x20\n      mstore\n      0x40\n      swap1\n      keccak256\n        /* \"KrishiVerseEscrow.sol\":1851:1872  contracts[_id].status */\n      0x07\n      add\n      sload\n      0xff\n      and\n        /* \"KrishiVerseEscrow.sol\":1851:1883  contracts[_id].status == _status */\n      0x05\n      dup2\n      gt\n      iszero\n      tag_226\n      jumpi\n      tag_226\n      tag_82\n      jump\t// in\n    tag_226:\n      eq\n        /* \"KrishiVerseEscrow.sol\":1843:1902  require(contracts[_id].status == _status, \"Invalid status\") */\n      tag_227\n      jumpi\n      mload(0x40)\n      shl(0xe5, 0x461bcd)\n      dup2\n      mstore\n        /* \"#utility.yul\":10187:10189   */\n      0x20\n        /* \"KrishiVerseEscrow.sol\":1843:1902  require(contracts[_id].status == _status, \"Invalid status\") */\n      0x04\n      dup3\n      add\n        /* \"#utility.yul\":10169:10190   */\n      mstore\n        /* \"#utility.yul\":10226:10228   */\n      0x0e\n        /* \"#utility.yul\":10206:10224   */\n      0x24\n      dup3\n      add\n        /* \"#utility.yul\":10199:10229   */\n      mstore\n      shl(0x90, 0x496e76616c696420737461747573)\n        /* \"#utility.yul\":10245:10263   */\n      0x44\n      dup3\n      add\n        /* \"#utility.yul\":10238:10282   */\n      mstore\n        /* \"#utility.yul\":10299:10317   */\n      0x64\n      add\n        /* \"KrishiVerseEscrow.sol\":1843:1902  require(contracts[_id].status == _status, \"Invalid status\") */\n      tag_63\n        /* \"#utility.yul\":9985:10323   */\n      jump\n        /* \"KrishiVerseEscrow.sol\":1843:1902  require(contracts[_id].status == _status, \"Invalid status\") */\n    tag_227:\n        /* \"KrishiVerseEscrow.sol\":210:216  locked */\n      and(0xff, sload(0x00))\n        /* \"KrishiVerseEscrow.sol\":209:216  !locked */\n      iszero\n        /* \"KrishiVerseEscrow.sol\":201:244  require(!locked, \"Reentrant call detected\") */\n      tag_230\n      jumpi\n      mload(0x40)\n      shl(0xe5, 0x461bcd)\n      dup2\n      mstore\n        /* \"#utility.yul\":4753:4755   */\n      0x20\n        /* \"KrishiVerseEscrow.sol\":201:244  require(!locked, \"Reentrant call detected\") */\n      0x04\n      dup3\n      add\n        /* \"#utility.yul\":4735:4756   */\n      mstore\n        /* \"#utility.yul\":4792:4794   */\n      0x17\n        /* \"#utility.yul\":4772:4790   */\n      0x24\n      dup3\n      add\n        /* \"#utility.yul\":4765:4795   */\n      mstore\n        /* \"#utility.yul\":4831:4856   */\n      0x5265656e7472616e742063616c6c206465746563746564000000000000000000\n        /* \"#utility.yul\":4811:4829   */\n      0x44\n      dup3\n      add\n        /* \"#utility.yul\":4804:4857   */\n      mstore\n        /* \"#utility.yul\":4874:4892   */\n      0x64\n      add\n        /* \"KrishiVerseEscrow.sol\":201:244  require(!locked, \"Reentrant call detected\") */\n      tag_63\n        /* \"#utility.yul\":4551:4898   */\n      jump\n        /* \"KrishiVerseEscrow.sol\":201:244  require(!locked, \"Reentrant call detected\") */\n    tag_230:\n        /* \"KrishiVerseEscrow.sol\":255:261  locked */\n      0x00\n        /* \"KrishiVerseEscrow.sol\":255:268  locked = true */\n      dup1\n      sload\n      not(0xff)\n      and\n        /* \"KrishiVerseEscrow.sol\":264:268  true */\n      0x01\n        /* \"KrishiVerseEscrow.sol\":255:268  locked = true */\n      or\n      dup2\n      sstore\n        /* \"KrishiVerseEscrow.sol\":6632:6646  contracts[_id] */\n      dup6\n      dup2\n      mstore\n        /* \"KrishiVerseEscrow.sol\":6632:6641  contracts */\n      0x02\n        /* \"KrishiVerseEscrow.sol\":6632:6646  contracts[_id] */\n      0x20\n      mstore\n      0x40\n      swap1\n      keccak256\n        /* \"KrishiVerseEscrow.sol\":6676:6692  crop.totalAmount */\n      0x06\n      dup2\n      add\n      sload\n        /* \"KrishiVerseEscrow.sol\":6713:6723  amount > 0 */\n      dup1\n        /* \"KrishiVerseEscrow.sol\":6705:6747  require(amount > 0, \"No funds to release\") */\n      tag_233\n      jumpi\n      mload(0x40)\n      shl(0xe5, 0x461bcd)\n      dup2\n      mstore\n        /* \"#utility.yul\":12588:12590   */\n      0x20\n        /* \"KrishiVerseEscrow.sol\":6705:6747  require(amount > 0, \"No funds to release\") */\n      0x04\n      dup3\n      add\n        /* \"#utility.yul\":12570:12591   */\n      mstore\n        /* \"#utility.yul\":12627:12629   */\n      0x13\n        /* \"#utility.yul\":12607:12625   */\n      0x24\n      dup3\n      add\n        /* \"#utility.yul\":12600:12630   */\n      mstore\n        /* \"#utility.yul\":12666:12687   */\n      0x4e6f2066756e647320746f2072656c6561736500000000000000000000000000\n        /* \"#utility.yul\":12646:12664   */\n      0x44\n      dup3\n      add\n        /* \"#utility.yul\":12639:12688   */\n      mstore\n        /* \"#utility.yul\":12705:12723   */\n      0x64\n      add\n        /* \"KrishiVerseEscrow.sol\":6705:6747  require(amount > 0, \"No funds to release\") */\n      tag_63\n        /* \"#utility.yul\":12386:12729   */\n      jump\n        /* \"KrishiVerseEscrow.sol\":6705:6747  require(amount > 0, \"No funds to release\") */\n    tag_233:\n        /* \"KrishiVerseEscrow.sol\":6779:6780  0 */\n      0x00\n        /* \"KrishiVerseEscrow.sol\":6760:6776  crop.totalAmount */\n      0x06\n      dup4\n      add\n        /* \"KrishiVerseEscrow.sol\":6760:6780  crop.totalAmount = 0 */\n      dup2\n      swap1\n      sstore\n        /* \"KrishiVerseEscrow.sol\":6791:6802  crop.status */\n      0x07\n      dup4\n      add\n        /* \"KrishiVerseEscrow.sol\":6791:6821  crop.status = Status.Delivered */\n      dup1\n      sload\n      not(0xff)\n      and\n        /* \"KrishiVerseEscrow.sol\":6805:6821  Status.Delivered */\n      0x04\n        /* \"KrishiVerseEscrow.sol\":6791:6821  crop.status = Status.Delivered */\n      or\n      swap1\n      sstore\n        /* \"KrishiVerseEscrow.sol\":6861:6872  crop.farmer */\n      0x02\n      dup4\n      add\n      sload\n        /* \"KrishiVerseEscrow.sol\":6853:6897  payable(crop.farmer).call{value: amount}(\"\") */\n      mload(0x40)\n      sub(shl(0xa0, 0x01), 0x01)\n        /* \"KrishiVerseEscrow.sol\":6861:6872  crop.farmer */\n      swap1\n      swap2\n      and\n      swap1\n        /* \"KrishiVerseEscrow.sol\":6886:6892  amount */\n      dup4\n      swap1\n        /* \"KrishiVerseEscrow.sol\":6779:6780  0 */\n      dup4\n        /* \"KrishiVerseEscrow.sol\":6853:6897  payable(crop.farmer).call{value: amount}(\"\") */\n      dup2\n        /* \"KrishiVerseEscrow.sol\":6779:6780  0 */\n      dup2\n        /* \"KrishiVerseEscrow.sol\":6853:6897  payable(crop.farmer).call{value: amount}(\"\") */\n      dup2\n        /* \"KrishiVerseEscrow.sol\":6886:6892  amount */\n      dup6\n        /* \"KrishiVerseEscrow.sol\":6861:6872  crop.farmer */\n      dup8\n        /* \"KrishiVerseEscrow.sol\":6853:6897  payable(crop.farmer).call{value: amount}(\"\") */\n      gas\n      call\n      swap3\n      pop\n      pop\n      pop\n      returndatasize\n      dup1\n      0x00\n      dup2\n      eq\n      tag_241\n      jumpi\n      mload(0x40)\n      swap2\n      pop\n      and(add(returndatasize, 0x3f), not(0x1f))\n      dup3\n      add\n      0x40\n      mstore\n      returndatasize\n      dup3\n      mstore\n      returndatasize\n      0x00\n      0x20\n      dup5\n      add\n      returndatacopy\n      jump(tag_240)\n    tag_241:\n      0x60\n      swap2\n      pop\n    tag_240:\n      pop\n        /* \"KrishiVerseEscrow.sol\":6834:6897  (bool success, ) = payable(crop.farmer).call{value: amount}(\"\") */\n      pop\n      swap1\n      pop\n        /* \"KrishiVerseEscrow.sol\":6918:6925  success */\n      dup1\n        /* \"KrishiVerseEscrow.sol\":6910:6944  require(success, \"Payment failed\") */\n      tag_242\n      jumpi\n      mload(0x40)\n      shl(0xe5, 0x461bcd)\n      dup2\n      mstore\n        /* \"#utility.yul\":12936:12938   */\n      0x20\n        /* \"KrishiVerseEscrow.sol\":6910:6944  require(success, \"Payment failed\") */\n      0x04\n      dup3\n      add\n        /* \"#utility.yul\":12918:12939   */\n      mstore\n        /* \"#utility.yul\":12975:12977   */\n      0x0e\n        /* \"#utility.yul\":12955:12973   */\n      0x24\n      dup3\n      add\n        /* \"#utility.yul\":12948:12978   */\n      mstore\n        /* \"#utility.yul\":13014:13030   */\n      0x5061796d656e74206661696c6564000000000000000000000000000000000000\n        /* \"#utility.yul\":12994:13012   */\n      0x44\n      dup3\n      add\n        /* \"#utility.yul\":12987:13031   */\n      mstore\n        /* \"#utility.yul\":13048:13066   */\n      0x64\n      add\n        /* \"KrishiVerseEscrow.sol\":6910:6944  require(success, \"Payment failed\") */\n      tag_63\n        /* \"#utility.yul\":12734:13072   */\n      jump\n        /* \"KrishiVerseEscrow.sol\":6910:6944  require(success, \"Payment failed\") */\n    tag_242:\n        /* \"KrishiVerseEscrow.sol\":6962:6976  Delivered(_id) */\n      mload(0x40)\n        /* \"KrishiVerseEscrow.sol\":6972:6975  _id */\n      dup9\n      swap1\n        /* \"KrishiVerseEscrow.sol\":6962:6976  Delivered(_id) */\n      0xfcc296b8bdd64e3f1d1faadef50cb2d6550f645316330fe57cb1dd7e0612ead0\n      swap1\n      0x00\n      swap1\n      log2\n      pop\n      pop\n        /* \"KrishiVerseEscrow.sol\":300:305  false */\n      0x00\n        /* \"KrishiVerseEscrow.sol\":291:305  locked = false */\n      dup1\n      sload\n      not(0xff)\n      and\n      swap1\n      sstore\n      pop\n      pop\n      pop\n      pop\n      pop\n      pop\n        /* \"KrishiVerseEscrow.sol\":6391:6984  function confirmDelivery(... */\n      jump\t// out\n    tag_97:\n      mload(0x40)\n      dup1\n      0x0100\n      add\n      0x40\n      mstore\n      dup1\n      0x00\n      dup2\n      mstore\n      0x20\n      add\n      and(sub(shl(0xa0, 0x01), 0x01), 0x00)\n      dup2\n      mstore\n      0x20\n      add\n      and(sub(shl(0xa0, 0x01), 0x01), 0x00)\n      dup2\n      mstore\n      0x20\n      add\n      0x60\n      dup2\n      mstore\n      0x20\n      add\n      0x00\n      dup2\n      mstore\n      0x20\n      add\n      0x00\n      dup2\n      mstore\n      0x20\n      add\n      0x00\n      dup2\n      mstore\n      0x20\n      add\n      0x00\n      0x05\n      dup2\n      gt\n      iszero\n      tag_246\n      jumpi\n      tag_246\n      tag_82\n      jump\t// in\n    tag_246:\n      swap1\n      mstore\n      swap1\n      jump\t// out\n        /* \"#utility.yul\":196:323   */\n    tag_247:\n        /* \"#utility.yul\":257:267   */\n      0x4e487b71\n        /* \"#utility.yul\":252:255   */\n      0xe0\n        /* \"#utility.yul\":248:268   */\n      shl\n        /* \"#utility.yul\":245:246   */\n      0x00\n        /* \"#utility.yul\":238:269   */\n      mstore\n        /* \"#utility.yul\":288:292   */\n      0x41\n        /* \"#utility.yul\":285:286   */\n      0x04\n        /* \"#utility.yul\":278:293   */\n      mstore\n        /* \"#utility.yul\":312:316   */\n      0x24\n        /* \"#utility.yul\":309:310   */\n      0x00\n        /* \"#utility.yul\":302:317   */\n      revert\n        /* \"#utility.yul\":328:1584   */\n    tag_22:\n        /* \"#utility.yul\":424:430   */\n      0x00\n        /* \"#utility.yul\":432:438   */\n      dup1\n        /* \"#utility.yul\":440:446   */\n      0x00\n        /* \"#utility.yul\":448:454   */\n      dup1\n        /* \"#utility.yul\":501:504   */\n      0x80\n        /* \"#utility.yul\":489:498   */\n      dup6\n        /* \"#utility.yul\":480:487   */\n      dup8\n        /* \"#utility.yul\":476:499   */\n      sub\n        /* \"#utility.yul\":472:505   */\n      slt\n        /* \"#utility.yul\":469:522   */\n      iszero\n      tag_258\n      jumpi\n        /* \"#utility.yul\":518:519   */\n      0x00\n        /* \"#utility.yul\":515:516   */\n      dup1\n        /* \"#utility.yul\":508:520   */\n      revert\n        /* \"#utility.yul\":469:522   */\n    tag_258:\n        /* \"#utility.yul\":557:566   */\n      dup5\n        /* \"#utility.yul\":544:567   */\n      calldataload\n      sub(shl(0xa0, 0x01), 0x01)\n        /* \"#utility.yul\":600:605   */\n      dup2\n        /* \"#utility.yul\":596:650   */\n      and\n        /* \"#utility.yul\":589:594   */\n      dup2\n        /* \"#utility.yul\":586:651   */\n      eq\n        /* \"#utility.yul\":576:669   */\n      tag_259\n      jumpi\n        /* \"#utility.yul\":665:666   */\n      0x00\n        /* \"#utility.yul\":662:663   */\n      dup1\n        /* \"#utility.yul\":655:667   */\n      revert\n        /* \"#utility.yul\":576:669   */\n    tag_259:\n        /* \"#utility.yul\":688:693   */\n      swap4\n      pop\n        /* \"#utility.yul\":744:746   */\n      0x20\n        /* \"#utility.yul\":729:747   */\n      dup6\n      add\n        /* \"#utility.yul\":716:748   */\n      calldataload\n        /* \"#utility.yul\":767:785   */\n      0xffffffffffffffff\n        /* \"#utility.yul\":797:811   */\n      dup1\n      dup3\n      gt\n        /* \"#utility.yul\":794:828   */\n      iszero\n      tag_260\n      jumpi\n        /* \"#utility.yul\":824:825   */\n      0x00\n        /* \"#utility.yul\":821:822   */\n      dup1\n        /* \"#utility.yul\":814:826   */\n      revert\n        /* \"#utility.yul\":794:828   */\n    tag_260:\n        /* \"#utility.yul\":862:868   */\n      dup2\n        /* \"#utility.yul\":851:860   */\n      dup8\n        /* \"#utility.yul\":847:869   */\n      add\n        /* \"#utility.yul\":837:869   */\n      swap2\n      pop\n        /* \"#utility.yul\":907:914   */\n      dup8\n        /* \"#utility.yul\":900:904   */\n      0x1f\n        /* \"#utility.yul\":896:898   */\n      dup4\n        /* \"#utility.yul\":892:905   */\n      add\n        /* \"#utility.yul\":888:915   */\n      slt\n        /* \"#utility.yul\":878:933   */\n      tag_261\n      jumpi\n        /* \"#utility.yul\":929:930   */\n      0x00\n        /* \"#utility.yul\":926:927   */\n      dup1\n        /* \"#utility.yul\":919:931   */\n      revert\n        /* \"#utility.yul\":878:933   */\n    tag_261:\n        /* \"#utility.yul\":965:967   */\n      dup2\n        /* \"#utility.yul\":952:968   */\n      calldataload\n        /* \"#utility.yul\":987:989   */\n      dup2\n        /* \"#utility.yul\":983:985   */\n      dup2\n        /* \"#utility.yul\":980:990   */\n      gt\n        /* \"#utility.yul\":977:1013   */\n      iszero\n      tag_263\n      jumpi\n        /* \"#utility.yul\":993:1011   */\n      tag_263\n      tag_247\n      jump\t// in\n    tag_263:\n        /* \"#utility.yul\":1068:1070   */\n      0x40\n        /* \"#utility.yul\":1062:1071   */\n      mload\n        /* \"#utility.yul\":1036:1038   */\n      0x1f\n        /* \"#utility.yul\":1122:1135   */\n      dup3\n      add\n      not(0x1f)\n        /* \"#utility.yul\":1118:1140   */\n      swap1\n      dup2\n      and\n        /* \"#utility.yul\":1142:1144   */\n      0x3f\n        /* \"#utility.yul\":1114:1145   */\n      add\n        /* \"#utility.yul\":1110:1150   */\n      and\n        /* \"#utility.yul\":1098:1151   */\n      dup2\n      add\n      swap1\n        /* \"#utility.yul\":1166:1184   */\n      dup4\n      dup3\n      gt\n        /* \"#utility.yul\":1186:1208   */\n      dup2\n      dup4\n      lt\n        /* \"#utility.yul\":1163:1209   */\n      or\n        /* \"#utility.yul\":1160:1232   */\n      iszero\n      tag_265\n      jumpi\n        /* \"#utility.yul\":1212:1230   */\n      tag_265\n      tag_247\n      jump\t// in\n    tag_265:\n        /* \"#utility.yul\":1252:1262   */\n      dup2\n        /* \"#utility.yul\":1248:1250   */\n      0x40\n        /* \"#utility.yul\":1241:1263   */\n      mstore\n        /* \"#utility.yul\":1287:1289   */\n      dup3\n        /* \"#utility.yul\":1279:1285   */\n      dup2\n        /* \"#utility.yul\":1272:1290   */\n      mstore\n        /* \"#utility.yul\":1327:1334   */\n      dup11\n        /* \"#utility.yul\":1322:1324   */\n      0x20\n        /* \"#utility.yul\":1317:1319   */\n      dup5\n        /* \"#utility.yul\":1313:1315   */\n      dup8\n        /* \"#utility.yul\":1309:1320   */\n      add\n        /* \"#utility.yul\":1305:1325   */\n      add\n        /* \"#utility.yul\":1302:1335   */\n      gt\n        /* \"#utility.yul\":1299:1352   */\n      iszero\n      tag_266\n      jumpi\n        /* \"#utility.yul\":1348:1349   */\n      0x00\n        /* \"#utility.yul\":1345:1346   */\n      dup1\n        /* \"#utility.yul\":1338:1350   */\n      revert\n        /* \"#utility.yul\":1299:1352   */\n    tag_266:\n        /* \"#utility.yul\":1404:1406   */\n      dup3\n        /* \"#utility.yul\":1399:1401   */\n      0x20\n        /* \"#utility.yul\":1395:1397   */\n      dup7\n        /* \"#utility.yul\":1391:1402   */\n      add\n        /* \"#utility.yul\":1386:1388   */\n      0x20\n        /* \"#utility.yul\":1378:1384   */\n      dup4\n        /* \"#utility.yul\":1374:1389   */\n      add\n        /* \"#utility.yul\":1361:1407   */\n      calldatacopy\n        /* \"#utility.yul\":1449:1450   */\n      0x00\n        /* \"#utility.yul\":1427:1442   */\n      swap3\n      dup2\n      add\n        /* \"#utility.yul\":1444:1446   */\n      0x20\n        /* \"#utility.yul\":1423:1447   */\n      add\n        /* \"#utility.yul\":1416:1451   */\n      swap3\n      swap1\n      swap3\n      mstore\n      pop\n        /* \"#utility.yul\":328:1584   */\n      swap6\n      swap9\n        /* \"#utility.yul\":1431:1437   */\n      swap6\n      swap8\n      pop\n      pop\n      pop\n      pop\n        /* \"#utility.yul\":1523:1525   */\n      0x40\n        /* \"#utility.yul\":1508:1526   */\n      dup5\n      add\n        /* \"#utility.yul\":1495:1527   */\n      calldataload\n      swap4\n        /* \"#utility.yul\":1574:1576   */\n      0x60\n        /* \"#utility.yul\":1559:1577   */\n      add\n        /* \"#utility.yul\":1546:1578   */\n      calldataload\n      swap3\n        /* \"#utility.yul\":328:1584   */\n      swap2\n      pop\n      pop\n      jump\t// out\n        /* \"#utility.yul\":1589:1769   */\n    tag_27:\n        /* \"#utility.yul\":1648:1654   */\n      0x00\n        /* \"#utility.yul\":1701:1703   */\n      0x20\n        /* \"#utility.yul\":1689:1698   */\n      dup3\n        /* \"#utility.yul\":1680:1687   */\n      dup5\n        /* \"#utility.yul\":1676:1699   */\n      sub\n        /* \"#utility.yul\":1672:1704   */\n      slt\n        /* \"#utility.yul\":1669:1721   */\n      iszero\n      tag_268\n      jumpi\n        /* \"#utility.yul\":1717:1718   */\n      0x00\n        /* \"#utility.yul\":1714:1715   */\n      dup1\n        /* \"#utility.yul\":1707:1719   */\n      revert\n        /* \"#utility.yul\":1669:1721   */\n    tag_268:\n      pop\n        /* \"#utility.yul\":1740:1763   */\n      calldataload\n      swap2\n        /* \"#utility.yul\":1589:1769   */\n      swap1\n      pop\n      jump\t// out\n        /* \"#utility.yul\":1774:2063   */\n    tag_248:\n        /* \"#utility.yul\":1816:1819   */\n      0x00\n        /* \"#utility.yul\":1854:1859   */\n      dup2\n        /* \"#utility.yul\":1848:1860   */\n      mload\n        /* \"#utility.yul\":1881:1887   */\n      dup1\n        /* \"#utility.yul\":1876:1879   */\n      dup5\n        /* \"#utility.yul\":1869:1888   */\n      mstore\n        /* \"#utility.yul\":1937:1943   */\n      dup1\n        /* \"#utility.yul\":1930:1934   */\n      0x20\n        /* \"#utility.yul\":1923:1928   */\n      dup5\n        /* \"#utility.yul\":1919:1935   */\n      add\n        /* \"#utility.yul\":1912:1916   */\n      0x20\n        /* \"#utility.yul\":1907:1910   */\n      dup7\n        /* \"#utility.yul\":1903:1917   */\n      add\n        /* \"#utility.yul\":1897:1944   */\n      mcopy\n        /* \"#utility.yul\":1989:1990   */\n      0x00\n        /* \"#utility.yul\":1982:1986   */\n      0x20\n        /* \"#utility.yul\":1973:1979   */\n      dup3\n        /* \"#utility.yul\":1968:1971   */\n      dup7\n        /* \"#utility.yul\":1964:1980   */\n      add\n        /* \"#utility.yul\":1960:1987   */\n      add\n        /* \"#utility.yul\":1953:1991   */\n      mstore\n        /* \"#utility.yul\":2052:2056   */\n      0x20\n        /* \"#utility.yul\":2045:2047   */\n      0x1f\n        /* \"#utility.yul\":2041:2048   */\n      not\n        /* \"#utility.yul\":2036:2038   */\n      0x1f\n        /* \"#utility.yul\":2028:2034   */\n      dup4\n        /* \"#utility.yul\":2024:2039   */\n      add\n        /* \"#utility.yul\":2020:2049   */\n      and\n        /* \"#utility.yul\":2015:2018   */\n      dup6\n        /* \"#utility.yul\":2011:2050   */\n      add\n        /* \"#utility.yul\":2007:2057   */\n      add\n        /* \"#utility.yul\":2000:2057   */\n      swap2\n      pop\n      pop\n        /* \"#utility.yul\":1774:2063   */\n      swap3\n      swap2\n      pop\n      pop\n      jump\t// out\n        /* \"#utility.yul\":2068:2195   */\n    tag_82:\n        /* \"#utility.yul\":2129:2139   */\n      0x4e487b71\n        /* \"#utility.yul\":2124:2127   */\n      0xe0\n        /* \"#utility.yul\":2120:2140   */\n      shl\n        /* \"#utility.yul\":2117:2118   */\n      0x00\n        /* \"#utility.yul\":2110:2141   */\n      mstore\n        /* \"#utility.yul\":2160:2164   */\n      0x21\n        /* \"#utility.yul\":2157:2158   */\n      0x04\n        /* \"#utility.yul\":2150:2165   */\n      mstore\n        /* \"#utility.yul\":2184:2188   */\n      0x24\n        /* \"#utility.yul\":2181:2182   */\n      0x00\n        /* \"#utility.yul\":2174:2189   */\n      revert\n        /* \"#utility.yul\":2200:2434   */\n    tag_249:\n        /* \"#utility.yul\":2278:2279   */\n      0x06\n        /* \"#utility.yul\":2271:2276   */\n      dup2\n        /* \"#utility.yul\":2268:2280   */\n      lt\n        /* \"#utility.yul\":2258:2401   */\n      tag_272\n      jumpi\n        /* \"#utility.yul\":2323:2333   */\n      0x4e487b71\n        /* \"#utility.yul\":2318:2321   */\n      0xe0\n        /* \"#utility.yul\":2314:2334   */\n      shl\n        /* \"#utility.yul\":2311:2312   */\n      0x00\n        /* \"#utility.yul\":2304:2335   */\n      mstore\n        /* \"#utility.yul\":2358:2362   */\n      0x21\n        /* \"#utility.yul\":2355:2356   */\n      0x04\n        /* \"#utility.yul\":2348:2363   */\n      mstore\n        /* \"#utility.yul\":2386:2390   */\n      0x24\n        /* \"#utility.yul\":2383:2384   */\n      0x00\n        /* \"#utility.yul\":2376:2391   */\n      revert\n        /* \"#utility.yul\":2258:2401   */\n    tag_272:\n        /* \"#utility.yul\":2410:2428   */\n      swap1\n      mstore\n        /* \"#utility.yul\":2200:2434   */\n      jump\t// out\n        /* \"#utility.yul\":2439:3284   */\n    tag_30:\n        /* \"#utility.yul\":2754:2758   */\n      0x00\n        /* \"#utility.yul\":2783:2786   */\n      0x0100\n        /* \"#utility.yul\":2813:2819   */\n      dup11\n        /* \"#utility.yul\":2802:2811   */\n      dup4\n        /* \"#utility.yul\":2795:2820   */\n      mstore\n      sub(shl(0xa0, 0x01), 0x01)\n        /* \"#utility.yul\":2929:2931   */\n      dup1\n        /* \"#utility.yul\":2921:2927   */\n      dup12\n        /* \"#utility.yul\":2917:2932   */\n      and\n        /* \"#utility.yul\":2912:2914   */\n      0x20\n        /* \"#utility.yul\":2901:2910   */\n      dup6\n        /* \"#utility.yul\":2897:2915   */\n      add\n        /* \"#utility.yul\":2890:2933   */\n      mstore\n        /* \"#utility.yul\":2981:2983   */\n      dup1\n        /* \"#utility.yul\":2973:2979   */\n      dup11\n        /* \"#utility.yul\":2969:2984   */\n      and\n        /* \"#utility.yul\":2964:2966   */\n      0x40\n        /* \"#utility.yul\":2953:2962   */\n      dup6\n        /* \"#utility.yul\":2949:2967   */\n      add\n        /* \"#utility.yul\":2942:2985   */\n      mstore\n      pop\n        /* \"#utility.yul\":3021:3023   */\n      dup1\n        /* \"#utility.yul\":3016:3018   */\n      0x60\n        /* \"#utility.yul\":3005:3014   */\n      dup5\n        /* \"#utility.yul\":3001:3019   */\n      add\n        /* \"#utility.yul\":2994:3024   */\n      mstore\n        /* \"#utility.yul\":3041:3086   */\n      tag_274\n        /* \"#utility.yul\":3082:3084   */\n      dup2\n        /* \"#utility.yul\":3071:3080   */\n      dup5\n        /* \"#utility.yul\":3067:3085   */\n      add\n        /* \"#utility.yul\":3059:3065   */\n      dup10\n        /* \"#utility.yul\":3041:3086   */\n      tag_248\n      jump\t// in\n    tag_274:\n        /* \"#utility.yul\":3033:3086   */\n      swap2\n      pop\n      pop\n        /* \"#utility.yul\":3123:3129   */\n      dup6\n        /* \"#utility.yul\":3117:3120   */\n      0x80\n        /* \"#utility.yul\":3106:3115   */\n      dup4\n        /* \"#utility.yul\":3102:3121   */\n      add\n        /* \"#utility.yul\":3095:3130   */\n      mstore\n        /* \"#utility.yul\":3167:3173   */\n      dup5\n        /* \"#utility.yul\":3161:3164   */\n      0xa0\n        /* \"#utility.yul\":3150:3159   */\n      dup4\n        /* \"#utility.yul\":3146:3165   */\n      add\n        /* \"#utility.yul\":3139:3174   */\n      mstore\n        /* \"#utility.yul\":3211:3217   */\n      dup4\n        /* \"#utility.yul\":3205:3208   */\n      0xc0\n        /* \"#utility.yul\":3194:3203   */\n      dup4\n        /* \"#utility.yul\":3190:3209   */\n      add\n        /* \"#utility.yul\":3183:3218   */\n      mstore\n        /* \"#utility.yul\":3227:3278   */\n      tag_275\n        /* \"#utility.yul\":3273:3276   */\n      0xe0\n        /* \"#utility.yul\":3262:3271   */\n      dup4\n        /* \"#utility.yul\":3258:3277   */\n      add\n        /* \"#utility.yul\":3250:3256   */\n      dup5\n        /* \"#utility.yul\":3227:3278   */\n      tag_249\n      jump\t// in\n    tag_275:\n        /* \"#utility.yul\":2439:3284   */\n      swap10\n      swap9\n      pop\n      pop\n      pop\n      pop\n      pop\n      pop\n      pop\n      pop\n      pop\n      jump\t// out\n        /* \"#utility.yul\":3289:4293   */\n    tag_36:\n        /* \"#utility.yul\":3474:3476   */\n      0x20\n        /* \"#utility.yul\":3463:3472   */\n      dup2\n        /* \"#utility.yul\":3456:3477   */\n      mstore\n        /* \"#utility.yul\":3519:3525   */\n      dup2\n        /* \"#utility.yul\":3513:3526   */\n      mload\n        /* \"#utility.yul\":3508:3510   */\n      0x20\n        /* \"#utility.yul\":3497:3506   */\n      dup3\n        /* \"#utility.yul\":3493:3511   */\n      add\n        /* \"#utility.yul\":3486:3527   */\n      mstore\n        /* \"#utility.yul\":3437:3441   */\n      0x00\n        /* \"#utility.yul\":3574:3576   */\n      0x20\n        /* \"#utility.yul\":3566:3572   */\n      dup4\n        /* \"#utility.yul\":3562:3577   */\n      add\n        /* \"#utility.yul\":3556:3578   */\n      mload\n      sub(shl(0xa0, 0x01), 0x01)\n        /* \"#utility.yul\":3693:3695   */\n      dup1\n        /* \"#utility.yul\":3679:3691   */\n      dup3\n        /* \"#utility.yul\":3675:3696   */\n      and\n        /* \"#utility.yul\":3670:3672   */\n      0x40\n        /* \"#utility.yul\":3659:3668   */\n      dup6\n        /* \"#utility.yul\":3655:3673   */\n      add\n        /* \"#utility.yul\":3648:3697   */\n      mstore\n        /* \"#utility.yul\":3761:3763   */\n      dup1\n        /* \"#utility.yul\":3755:3757   */\n      0x40\n        /* \"#utility.yul\":3747:3753   */\n      dup7\n        /* \"#utility.yul\":3743:3758   */\n      add\n        /* \"#utility.yul\":3737:3759   */\n      mload\n        /* \"#utility.yul\":3733:3764   */\n      and\n        /* \"#utility.yul\":3728:3730   */\n      0x60\n        /* \"#utility.yul\":3717:3726   */\n      dup6\n        /* \"#utility.yul\":3713:3731   */\n      add\n        /* \"#utility.yul\":3706:3765   */\n      mstore\n      pop\n      pop\n        /* \"#utility.yul\":3814:3816   */\n      0x60\n        /* \"#utility.yul\":3806:3812   */\n      dup4\n        /* \"#utility.yul\":3802:3817   */\n      add\n        /* \"#utility.yul\":3796:3818   */\n      mload\n        /* \"#utility.yul\":3837:3843   */\n      0x0100\n        /* \"#utility.yul\":3880:3882   */\n      dup1\n        /* \"#utility.yul\":3874:3877   */\n      0x80\n        /* \"#utility.yul\":3863:3872   */\n      dup6\n        /* \"#utility.yul\":3859:3878   */\n      add\n        /* \"#utility.yul\":3852:3883   */\n      mstore\n        /* \"#utility.yul\":3906:3960   */\n      tag_277\n        /* \"#utility.yul\":3955:3958   */\n      0x0120\n        /* \"#utility.yul\":3944:3953   */\n      dup6\n        /* \"#utility.yul\":3940:3959   */\n      add\n        /* \"#utility.yul\":3924:3938   */\n      dup4\n        /* \"#utility.yul\":3906:3960   */\n      tag_248\n      jump\t// in\n    tag_277:\n        /* \"#utility.yul\":3892:3960   */\n      swap2\n      pop\n        /* \"#utility.yul\":4015:4018   */\n      0x80\n        /* \"#utility.yul\":4007:4013   */\n      dup6\n        /* \"#utility.yul\":4003:4019   */\n      add\n        /* \"#utility.yul\":3997:4020   */\n      mload\n        /* \"#utility.yul\":3991:3994   */\n      0xa0\n        /* \"#utility.yul\":3980:3989   */\n      dup6\n        /* \"#utility.yul\":3976:3995   */\n      add\n        /* \"#utility.yul\":3969:4021   */\n      mstore\n        /* \"#utility.yul\":4076:4079   */\n      0xa0\n        /* \"#utility.yul\":4068:4074   */\n      dup6\n        /* \"#utility.yul\":4064:4080   */\n      add\n        /* \"#utility.yul\":4058:4081   */\n      mload\n        /* \"#utility.yul\":4052:4055   */\n      0xc0\n        /* \"#utility.yul\":4041:4050   */\n      dup6\n        /* \"#utility.yul\":4037:4056   */\n      add\n        /* \"#utility.yul\":4030:4082   */\n      mstore\n        /* \"#utility.yul\":4137:4140   */\n      0xc0\n        /* \"#utility.yul\":4129:4135   */\n      dup6\n        /* \"#utility.yul\":4125:4141   */\n      add\n        /* \"#utility.yul\":4119:4142   */\n      mload\n        /* \"#utility.yul\":4113:4116   */\n      0xe0\n        /* \"#utility.yul\":4102:4111   */\n      dup6\n        /* \"#utility.yul\":4098:4117   */\n      add\n        /* \"#utility.yul\":4091:4143   */\n      mstore\n        /* \"#utility.yul\":4192:4195   */\n      0xe0\n        /* \"#utility.yul\":4184:4190   */\n      dup6\n        /* \"#utility.yul\":4180:4196   */\n      add\n        /* \"#utility.yul\":4174:4197   */\n      mload\n        /* \"#utility.yul\":4206:4264   */\n      tag_278\n        /* \"#utility.yul\":4260:4262   */\n      dup3\n        /* \"#utility.yul\":4249:4258   */\n      dup7\n        /* \"#utility.yul\":4245:4263   */\n      add\n        /* \"#utility.yul\":4229:4243   */\n      dup3\n        /* \"#utility.yul\":4206:4264   */\n      tag_249\n      jump\t// in\n    tag_278:\n      pop\n        /* \"#utility.yul\":4281:4287   */\n      swap1\n      swap5\n        /* \"#utility.yul\":3289:4293   */\n      swap4\n      pop\n      pop\n      pop\n      pop\n      jump\t// out\n        /* \"#utility.yul\":4298:4546   */\n    tag_43:\n        /* \"#utility.yul\":4366:4372   */\n      0x00\n        /* \"#utility.yul\":4374:4380   */\n      dup1\n        /* \"#utility.yul\":4427:4429   */\n      0x40\n        /* \"#utility.yul\":4415:4424   */\n      dup4\n        /* \"#utility.yul\":4406:4413   */\n      dup6\n        /* \"#utility.yul\":4402:4425   */\n      sub\n        /* \"#utility.yul\":4398:4430   */\n      slt\n        /* \"#utility.yul\":4395:4447   */\n      iszero\n      tag_280\n      jumpi\n        /* \"#utility.yul\":4443:4444   */\n      0x00\n        /* \"#utility.yul\":4440:4441   */\n      dup1\n        /* \"#utility.yul\":4433:4445   */\n      revert\n        /* \"#utility.yul\":4395:4447   */\n    tag_280:\n      pop\n      pop\n        /* \"#utility.yul\":4466:4489   */\n      dup1\n      calldataload\n      swap3\n        /* \"#utility.yul\":4536:4538   */\n      0x20\n        /* \"#utility.yul\":4521:4539   */\n      swap1\n      swap2\n      add\n        /* \"#utility.yul\":4508:4540   */\n      calldataload\n      swap2\n      pop\n        /* \"#utility.yul\":4298:4546   */\n      jump\t// out\n        /* \"#utility.yul\":5941:6068   */\n    tag_250:\n        /* \"#utility.yul\":6002:6012   */\n      0x4e487b71\n        /* \"#utility.yul\":5997:6000   */\n      0xe0\n        /* \"#utility.yul\":5993:6013   */\n      shl\n        /* \"#utility.yul\":5990:5991   */\n      0x00\n        /* \"#utility.yul\":5983:6014   */\n      mstore\n        /* \"#utility.yul\":6033:6037   */\n      0x11\n        /* \"#utility.yul\":6030:6031   */\n      0x04\n        /* \"#utility.yul\":6023:6038   */\n      mstore\n        /* \"#utility.yul\":6057:6061   */\n      0x24\n        /* \"#utility.yul\":6054:6055   */\n      0x00\n        /* \"#utility.yul\":6047:6062   */\n      revert\n        /* \"#utility.yul\":6073:6241   */\n    tag_76:\n        /* \"#utility.yul\":6146:6155   */\n      dup1\n      dup3\n      mul\n        /* \"#utility.yul\":6177:6186   */\n      dup2\n      iszero\n        /* \"#utility.yul\":6194:6209   */\n      dup3\n      dup3\n      div\n        /* \"#utility.yul\":6188:6210   */\n      dup5\n      eq\n        /* \"#utility.yul\":6174:6211   */\n      or\n        /* \"#utility.yul\":6164:6235   */\n      tag_288\n      jumpi\n        /* \"#utility.yul\":6215:6233   */\n      tag_288\n      tag_250\n      jump\t// in\n    tag_288:\n        /* \"#utility.yul\":6073:6241   */\n      swap3\n      swap2\n      pop\n      pop\n      jump\t// out\n        /* \"#utility.yul\":6599:6979   */\n    tag_91:\n        /* \"#utility.yul\":6678:6679   */\n      0x01\n        /* \"#utility.yul\":6674:6686   */\n      dup2\n      dup2\n      shr\n      swap1\n        /* \"#utility.yul\":6721:6733   */\n      dup3\n      and\n      dup1\n        /* \"#utility.yul\":6742:6803   */\n      tag_291\n      jumpi\n        /* \"#utility.yul\":6796:6800   */\n      0x7f\n        /* \"#utility.yul\":6788:6794   */\n      dup3\n        /* \"#utility.yul\":6784:6801   */\n      and\n        /* \"#utility.yul\":6774:6801   */\n      swap2\n      pop\n        /* \"#utility.yul\":6742:6803   */\n    tag_291:\n        /* \"#utility.yul\":6849:6851   */\n      0x20\n        /* \"#utility.yul\":6841:6847   */\n      dup3\n        /* \"#utility.yul\":6838:6852   */\n      lt\n        /* \"#utility.yul\":6818:6836   */\n      dup2\n        /* \"#utility.yul\":6815:6853   */\n      sub\n        /* \"#utility.yul\":6812:6973   */\n      tag_102\n      jumpi\n        /* \"#utility.yul\":6895:6905   */\n      0x4e487b71\n        /* \"#utility.yul\":6890:6893   */\n      0xe0\n        /* \"#utility.yul\":6886:6906   */\n      shl\n        /* \"#utility.yul\":6883:6884   */\n      0x00\n        /* \"#utility.yul\":6876:6907   */\n      mstore\n        /* \"#utility.yul\":6930:6934   */\n      0x22\n        /* \"#utility.yul\":6927:6928   */\n      0x04\n        /* \"#utility.yul\":6920:6935   */\n      mstore\n        /* \"#utility.yul\":6958:6962   */\n      0x24\n        /* \"#utility.yul\":6955:6956   */\n      0x00\n        /* \"#utility.yul\":6948:6963   */\n      revert\n        /* \"#utility.yul\":7110:7628   */\n    tag_252:\n        /* \"#utility.yul\":7212:7214   */\n      0x1f\n        /* \"#utility.yul\":7207:7210   */\n      dup3\n        /* \"#utility.yul\":7204:7215   */\n      gt\n        /* \"#utility.yul\":7201:7622   */\n      iszero\n      tag_295\n      jumpi\n        /* \"#utility.yul\":7248:7253   */\n      dup1\n        /* \"#utility.yul\":7245:7246   */\n      0x00\n        /* \"#utility.yul\":7238:7254   */\n      mstore\n        /* \"#utility.yul\":7292:7296   */\n      0x20\n        /* \"#utility.yul\":7289:7290   */\n      0x00\n        /* \"#utility.yul\":7279:7297   */\n      keccak256\n        /* \"#utility.yul\":7362:7364   */\n      0x1f\n        /* \"#utility.yul\":7350:7360   */\n      dup5\n        /* \"#utility.yul\":7346:7365   */\n      add\n        /* \"#utility.yul\":7343:7344   */\n      0x05\n        /* \"#utility.yul\":7339:7366   */\n      shr\n        /* \"#utility.yul\":7333:7337   */\n      dup2\n        /* \"#utility.yul\":7329:7367   */\n      add\n        /* \"#utility.yul\":7398:7402   */\n      0x20\n        /* \"#utility.yul\":7386:7396   */\n      dup6\n        /* \"#utility.yul\":7383:7403   */\n      lt\n        /* \"#utility.yul\":7380:7427   */\n      iszero\n      tag_296\n      jumpi\n      pop\n        /* \"#utility.yul\":7421:7425   */\n      dup1\n        /* \"#utility.yul\":7380:7427   */\n    tag_296:\n        /* \"#utility.yul\":7476:7478   */\n      0x1f\n        /* \"#utility.yul\":7471:7474   */\n      dup5\n        /* \"#utility.yul\":7467:7479   */\n      add\n        /* \"#utility.yul\":7464:7465   */\n      0x05\n        /* \"#utility.yul\":7460:7480   */\n      shr\n        /* \"#utility.yul\":7454:7458   */\n      dup3\n        /* \"#utility.yul\":7450:7481   */\n      add\n        /* \"#utility.yul\":7440:7481   */\n      swap2\n      pop\n        /* \"#utility.yul\":7531:7612   */\n    tag_297:\n        /* \"#utility.yul\":7549:7551   */\n      dup2\n        /* \"#utility.yul\":7542:7547   */\n      dup2\n        /* \"#utility.yul\":7539:7552   */\n      lt\n        /* \"#utility.yul\":7531:7612   */\n      iszero\n      tag_299\n      jumpi\n        /* \"#utility.yul\":7608:7609   */\n      0x00\n        /* \"#utility.yul\":7594:7610   */\n      dup2\n      sstore\n        /* \"#utility.yul\":7575:7576   */\n      0x01\n        /* \"#utility.yul\":7564:7577   */\n      add\n        /* \"#utility.yul\":7531:7612   */\n      jump(tag_297)\n    tag_299:\n        /* \"#utility.yul\":7535:7538   */\n      pop\n      pop\n        /* \"#utility.yul\":7201:7622   */\n    tag_295:\n        /* \"#utility.yul\":7110:7628   */\n      pop\n      pop\n      pop\n      jump\t// out\n        /* \"#utility.yul\":7804:9149   */\n    tag_84:\n        /* \"#utility.yul\":7930:7933   */\n      dup2\n        /* \"#utility.yul\":7924:7934   */\n      mload\n        /* \"#utility.yul\":7957:7975   */\n      0xffffffffffffffff\n        /* \"#utility.yul\":7949:7955   */\n      dup2\n        /* \"#utility.yul\":7946:7976   */\n      gt\n        /* \"#utility.yul\":7943:7999   */\n      iszero\n      tag_303\n      jumpi\n        /* \"#utility.yul\":7979:7997   */\n      tag_303\n      tag_247\n      jump\t// in\n    tag_303:\n        /* \"#utility.yul\":8008:8105   */\n      tag_304\n        /* \"#utility.yul\":8098:8104   */\n      dup2\n        /* \"#utility.yul\":8058:8096   */\n      tag_305\n        /* \"#utility.yul\":8090:8094   */\n      dup5\n        /* \"#utility.yul\":8084:8095   */\n      sload\n        /* \"#utility.yul\":8058:8096   */\n      tag_91\n      jump\t// in\n    tag_305:\n        /* \"#utility.yul\":8052:8056   */\n      dup5\n        /* \"#utility.yul\":8008:8105   */\n      tag_252\n      jump\t// in\n    tag_304:\n        /* \"#utility.yul\":8160:8164   */\n      0x20\n      dup1\n        /* \"#utility.yul\":8217:8219   */\n      0x1f\n        /* \"#utility.yul\":8206:8220   */\n      dup4\n      gt\n        /* \"#utility.yul\":8234:8235   */\n      0x01\n        /* \"#utility.yul\":8229:8892   */\n      dup2\n      eq\n      tag_307\n      jumpi\n        /* \"#utility.yul\":8936:8937   */\n      0x00\n        /* \"#utility.yul\":8953:8959   */\n      dup5\n        /* \"#utility.yul\":8950:9039   */\n      iszero\n      tag_308\n      jumpi\n      pop\n        /* \"#utility.yul\":9005:9024   */\n      dup6\n      dup4\n      add\n        /* \"#utility.yul\":8999:9025   */\n      mload\n        /* \"#utility.yul\":8950:9039   */\n    tag_308:\n      not(0x00)\n        /* \"#utility.yul\":7761:7762   */\n      0x03\n        /* \"#utility.yul\":7757:7768   */\n      dup7\n      swap1\n      shl\n        /* \"#utility.yul\":7753:7777   */\n      shr\n        /* \"#utility.yul\":7749:7778   */\n      not\n        /* \"#utility.yul\":7739:7779   */\n      and\n        /* \"#utility.yul\":7785:7786   */\n      0x01\n        /* \"#utility.yul\":7781:7792   */\n      dup6\n      swap1\n      shl\n        /* \"#utility.yul\":7736:7793   */\n      or\n        /* \"#utility.yul\":9052:9133   */\n      dup6\n      sstore\n        /* \"#utility.yul\":8199:9143   */\n      jump(tag_306)\n        /* \"#utility.yul\":8229:8892   */\n    tag_307:\n        /* \"#utility.yul\":7057:7058   */\n      0x00\n        /* \"#utility.yul\":7050:7064   */\n      dup6\n      dup2\n      mstore\n        /* \"#utility.yul\":7094:7098   */\n      0x20\n        /* \"#utility.yul\":7081:7099   */\n      dup2\n      keccak256\n      not(0x1f)\n        /* \"#utility.yul\":8265:8285   */\n      dup7\n      and\n      swap2\n        /* \"#utility.yul\":8383:8619   */\n    tag_311:\n        /* \"#utility.yul\":8397:8404   */\n      dup3\n        /* \"#utility.yul\":8394:8395   */\n      dup2\n        /* \"#utility.yul\":8391:8405   */\n      lt\n        /* \"#utility.yul\":8383:8619   */\n      iszero\n      tag_313\n      jumpi\n        /* \"#utility.yul\":8486:8505   */\n      dup9\n      dup7\n      add\n        /* \"#utility.yul\":8480:8506   */\n      mload\n        /* \"#utility.yul\":8465:8507   */\n      dup3\n      sstore\n        /* \"#utility.yul\":8578:8605   */\n      swap5\n      dup5\n      add\n      swap5\n        /* \"#utility.yul\":8546:8547   */\n      0x01\n        /* \"#utility.yul\":8534:8548   */\n      swap1\n      swap2\n      add\n      swap1\n        /* \"#utility.yul\":8413:8432   */\n      dup5\n      add\n        /* \"#utility.yul\":8383:8619   */\n      jump(tag_311)\n    tag_313:\n        /* \"#utility.yul\":8387:8390   */\n      pop\n        /* \"#utility.yul\":8647:8653   */\n      dup6\n        /* \"#utility.yul\":8638:8645   */\n      dup3\n        /* \"#utility.yul\":8635:8654   */\n      lt\n        /* \"#utility.yul\":8632:8833   */\n      iszero\n      tag_314\n      jumpi\n        /* \"#utility.yul\":8708:8727   */\n      dup8\n      dup6\n      add\n        /* \"#utility.yul\":8702:8728   */\n      mload\n      not(0x00)\n        /* \"#utility.yul\":8791:8792   */\n      0x03\n        /* \"#utility.yul\":8787:8801   */\n      dup9\n      swap1\n      shl\n        /* \"#utility.yul\":8803:8806   */\n      0xf8\n        /* \"#utility.yul\":8783:8807   */\n      and\n        /* \"#utility.yul\":8779:8816   */\n      shr\n        /* \"#utility.yul\":8775:8817   */\n      not\n        /* \"#utility.yul\":8760:8818   */\n      and\n        /* \"#utility.yul\":8745:8819   */\n      dup2\n      sstore\n        /* \"#utility.yul\":8632:8833   */\n    tag_314:\n      pop\n      pop\n        /* \"#utility.yul\":8879:8880   */\n      0x01\n        /* \"#utility.yul\":8870:8876   */\n      dup5\n        /* \"#utility.yul\":8867:8868   */\n      0x01\n        /* \"#utility.yul\":8863:8877   */\n      shl\n        /* \"#utility.yul\":8859:8881   */\n      add\n        /* \"#utility.yul\":8853:8857   */\n      dup6\n        /* \"#utility.yul\":8846:8882   */\n      sstore\n        /* \"#utility.yul\":8199:9143   */\n    tag_306:\n      pop\n      pop\n      pop\n      pop\n        /* \"#utility.yul\":7804:9149   */\n      pop\n      pop\n      jump\t// out\n        /* \"#utility.yul\":9154:9289   */\n    tag_89:\n        /* \"#utility.yul\":9193:9196   */\n      0x00\n        /* \"#utility.yul\":9214:9231   */\n      0x01\n      dup3\n      add\n        /* \"#utility.yul\":9211:9254   */\n      tag_317\n      jumpi\n        /* \"#utility.yul\":9234:9252   */\n      tag_317\n      tag_250\n      jump\t// in\n    tag_317:\n      pop\n        /* \"#utility.yul\":9281:9282   */\n      0x01\n        /* \"#utility.yul\":9270:9283   */\n      add\n      swap1\n        /* \"#utility.yul\":9154:9289   */\n      jump\t// out\n        /* \"#utility.yul\":10670:10798   */\n    tag_138:\n        /* \"#utility.yul\":10737:10746   */\n      dup2\n      dup2\n      sub\n        /* \"#utility.yul\":10758:10769   */\n      dup2\n      dup2\n      gt\n        /* \"#utility.yul\":10755:10792   */\n      iszero\n      tag_288\n      jumpi\n        /* \"#utility.yul\":10772:10790   */\n      tag_288\n      tag_250\n      jump\t// in\n\n    auxdata: 0xa2646970667358221220c419e96a29a02a5530162e5e569554cb78de2533ea37d9d64286d88210ddc85c64736f6c63430008190033\n}\n",
    "bytecode": {
      "linkReferences": {},
      "object": "6080604052348015600e575f80fd5b506117ec8061001c5f395ff3fe6080604052600436106100ad575f3560e01c8063868dce0111610066578063c99994ef1161004c578063c99994ef14610191578063d3176889146101b0578063fd84cb97146101cf575f80fd5b8063868dce011461015f5780639a115c0414610172575f80fd5b8063474da79a11610096578063474da79a146100ee5780636ebc8c86146101215780636f9fb98a1461014d575f80fd5b8063067bd3b4146100b157806324cc936b146100d9575b5f80fd5b3480156100bc575f80fd5b506100c660015481565b6040519081526020015b60405180910390f35b6100ec6100e73660046113c4565b6101ee565b005b3480156100f9575f80fd5b5061010d61010836600461149c565b610532565b6040516100d0989796959493929190611515565b34801561012c575f80fd5b5061014061013b36600461149c565b61060a565b6040516100d09190611576565b348015610158575f80fd5b50476100c6565b6100ec61016d3660046115fc565b61078e565b34801561017d575f80fd5b506100ec61018c36600461149c565b610b23565b34801561019c575f80fd5b506100ec6101ab36600461149c565b610c72565b3480156101bb575f80fd5b506100ec6101ca36600461149c565b610f44565b3480156101da575f80fd5b506100ec6101e936600461149c565b611094565b5f5460ff16156102455760405162461bcd60e51b815260206004820152601760248201527f5265656e7472616e742063616c6c20646574656374656400000000000000000060448201526064015b60405180910390fd5b5f805460ff191660011790556001600160a01b0384166102a75760405162461bcd60e51b815260206004820152600e60248201527f496e76616c6964206661726d6572000000000000000000000000000000000000604482015260640161023c565b5f82116102f65760405162461bcd60e51b815260206004820152601460248201527f5175616e74697479206d757374206265203e2030000000000000000000000000604482015260640161023c565b5f81116103455760405162461bcd60e51b815260206004820152601160248201527f5072696365206d757374206265203e2030000000000000000000000000000000604482015260640161023c565b5f6103508284611630565b90508034146103a15760405162461bcd60e51b815260206004820152601860248201527f496e636f7272656374207061796d656e7420616d6f756e740000000000000000604482015260640161023c565b6040518061010001604052806001548152602001336001600160a01b03168152602001866001600160a01b031681526020018581526020018481526020018381526020018281526020015f60058111156103fd576103fd6114e1565b9052600180545f90815260026020818152604092839020855181559085015193810180547fffffffffffffffffffffffff00000000000000000000000000000000000000009081166001600160a01b0396871617909155928501519181018054909316919093161790556060820151600382019061047b90826116cb565b506080820151816004015560a0820151816005015560c0820151816006015560e0820151816007015f6101000a81548160ff021916908360058111156104c3576104c36114e1565b0217905550506001546040518381526001600160a01b03881692503391907f3c82c7acfd65de4acffc8bb4aa92575cb40870181efe476224a7198d57870ad89060200160405180910390a460018054905f61051d8361178b565b90915550505f805460ff191690555050505050565b600260208190525f9182526040909120805460018201549282015460038301805492946001600160a01b039081169492169261056d9061164d565b80601f01602080910402602001604051908101604052809291908181526020018280546105999061164d565b80156105e45780601f106105bb576101008083540402835291602001916105e4565b820191905f5260205f20905b8154815290600101906020018083116105c757829003601f168201915b505050506004830154600584015460068501546007909501549394919390925060ff1688565b610612611350565b81600154811061065a5760405162461bcd60e51b8152602060048201526013602482015272125b9d985b1a590818dbdb9d1c9858dd081251606a1b604482015260640161023c565b5f838152600260208181526040928390208351610100810185528154815260018201546001600160a01b039081169382019390935292810154909116928201929092526003820180549192916060840191906106b59061164d565b80601f01602080910402602001604051908101604052809291908181526020018280546106e19061164d565b801561072c5780601f106107035761010080835404028352916020019161072c565b820191905f5260205f20905b81548152906001019060200180831161070f57829003601f168201915b505050918352505060048201546020820152600580830154604083015260068301546060830152600783015460809092019160ff1690811115610771576107716114e1565b6005811115610782576107826114e1565b90525091505b50919050565b8160015481106107d65760405162461bcd60e51b8152602060048201526013602482015272125b9d985b1a590818dbdb9d1c9858dd081251606a1b604482015260640161023c565b5f8381526002602052604090206001015483906001600160a01b031633146108315760405162461bcd60e51b815260206004820152600e60248201526d2737ba1031b7b73a3930b1ba37b960911b604482015260640161023c565b835f805f8381526002602052604090206007015460ff166005811115610859576108596114e1565b146108975760405162461bcd60e51b815260206004820152600e60248201526d496e76616c69642073746174757360901b604482015260640161023c565b5f5460ff16156108e95760405162461bcd60e51b815260206004820152601760248201527f5265656e7472616e742063616c6c206465746563746564000000000000000000604482015260640161023c565b5f805460ff19166001179055846109425760405162461bcd60e51b815260206004820152600d60248201527f496e76616c696420707269636500000000000000000000000000000000000000604482015260640161023c565b5f8681526002602052604081206006810154600482015491929091610968908990611630565b9050818111156109cf5761097c82826117a3565b34146109ca5760405162461bcd60e51b815260206004820152601b60248201527f4164646974696f6e616c207061796d656e742072657175697265640000000000604482015260640161023c565b610acb565b81811015610acb575f6109e282846117a3565b60068501839055600585018a905560018501546040519192505f916001600160a01b039091169083908381818185875af1925050503d805f8114610a41576040519150601f19603f3d011682016040523d82523d5f602084013e610a46565b606091505b5050905080610a875760405162461bcd60e51b815260206004820152600d60248201526c1499599d5b990819985a5b1959609a1b604482015260640161023c565b8a7fd8d9aca34b33358a82f9ffe591bcca6863de1c4e4e801817f86790fd5628ff1d8b604051610ab991815260200190565b60405180910390a25050505050610b12565b600683018190556005830188905560405188815289907fd8d9aca34b33358a82f9ffe591bcca6863de1c4e4e801817f86790fd5628ff1d9060200160405180910390a25050505b50505f805460ff1916905550505050565b806001548110610b6b5760405162461bcd60e51b8152602060048201526013602482015272125b9d985b1a590818dbdb9d1c9858dd081251606a1b604482015260640161023c565b5f828152600260208190526040909120015482906001600160a01b03163314610bc35760405162461bcd60e51b815260206004820152600a6024820152692737ba103330b936b2b960b11b604482015260640161023c565b825f805f8381526002602052604090206007015460ff166005811115610beb57610beb6114e1565b14610c295760405162461bcd60e51b815260206004820152600e60248201526d496e76616c69642073746174757360901b604482015260640161023c565b5f85815260026020526040808220600701805460ff191660011790555186917f9c7132f4e666e19f03a58e9057e7395c8b73454680b59d0df359c8d65e529de391a25050505050565b806001548110610cba5760405162461bcd60e51b8152602060048201526013602482015272125b9d985b1a590818dbdb9d1c9858dd081251606a1b604482015260640161023c565b5f828152600260208190526040909120015482906001600160a01b03163314610d125760405162461bcd60e51b815260206004820152600a6024820152692737ba103330b936b2b960b11b604482015260640161023c565b825f805f8381526002602052604090206007015460ff166005811115610d3a57610d3a6114e1565b14610d785760405162461bcd60e51b815260206004820152600e60248201526d496e76616c69642073746174757360901b604482015260640161023c565b5f5460ff1615610dca5760405162461bcd60e51b815260206004820152601760248201527f5265656e7472616e742063616c6c206465746563746564000000000000000000604482015260640161023c565b5f805460ff19166001178155858152600260205260409020600681015480610e345760405162461bcd60e51b815260206004820152600860248201527f4e6f2066756e6473000000000000000000000000000000000000000000000000604482015260640161023c565b5f6006830181905560078301805460ff1916600217905560018301546040516001600160a01b039091169083908381818185875af1925050503d805f8114610e97576040519150601f19603f3d011682016040523d82523d5f602084013e610e9c565b606091505b5050905080610edd5760405162461bcd60e51b815260206004820152600d60248201526c1499599d5b990819985a5b1959609a1b604482015260640161023c565b60405188907fe29cd0a4f17a4433c55462cd1d39a0a829ea49064d4c611fbd596d12b2641951905f90a260405188907f3d2a04f53164bedf9a8a46353305d6b2d2261410406df3b41f99ce6489dc003c905f90a250505f805460ff19169055505050505050565b806001548110610f8c5760405162461bcd60e51b8152602060048201526013602482015272125b9d985b1a590818dbdb9d1c9858dd081251606a1b604482015260640161023c565b5f828152600260208190526040909120015482906001600160a01b03163314610fe45760405162461bcd60e51b815260206004820152600a6024820152692737ba103330b936b2b960b11b604482015260640161023c565b826001805f8381526002602052604090206007015460ff16600581111561100d5761100d6114e1565b1461104b5760405162461bcd60e51b815260206004820152600e60248201526d496e76616c69642073746174757360901b604482015260640161023c565b5f85815260026020526040808220600701805460ff191660031790555186917f03606e8614f03ab01c4f844a0539f68278cd3ba27d7e6970771b43f08157eab291a25050505050565b8060015481106110dc5760405162461bcd60e51b8152602060048201526013602482015272125b9d985b1a590818dbdb9d1c9858dd081251606a1b604482015260640161023c565b5f8281526002602052604090206001015482906001600160a01b031633146111375760405162461bcd60e51b815260206004820152600e60248201526d2737ba1031b7b73a3930b1ba37b960911b604482015260640161023c565b826003805f8381526002602052604090206007015460ff166005811115611160576111606114e1565b1461119e5760405162461bcd60e51b815260206004820152600e60248201526d496e76616c69642073746174757360901b604482015260640161023c565b5f5460ff16156111f05760405162461bcd60e51b815260206004820152601760248201527f5265656e7472616e742063616c6c206465746563746564000000000000000000604482015260640161023c565b5f805460ff1916600117815585815260026020526040902060068101548061125a5760405162461bcd60e51b815260206004820152601360248201527f4e6f2066756e647320746f2072656c6561736500000000000000000000000000604482015260640161023c565b5f6006830181905560078301805460ff1916600417905560028301546040516001600160a01b039091169083908381818185875af1925050503d805f81146112bd576040519150601f19603f3d011682016040523d82523d5f602084013e6112c2565b606091505b50509050806113135760405162461bcd60e51b815260206004820152600e60248201527f5061796d656e74206661696c6564000000000000000000000000000000000000604482015260640161023c565b60405188907ffcc296b8bdd64e3f1d1faadef50cb2d6550f645316330fe57cb1dd7e0612ead0905f90a250505f805460ff19169055505050505050565b6040518061010001604052805f81526020015f6001600160a01b031681526020015f6001600160a01b03168152602001606081526020015f81526020015f81526020015f81526020015f60058111156113ab576113ab6114e1565b905290565b634e487b7160e01b5f52604160045260245ffd5b5f805f80608085870312156113d7575f80fd5b84356001600160a01b03811681146113ed575f80fd5b9350602085013567ffffffffffffffff80821115611409575f80fd5b818701915087601f83011261141c575f80fd5b81358181111561142e5761142e6113b0565b604051601f8201601f19908116603f01168101908382118183101715611456576114566113b0565b816040528281528a602084870101111561146e575f80fd5b826020860160208301375f928101602001929092525095989597505050506040840135936060013592915050565b5f602082840312156114ac575f80fd5b5035919050565b5f81518084528060208401602086015e5f602082860101526020601f19601f83011685010191505092915050565b634e487b7160e01b5f52602160045260245ffd5b6006811061151157634e487b7160e01b5f52602160045260245ffd5b9052565b5f6101008a83526001600160a01b03808b166020850152808a16604085015250806060840152611547818401896114b3565b9150508560808301528460a08301528360c083015261156960e08301846114f5565b9998505050505050505050565b60208152815160208201525f60208301516001600160a01b038082166040850152806040860151166060850152505060608301516101008060808501526115c16101208501836114b3565b9150608085015160a085015260a085015160c085015260c085015160e085015260e08501516115f2828601826114f5565b5090949350505050565b5f806040838503121561160d575f80fd5b50508035926020909101359150565b634e487b7160e01b5f52601160045260245ffd5b80820281158282048414176116475761164761161c565b92915050565b600181811c9082168061166157607f821691505b60208210810361078857634e487b7160e01b5f52602260045260245ffd5b601f8211156116c657805f5260205f20601f840160051c810160208510156116a45750805b601f840160051c820191505b818110156116c3575f81556001016116b0565b50505b505050565b815167ffffffffffffffff8111156116e5576116e56113b0565b6116f9816116f3845461164d565b8461167f565b602080601f83116001811461172c575f84156117155750858301515b5f19600386901b1c1916600185901b178555611783565b5f85815260208120601f198616915b8281101561175a5788860151825594840194600190910190840161173b565b508582101561177757878501515f19600388901b60f8161c191681555b505060018460011b0185555b505050505050565b5f6001820161179c5761179c61161c565b5060010190565b818103818111156116475761164761161c56fea2646970667358221220c419e96a29a02a5530162e5e569554cb78de2533ea37d9d64286d88210ddc85c64736f6c63430008190033",
      "opcodes": "PUSH1 0x80 PUSH1 0x40 MSTORE CALLVALUE DUP1 ISZERO PUSH1 0xE JUMPI PUSH0 DUP1 REVERT JUMPDEST POP PUSH2 0x17EC DUP1 PUSH2 0x1C PUSH0 CODECOPY PUSH0 RETURN INVALID PUSH1 0x80 PUSH1 0x40 MSTORE PUSH1 0x4 CALLDATASIZE LT PUSH2 0xAD JUMPI PUSH0 CALLDATALOAD PUSH1 0xE0 SHR DUP1 PUSH4 0x868DCE01 GT PUSH2 0x66 JUMPI DUP1 PUSH4 0xC99994EF GT PUSH2 0x4C JUMPI DUP1 PUSH4 0xC99994EF EQ PUSH2 0x191 JUMPI DUP1 PUSH4 0xD3176889 EQ PUSH2 0x1B0 JUMPI DUP1 PUSH4 0xFD84CB97 EQ PUSH2 0x1CF JUMPI PUSH0 DUP1 REVERT JUMPDEST DUP1 PUSH4 0x868DCE01 EQ PUSH2 0x15F JUMPI DUP1 PUSH4 0x9A115C04 EQ PUSH2 0x172 JUMPI PUSH0 DUP1 REVERT JUMPDEST DUP1 PUSH4 0x474DA79A GT PUSH2 0x96 JUMPI DUP1 PUSH4 0x474DA79A EQ PUSH2 0xEE JUMPI DUP1 PUSH4 0x6EBC8C86 EQ PUSH2 0x121 JUMPI DUP1 PUSH4 0x6F9FB98A EQ PUSH2 0x14D JUMPI PUSH0 DUP1 REVERT JUMPDEST DUP1 PUSH4 0x67BD3B4 EQ PUSH2 0xB1 JUMPI DUP1 PUSH4 0x24CC936B EQ PUSH2 0xD9 JUMPI JUMPDEST PUSH0 DUP1 REVERT JUMPDEST CALLVALUE DUP1 ISZERO PUSH2 0xBC JUMPI PUSH0 DUP1 REVERT JUMPDEST POP PUSH2 0xC6 PUSH1 0x1 SLOAD DUP2 JUMP JUMPDEST PUSH1 0x40 MLOAD SWAP1 DUP2 MSTORE PUSH1 0x20 ADD JUMPDEST PUSH1 0x40 MLOAD DUP1 SWAP2 SUB SWAP1 RETURN JUMPDEST PUSH2 0xEC PUSH2 0xE7 CALLDATASIZE PUSH1 0x4 PUSH2 0x13C4 JUMP JUMPDEST PUSH2 0x1EE JUMP JUMPDEST STOP JUMPDEST CALLVALUE DUP1 ISZERO PUSH2 0xF9 JUMPI PUSH0 DUP1 REVERT JUMPDEST POP PUSH2 0x10D PUSH2 0x108 CALLDATASIZE PUSH1 0x4 PUSH2 0x149C JUMP JUMPDEST PUSH2 0x532 JUMP JUMPDEST PUSH1 0x40 MLOAD PUSH2 0xD0 SWAP9 SWAP8 SWAP7 SWAP6 SWAP5 SWAP4 SWAP3 SWAP2 SWAP1 PUSH2 0x1515 JUMP JUMPDEST CALLVALUE DUP1 ISZERO PUSH2 0x12C JUMPI PUSH0 DUP1 REVERT JUMPDEST POP PUSH2 0x140 PUSH2 0x13B CALLDATASIZE PUSH1 0x4 PUSH2 0x149C JUMP JUMPDEST PUSH2 0x60A JUMP JUMPDEST PUSH1 0x40 MLOAD PUSH2 0xD0 SWAP2 SWAP1 PUSH2 0x1576 JUMP JUMPDEST CALLVALUE DUP1 ISZERO PUSH2 0x158 JUMPI PUSH0 DUP1 REVERT JUMPDEST POP SELFBALANCE PUSH2 0xC6 JUMP JUMPDEST PUSH2 0xEC PUSH2 0x16D CALLDATASIZE PUSH1 0x4 PUSH2 0x15FC JUMP JUMPDEST PUSH2 0x78E JUMP JUMPDEST CALLVALUE DUP1 ISZERO PUSH2 0x17D JUMPI PUSH0 DUP1 REVERT JUMPDEST POP PUSH2 0xEC PUSH2 0x18C CALLDATASIZE PUSH1 0x4 PUSH2 0x149C JUMP JUMPDEST PUSH2 0xB23 JUMP JUMPDEST CALLVALUE DUP1 ISZERO PUSH2 0x19C JUMPI PUSH0 DUP1 REVERT JUMPDEST POP PUSH2 0xEC PUSH2 0x1AB CALLDATASIZE PUSH1 0x4 PUSH2 0x149C JUMP JUMPDEST PUSH2 0xC72 JUMP JUMPDEST CALLVALUE DUP1 ISZERO PUSH2 0x1BB JUMPI PUSH0 DUP1 REVERT JUMPDEST POP PUSH2 0xEC PUSH2 0x1CA CALLDATASIZE PUSH1 0x4 PUSH2 0x149C JUMP JUMPDEST PUSH2 0xF44 JUMP JUMPDEST CALLVALUE DUP1 ISZERO PUSH2 0x1DA JUMPI PUSH0 DUP1 REVERT JUMPDEST POP PUSH2 0xEC PUSH2 0x1E9 CALLDATASIZE PUSH1 0x4 PUSH2 0x149C JUMP JUMPDEST PUSH2 0x1094 JUMP JUMPDEST PUSH0 SLOAD PUSH1 0xFF AND ISZERO PUSH2 0x245 JUMPI PUSH1 0x40 MLOAD PUSH3 0x461BCD PUSH1 0xE5 SHL DUP2 MSTORE PUSH1 0x20 PUSH1 0x4 DUP3 ADD MSTORE PUSH1 0x17 PUSH1 0x24 DUP3 ADD MSTORE PUSH32 0x5265656E7472616E742063616C6C206465746563746564000000000000000000 PUSH1 0x44 DUP3 ADD MSTORE PUSH1 0x64 ADD JUMPDEST PUSH1 0x40 MLOAD DUP1 SWAP2 SUB SWAP1 REVERT JUMPDEST PUSH0 DUP1 SLOAD PUSH1 0xFF NOT AND PUSH1 0x1 OR SWAP1 SSTORE PUSH1 0x1 PUSH1 0x1 PUSH1 0xA0 SHL SUB DUP5 AND PUSH2 0x2A7 JUMPI PUSH1 0x40 MLOAD PUSH3 0x461BCD PUSH1 0xE5 SHL DUP2 MSTORE PUSH1 0x20 PUSH1 0x4 DUP3 ADD MSTORE PUSH1 0xE PUSH1 0x24 DUP3 ADD MSTORE PUSH32 0x496E76616C6964206661726D6572000000000000000000000000000000000000 PUSH1 0x44 DUP3 ADD MSTORE PUSH1 0x64 ADD PUSH2 0x23C JUMP JUMPDEST PUSH0 DUP3 GT PUSH2 0x2F6 JUMPI PUSH1 0x40 MLOAD PUSH3 0x461BCD PUSH1 0xE5 SHL DUP2 MSTORE PUSH1 0x20 PUSH1 0x4 DUP3 ADD MSTORE PUSH1 0x14 PUSH1 0x24 DUP3 ADD MSTORE PUSH32 0x5175616E74697479206D757374206265203E2030000000000000000000000000 PUSH1 0x44 DUP3 ADD MSTORE PUSH1 0x64 ADD PUSH2 0x23C JUMP JUMPDEST PUSH0 DUP2 GT PUSH2 0x345 JUMPI PUSH1 0x40 MLOAD PUSH3 0x461BCD PUSH1 0xE5 SHL DUP2 MSTORE PUSH1 0x20 PUSH1 0x4 DUP3 ADD MSTORE PUSH1 0x11 PUSH1 0x24 DUP3 ADD MSTORE PUSH32 0x5072696365206D757374206265203E2030000000000000000000000000000000 PUSH1 0x44 DUP3 ADD MSTORE PUSH1 0x64 ADD PUSH2 0x23C JUMP JUMPDEST PUSH0 PUSH2 0x350 DUP3 DUP5 PUSH2 0x1630 JUMP JUMPDEST SWAP1 POP DUP1 CALLVALUE EQ PUSH2 0x3A1 JUMPI PUSH1 0x40 MLOAD PUSH3 0x461BCD PUSH1 0xE5 SHL DUP2 MSTORE PUSH1 0x20 PUSH1 0x4 DUP3 ADD MSTORE PUSH1 0x18 PUSH1 0x24 DUP3 ADD MSTORE PUSH32 0x496E636F7272656374207061796D656E7420616D6F756E740000000000000000 PUSH1 0x44 DUP3 ADD MSTORE PUSH1 0x64 ADD PUSH2 0x23C JUMP JUMPDEST PUSH1 0x40 MLOAD DUP1 PUSH2 0x100 ADD PUSH1 0x40 MSTORE DUP1 PUSH1 0x1 SLOAD DUP2 MSTORE PUSH1 0x20 ADD CALLER PUSH1 0x1 PUSH1 0x1 PUSH1 0xA0 SHL SUB AND DUP2 MSTORE PUSH1 0x20 ADD DUP7 PUSH1 0x1 PUSH1 0x1 PUSH1 0xA0 SHL SUB AND DUP2 MSTORE PUSH1 0x20 ADD DUP6 DUP2 MSTORE PUSH1 0x20 ADD DUP5 DUP2 MSTORE PUSH1 0x20 ADD DUP4 DUP2 MSTORE PUSH1 0x20 ADD DUP3 DUP2 MSTORE PUSH1 0x20 ADD PUSH0 PUSH1 0x5 DUP2 GT ISZERO PUSH2 0x3FD JUMPI PUSH2 0x3FD PUSH2 0x14E1 JUMP JUMPDEST SWAP1 MSTORE PUSH1 0x1 DUP1 SLOAD PUSH0 SWAP1 DUP2 MSTORE PUSH1 0x2 PUSH1 0x20 DUP2 DUP2 MSTORE PUSH1 0x40 SWAP3 DUP4 SWAP1 KECCAK256 DUP6 MLOAD DUP2 SSTORE SWAP1 DUP6 ADD MLOAD SWAP4 DUP2 ADD DUP1 SLOAD PUSH32 0xFFFFFFFFFFFFFFFFFFFFFFFF0000000000000000000000000000000000000000 SWAP1 DUP2 AND PUSH1 0x1 PUSH1 0x1 PUSH1 0xA0 SHL SUB SWAP7 DUP8 AND OR SWAP1 SWAP2 SSTORE SWAP3 DUP6 ADD MLOAD SWAP2 DUP2 ADD DUP1 SLOAD SWAP1 SWAP4 AND SWAP2 SWAP1 SWAP4 AND OR SWAP1 SSTORE PUSH1 0x60 DUP3 ADD MLOAD PUSH1 0x3 DUP3 ADD SWAP1 PUSH2 0x47B SWAP1 DUP3 PUSH2 0x16CB JUMP JUMPDEST POP PUSH1 0x80 DUP3 ADD MLOAD DUP2 PUSH1 0x4 ADD SSTORE PUSH1 0xA0 DUP3 ADD MLOAD DUP2 PUSH1 0x5 ADD SSTORE PUSH1 0xC0 DUP3 ADD MLOAD DUP2 PUSH1 0x6 ADD SSTORE PUSH1 0xE0 DUP3 ADD MLOAD DUP2 PUSH1 0x7 ADD PUSH0 PUSH2 0x100 EXP DUP2 SLOAD DUP2 PUSH1 0xFF MUL NOT AND SWAP1 DUP4 PUSH1 0x5 DUP2 GT ISZERO PUSH2 0x4C3 JUMPI PUSH2 0x4C3 PUSH2 0x14E1 JUMP JUMPDEST MUL OR SWAP1 SSTORE POP POP PUSH1 0x1 SLOAD PUSH1 0x40 MLOAD DUP4 DUP2 MSTORE PUSH1 0x1 PUSH1 0x1 PUSH1 0xA0 SHL SUB DUP9 AND SWAP3 POP CALLER SWAP2 SWAP1 PUSH32 0x3C82C7ACFD65DE4ACFFC8BB4AA92575CB40870181EFE476224A7198D57870AD8 SWAP1 PUSH1 0x20 ADD PUSH1 0x40 MLOAD DUP1 SWAP2 SUB SWAP1 LOG4 PUSH1 0x1 DUP1 SLOAD SWAP1 PUSH0 PUSH2 0x51D DUP4 PUSH2 0x178B JUMP JUMPDEST SWAP1 SWAP2 SSTORE POP POP PUSH0 DUP1 SLOAD PUSH1 0xFF NOT AND SWAP1 SSTORE POP POP POP POP POP JUMP JUMPDEST PUSH1 0x2 PUSH1 0x20 DUP2 SWAP1 MSTORE PUSH0 SWAP2 DUP3 MSTORE PUSH1 0x40 SWAP1 SWAP2 KECCAK256 DUP1 SLOAD PUSH1 0x1 DUP3 ADD SLOAD SWAP3 DUP3 ADD SLOAD PUSH1 0x3 DUP4 ADD DUP1 SLOAD SWAP3 SWAP5 PUSH1 0x1 PUSH1 0x1 PUSH1 0xA0 SHL SUB SWAP1 DUP2 AND SWAP5 SWAP3 AND SWAP3 PUSH2 0x56D SWAP1 PUSH2 0x164D JUMP JUMPDEST DUP1 PUSH1 0x1F ADD PUSH1 0x20 DUP1 SWAP2 DIV MUL PUSH1 0x20 ADD PUSH1 0x40 MLOAD SWAP1 DUP2 ADD PUSH1 0x40 MSTORE DUP1 SWAP3 SWAP2 SWAP1 DUP2 DUP2 MSTORE PUSH1 0x20 ADD DUP3 DUP1 SLOAD PUSH2 0x599 SWAP1 PUSH2 0x164D JUMP JUMPDEST DUP1 ISZERO PUSH2 0x5E4 JUMPI DUP1 PUSH1 0x1F LT PUSH2 0x5BB JUMPI PUSH2 0x100 DUP1 DUP4 SLOAD DIV MUL DUP4 MSTORE SWAP2 PUSH1 0x20 ADD SWAP2 PUSH2 0x5E4 JUMP JUMPDEST DUP3 ADD SWAP2 SWAP1 PUSH0 MSTORE PUSH1 0x20 PUSH0 KECCAK256 SWAP1 JUMPDEST DUP2 SLOAD DUP2 MSTORE SWAP1 PUSH1 0x1 ADD SWAP1 PUSH1 0x20 ADD DUP1 DUP4 GT PUSH2 0x5C7 JUMPI DUP3 SWAP1 SUB PUSH1 0x1F AND DUP3 ADD SWAP2 JUMPDEST POP POP POP POP PUSH1 0x4 DUP4 ADD SLOAD PUSH1 0x5 DUP5 ADD SLOAD PUSH1 0x6 DUP6 ADD SLOAD PUSH1 0x7 SWAP1 SWAP6 ADD SLOAD SWAP4 SWAP5 SWAP2 SWAP4 SWAP1 SWAP3 POP PUSH1 0xFF AND DUP9 JUMP JUMPDEST PUSH2 0x612 PUSH2 0x1350 JUMP JUMPDEST DUP2 PUSH1 0x1 SLOAD DUP2 LT PUSH2 0x65A JUMPI PUSH1 0x40 MLOAD PUSH3 0x461BCD PUSH1 0xE5 SHL DUP2 MSTORE PUSH1 0x20 PUSH1 0x4 DUP3 ADD MSTORE PUSH1 0x13 PUSH1 0x24 DUP3 ADD MSTORE PUSH19 0x125B9D985B1A590818DBDB9D1C9858DD081251 PUSH1 0x6A SHL PUSH1 0x44 DUP3 ADD MSTORE PUSH1 0x64 ADD PUSH2 0x23C JUMP JUMPDEST PUSH0 DUP4 DUP2 MSTORE PUSH1 0x2 PUSH1 0x20 DUP2 DUP2 MSTORE PUSH1 0x40 SWAP3 DUP4 SWAP1 KECCAK256 DUP4 MLOAD PUSH2 0x100 DUP2 ADD DUP6 MSTORE DUP2 SLOAD DUP2 MSTORE PUSH1 0x1 DUP3 ADD SLOAD PUSH1 0x1 PUSH1 0x1 PUSH1 0xA0 SHL SUB SWAP1 DUP2 AND SWAP4 DUP3 ADD SWAP4 SWAP1 SWAP4 MSTORE SWAP3 DUP2 ADD SLOAD SWAP1 SWAP2 AND SWAP3 DUP3 ADD SWAP3 SWAP1 SWAP3 MSTORE PUSH1 0x3 DUP3 ADD DUP1 SLOAD SWAP2 SWAP3 SWAP2 PUSH1 0x60 DUP5 ADD SWAP2 SWAP1 PUSH2 0x6B5 SWAP1 PUSH2 0x164D JUMP JUMPDEST DUP1 PUSH1 0x1F ADD PUSH1 0x20 DUP1 SWAP2 DIV MUL PUSH1 0x20 ADD PUSH1 0x40 MLOAD SWAP1 DUP2 ADD PUSH1 0x40 MSTORE DUP1 SWAP3 SWAP2 SWAP1 DUP2 DUP2 MSTORE PUSH1 0x20 ADD DUP3 DUP1 SLOAD PUSH2 0x6E1 SWAP1 PUSH2 0x164D JUMP JUMPDEST DUP1 ISZERO PUSH2 0x72C JUMPI DUP1 PUSH1 0x1F LT PUSH2 0x703 JUMPI PUSH2 0x100 DUP1 DUP4 SLOAD DIV MUL DUP4 MSTORE SWAP2 PUSH1 0x20 ADD SWAP2 PUSH2 0x72C JUMP JUMPDEST DUP3 ADD SWAP2 SWAP1 PUSH0 MSTORE PUSH1 0x20 PUSH0 KECCAK256 SWAP1 JUMPDEST DUP2 SLOAD DUP2 MSTORE SWAP1 PUSH1 0x1 ADD SWAP1 PUSH1 0x20 ADD DUP1 DUP4 GT PUSH2 0x70F JUMPI DUP3 SWAP1 SUB PUSH1 0x1F AND DUP3 ADD SWAP2 JUMPDEST POP POP POP SWAP2 DUP4 MSTORE POP POP PUSH1 0x4 DUP3 ADD SLOAD PUSH1 0x20 DUP3 ADD MSTORE PUSH1 0x5 DUP1 DUP4 ADD SLOAD PUSH1 0x40 DUP4 ADD MSTORE PUSH1 0x6 DUP4 ADD SLOAD PUSH1 0x60 DUP4 ADD MSTORE PUSH1 0x7 DUP4 ADD SLOAD PUSH1 0x80 SWAP1 SWAP3 ADD SWAP2 PUSH1 0xFF AND SWAP1 DUP2 GT ISZERO PUSH2 0x771 JUMPI PUSH2 0x771 PUSH2 0x14E1 JUMP JUMPDEST PUSH1 0x5 DUP2 GT ISZERO PUSH2 0x782 JUMPI PUSH2 0x782 PUSH2 0x14E1 JUMP JUMPDEST SWAP1 MSTORE POP SWAP2 POP JUMPDEST POP SWAP2 SWAP1 POP JUMP JUMPDEST DUP2 PUSH1 0x1 SLOAD DUP2 LT PUSH2 0x7D6 JUMPI PUSH1 0x40 MLOAD PUSH3 0x461BCD PUSH1 0xE5 SHL DUP2 MSTORE PUSH1 0x20 PUSH1 0x4 DUP3 ADD MSTORE PUSH1 0x13 PUSH1 0x24 DUP3 ADD MSTORE PUSH19 0x125B9D985B1A590818DBDB9D1C9858DD081251 PUSH1 0x6A SHL PUSH1 0x44 DUP3 ADD MSTORE PUSH1 0x64 ADD PUSH2 0x23C JUMP JUMPDEST PUSH0 DUP4 DUP2 MSTORE PUSH1 0x2 PUSH1 0x20 MSTORE PUSH1 0x40 SWAP1 KECCAK256 PUSH1 0x1 ADD SLOAD DUP4 SWAP1 PUSH1 0x1 PUSH1 0x1 PUSH1 0xA0 SHL SUB AND CALLER EQ PUSH2 0x831 JUMPI PUSH1 0x40 MLOAD PUSH3 0x461BCD PUSH1 0xE5 SHL DUP2 MSTORE PUSH1 0x20 PUSH1 0x4 DUP3 ADD MSTORE PUSH1 0xE PUSH1 0x24 DUP3 ADD MSTORE PUSH14 0x2737BA1031B7B73A3930B1BA37B9 PUSH1 0x91 SHL PUSH1 0x44 DUP3 ADD MSTORE PUSH1 0x64 ADD PUSH2 0x23C JUMP JUMPDEST DUP4 PUSH0 DUP1 PUSH0 DUP4 DUP2 MSTORE PUSH1 0x2 PUSH1 0x20 MSTORE PUSH1 0x40 SWAP1 KECCAK256 PUSH1 0x7 ADD SLOAD PUSH1 0xFF AND PUSH1 0x5 DUP2 GT ISZERO PUSH2 0x859 JUMPI PUSH2 0x859 PUSH2 0x14E1 JUMP JUMPDEST EQ PUSH2 0x897 JUMPI PUSH1 0x40 MLOAD PUSH3 0x461BCD PUSH1 0xE5 SHL DUP2 MSTORE PUSH1 0x20 PUSH1 0x4 DUP3 ADD MSTORE PUSH1 0xE PUSH1 0x24 DUP3 ADD MSTORE PUSH14 0x496E76616C696420737461747573 PUSH1 0x90 SHL PUSH1 0x44 DUP3 ADD MSTORE PUSH1 0x64 ADD PUSH2 0x23C JUMP JUMPDEST PUSH0 SLOAD PUSH1 0xFF AND ISZERO PUSH2 0x8E9 JUMPI PUSH1 0x40 MLOAD PUSH3 0x461BCD PUSH1 0xE5 SHL DUP2 MSTORE PUSH1 0x20 PUSH1 0x4 DUP3 ADD MSTORE PUSH1 0x17 PUSH1 0x24 DUP3 ADD MSTORE PUSH32 0x5265656E7472616E742063616C6C206465746563746564000000000000000000 PUSH1 0x44 DUP3 ADD MSTORE PUSH1 0x64 ADD PUSH2 0x23C JUMP JUMPDEST PUSH0 DUP1 SLOAD PUSH1 0xFF NOT AND PUSH1 0x1 OR SWAP1 SSTORE DUP5 PUSH2 0x942 JUMPI PUSH1 0x40 MLOAD PUSH3 0x461BCD PUSH1 0xE5 SHL DUP2 MSTORE PUSH1 0x20 PUSH1 0x4 DUP3 ADD MSTORE PUSH1 0xD PUSH1 0x24 DUP3 ADD MSTORE PUSH32 0x496E76616C696420707269636500000000000000000000000000000000000000 PUSH1 0x44 DUP3 ADD MSTORE PUSH1 0x64 ADD PUSH2 0x23C JUMP JUMPDEST PUSH0 DUP7 DUP2 MSTORE PUSH1 0x2 PUSH1 0x20 MSTORE PUSH1 0x40 DUP2 KECCAK256 PUSH1 0x6 DUP2 ADD SLOAD PUSH1 0x4 DUP3 ADD SLOAD SWAP2 SWAP3 SWAP1 SWAP2 PUSH2 0x968 SWAP1 DUP10 SWAP1 PUSH2 0x1630 JUMP JUMPDEST SWAP1 POP DUP2 DUP2 GT ISZERO PUSH2 0x9CF JUMPI PUSH2 0x97C DUP3 DUP3 PUSH2 0x17A3 JUMP JUMPDEST CALLVALUE EQ PUSH2 0x9CA JUMPI PUSH1 0x40 MLOAD PUSH3 0x461BCD PUSH1 0xE5 SHL DUP2 MSTORE PUSH1 0x20 PUSH1 0x4 DUP3 ADD MSTORE PUSH1 0x1B PUSH1 0x24 DUP3 ADD MSTORE PUSH32 0x4164646974696F6E616C207061796D656E742072657175697265640000000000 PUSH1 0x44 DUP3 ADD MSTORE PUSH1 0x64 ADD PUSH2 0x23C JUMP JUMPDEST PUSH2 0xACB JUMP JUMPDEST DUP2 DUP2 LT ISZERO PUSH2 0xACB JUMPI PUSH0 PUSH2 0x9E2 DUP3 DUP5 PUSH2 0x17A3 JUMP JUMPDEST PUSH1 0x6 DUP6 ADD DUP4 SWAP1 SSTORE PUSH1 0x5 DUP6 ADD DUP11 SWAP1 SSTORE PUSH1 0x1 DUP6 ADD SLOAD PUSH1 0x40 MLOAD SWAP2 SWAP3 POP PUSH0 SWAP2 PUSH1 0x1 PUSH1 0x1 PUSH1 0xA0 SHL SUB SWAP1 SWAP2 AND SWAP1 DUP4 SWAP1 DUP4 DUP2 DUP2 DUP2 DUP6 DUP8 GAS CALL SWAP3 POP POP POP RETURNDATASIZE DUP1 PUSH0 DUP2 EQ PUSH2 0xA41 JUMPI PUSH1 0x40 MLOAD SWAP2 POP PUSH1 0x1F NOT PUSH1 0x3F RETURNDATASIZE ADD AND DUP3 ADD PUSH1 0x40 MSTORE RETURNDATASIZE DUP3 MSTORE RETURNDATASIZE PUSH0 PUSH1 0x20 DUP5 ADD RETURNDATACOPY PUSH2 0xA46 JUMP JUMPDEST PUSH1 0x60 SWAP2 POP JUMPDEST POP POP SWAP1 POP DUP1 PUSH2 0xA87 JUMPI PUSH1 0x40 MLOAD PUSH3 0x461BCD PUSH1 0xE5 SHL DUP2 MSTORE PUSH1 0x20 PUSH1 0x4 DUP3 ADD MSTORE PUSH1 0xD PUSH1 0x24 DUP3 ADD MSTORE PUSH13 0x1499599D5B990819985A5B1959 PUSH1 0x9A SHL PUSH1 0x44 DUP3 ADD MSTORE PUSH1 0x64 ADD PUSH2 0x23C JUMP JUMPDEST DUP11 PUSH32 0xD8D9ACA34B33358A82F9FFE591BCCA6863DE1C4E4E801817F86790FD5628FF1D DUP12 PUSH1 0x40 MLOAD PUSH2 0xAB9 SWAP2 DUP2 MSTORE PUSH1 0x20 ADD SWAP1 JUMP JUMPDEST PUSH1 0x40 MLOAD DUP1 SWAP2 SUB SWAP1 LOG2 POP POP POP POP POP PUSH2 0xB12 JUMP JUMPDEST PUSH1 0x6 DUP4 ADD DUP2 SWAP1 SSTORE PUSH1 0x5 DUP4 ADD DUP9 SWAP1 SSTORE PUSH1 0x40 MLOAD DUP9 DUP2 MSTORE DUP10 SWAP1 PUSH32 0xD8D9ACA34B33358A82F9FFE591BCCA6863DE1C4E4E801817F86790FD5628FF1D SWAP1 PUSH1 0x20 ADD PUSH1 0x40 MLOAD DUP1 SWAP2 SUB SWAP1 LOG2 POP POP POP JUMPDEST POP POP PUSH0 DUP1 SLOAD PUSH1 0xFF NOT AND SWAP1 SSTORE POP POP POP POP JUMP JUMPDEST DUP1 PUSH1 0x1 SLOAD DUP2 LT PUSH2 0xB6B JUMPI PUSH1 0x40 MLOAD PUSH3 0x461BCD PUSH1 0xE5 SHL DUP2 MSTORE PUSH1 0x20 PUSH1 0x4 DUP3 ADD MSTORE PUSH1 0x13 PUSH1 0x24 DUP3 ADD MSTORE PUSH19 0x125B9D985B1A590818DBDB9D1C9858DD081251 PUSH1 0x6A SHL PUSH1 0x44 DUP3 ADD MSTORE PUSH1 0x64 ADD PUSH2 0x23C JUMP JUMPDEST PUSH0 DUP3 DUP2 MSTORE PUSH1 0x2 PUSH1 0x20 DUP2 SWAP1 MSTORE PUSH1 0x40 SWAP1 SWAP2 KECCAK256 ADD SLOAD DUP3 SWAP1 PUSH1 0x1 PUSH1 0x1 PUSH1 0xA0 SHL SUB AND CALLER EQ PUSH2 0xBC3 JUMPI PUSH1 0x40 MLOAD PUSH3 0x461BCD PUSH1 0xE5 SHL DUP2 MSTORE PUSH1 0x20 PUSH1 0x4 DUP3 ADD MSTORE PUSH1 0xA PUSH1 0x24 DUP3 ADD MSTORE PUSH10 0x2737BA103330B936B2B9 PUSH1 0xB1 SHL PUSH1 0x44 DUP3 ADD MSTORE PUSH1 0x64 ADD PUSH2 0x23C JUMP JUMPDEST DUP3 PUSH0 DUP1 PUSH0 DUP4 DUP2 MSTORE PUSH1 0x2 PUSH1 0x20 MSTORE PUSH1 0x40 SWAP1 KECCAK256 PUSH1 0x7 ADD SLOAD PUSH1 0xFF AND PUSH1 0x5 DUP2 GT ISZERO PUSH2 0xBEB JUMPI PUSH2 0xBEB PUSH2 0x14E1 JUMP JUMPDEST EQ PUSH2 0xC29 JUMPI PUSH1 0x40 MLOAD PUSH3 0x461BCD PUSH1 0xE5 SHL DUP2 MSTORE PUSH1 0x20 PUSH1 0x4 DUP3 ADD MSTORE PUSH1 0xE PUSH1 0x24 DUP3 ADD MSTORE PUSH14 0x496E76616C696420737461747573 PUSH1 0x90 SHL PUSH1 0x44 DUP3 ADD MSTORE PUSH1 0x64 ADD PUSH2 0x23C JUMP JUMPDEST PUSH0 DUP6 DUP2 MSTORE PUSH1 0x2 PUSH1 0x20 MSTORE PUSH1 0x40 DUP1 DUP3 KECCAK256 PUSH1 0x7 ADD DUP1 SLOAD PUSH1 0xFF NOT AND PUSH1 0x1 OR SWAP1 SSTORE MLOAD DUP7 SWAP2 PUSH32 0x9C7132F4E666E19F03A58E9057E7395C8B73454680B59D0DF359C8D65E529DE3 SWAP2 LOG2 POP POP POP POP POP JUMP JUMPDEST DUP1 PUSH1 0x1 SLOAD DUP2 LT PUSH2 0xCBA JUMPI PUSH1 0x40 MLOAD PUSH3 0x461BCD PUSH1 0xE5 SHL DUP2 MSTORE PUSH1 0x20 PUSH1 0x4 DUP3 ADD MSTORE PUSH1 0x13 PUSH1 0x24 DUP3 ADD MSTORE PUSH19 0x125B9D985B1A590818DBDB9D1C9858DD081251 PUSH1 0x6A SHL PUSH1 0x44 DUP3 ADD MSTORE PUSH1 0x64 ADD PUSH2 0x23C JUMP JUMPDEST PUSH0 DUP3 DUP2 MSTORE PUSH1 0x2 PUSH1 0x20 DUP2 SWAP1 MSTORE PUSH1 0x40 SWAP1 SWAP2 KECCAK256 ADD SLOAD DUP3 SWAP1 PUSH1 0x1 PUSH1 0x1 PUSH1 0xA0 SHL SUB AND CALLER EQ PUSH2 0xD12 JUMPI PUSH1 0x40 MLOAD PUSH3 0x461BCD PUSH1 0xE5 SHL DUP2 MSTORE PUSH1 0x20 PUSH1 0x4 DUP3 ADD MSTORE PUSH1 0xA PUSH1 0x24 DUP3 ADD MSTORE PUSH10 0x2737BA103330B936B2B9 PUSH1 0xB1 SHL PUSH1 0x44 DUP3 ADD MSTORE PUSH1 0x64 ADD PUSH2 0x23C JUMP JUMPDEST DUP3 PUSH0 DUP1 PUSH0 DUP4 DUP2 MSTORE PUSH1 0x2 PUSH1 0x20 MSTORE PUSH1 0x40 SWAP1 KECCAK256 PUSH1 0x7 ADD SLOAD PUSH1 0xFF AND PUSH1 0x5 DUP2 GT ISZERO PUSH2 0xD3A JUMPI PUSH2 0xD3A PUSH2 0x14E1 JUMP JUMPDEST EQ PUSH2 0xD78 JUMPI PUSH1 0x40 MLOAD PUSH3 0x461BCD PUSH1 0xE5 SHL DUP2 MSTORE PUSH1 0x20 PUSH1 0x4 DUP3 ADD MSTORE PUSH1 0xE PUSH1 0x24 DUP3 ADD MSTORE PUSH14 0x496E76616C696420737461747573 PUSH1 0x90 SHL PUSH1 0x44 DUP3 ADD MSTORE PUSH1 0x64 ADD PUSH2 0x23C JUMP JUMPDEST PUSH0 SLOAD PUSH1 0xFF AND ISZERO PUSH2 0xDCA JUMPI PUSH1 0x40 MLOAD PUSH3 0x461BCD PUSH1 0xE5 SHL DUP2 MSTORE PUSH1 0x20 PUSH1 0x4 DUP3 ADD MSTORE PUSH1 0x17 PUSH1 0x24 DUP3 ADD MSTORE PUSH32 0x5265656E7472616E742063616C6C206465746563746564000000000000000000 PUSH1 0x44 DUP3 ADD MSTORE PUSH1 0x64 ADD PUSH2 0x23C JUMP JUMPDEST PUSH0 DUP1 SLOAD PUSH1 0xFF NOT AND PUSH1 0x1 OR DUP2 SSTORE DUP6 DUP2 MSTORE PUSH1 0x2 PUSH1 0x20 MSTORE PUSH1 0x40 SWAP1 KECCAK256 PUSH1 0x6 DUP2 ADD SLOAD DUP1 PUSH2 0xE34 JUMPI PUSH1 0x40 MLOAD PUSH3 0x461BCD PUSH1 0xE5 SHL DUP2 MSTORE PUSH1 0x20 PUSH1 0x4 DUP3 ADD MSTORE PUSH1 0x8 PUSH1 0x24 DUP3 ADD MSTORE PUSH32 0x4E6F2066756E6473000000000000000000000000000000000000000000000000 PUSH1 0x44 DUP3 ADD MSTORE PUSH1 0x64 ADD PUSH2 0x23C JUMP JUMPDEST PUSH0 PUSH1 0x6 DUP4 ADD DUP2 SWAP1 SSTORE PUSH1 0x7 DUP4 ADD DUP1 SLOAD PUSH1 0xFF NOT AND PUSH1 0x2 OR SWAP1 SSTORE PUSH1 0x1 DUP4 ADD SLOAD PUSH1 0x40 MLOAD PUSH1 0x1 PUSH1 0x1 PUSH1 0xA0 SHL SUB SWAP1 SWAP2 AND SWAP1 DUP4 SWAP1 DUP4 DUP2 DUP2 DUP2 DUP6 DUP8 GAS CALL SWAP3 POP POP POP RETURNDATASIZE DUP1 PUSH0 DUP2 EQ PUSH2 0xE97 JUMPI PUSH1 0x40 MLOAD SWAP2 POP PUSH1 0x1F NOT PUSH1 0x3F RETURNDATASIZE ADD AND DUP3 ADD PUSH1 0x40 MSTORE RETURNDATASIZE DUP3 MSTORE RETURNDATASIZE PUSH0 PUSH1 0x20 DUP5 ADD RETURNDATACOPY PUSH2 0xE9C JUMP JUMPDEST PUSH1 0x60 SWAP2 POP JUMPDEST POP POP SWAP1 POP DUP1 PUSH2 0xEDD JUMPI PUSH1 0x40 MLOAD PUSH3 0x461BCD PUSH1 0xE5 SHL DUP2 MSTORE PUSH1 0x20 PUSH1 0x4 DUP3 ADD MSTORE PUSH1 0xD PUSH1 0x24 DUP3 ADD MSTORE PUSH13 0x1499599D5B990819985A5B1959 PUSH1 0x9A SHL PUSH1 0x44 DUP3 ADD MSTORE PUSH1 0x64 ADD PUSH2 0x23C JUMP JUMPDEST PUSH1 0x40 MLOAD DUP9 SWAP1 PUSH32 0xE29CD0A4F17A4433C55462CD1D39A0A829EA49064D4C611FBD596D12B2641951 SWAP1 PUSH0 SWAP1 LOG2 PUSH1 0x40 MLOAD DUP9 SWAP1 PUSH32 0x3D2A04F53164BEDF9A8A46353305D6B2D2261410406DF3B41F99CE6489DC003C SWAP1 PUSH0 SWAP1 LOG2 POP POP PUSH0 DUP1 SLOAD PUSH1 0xFF NOT AND SWAP1 SSTORE POP POP POP POP POP POP JUMP JUMPDEST DUP1 PUSH1 0x1 SLOAD DUP2 LT PUSH2 0xF8C JUMPI PUSH1 0x40 MLOAD PUSH3 0x461BCD PUSH1 0xE5 SHL DUP2 MSTORE PUSH1 0x20 PUSH1 0x4 DUP3 ADD MSTORE PUSH1 0x13 PUSH1 0x24 DUP3 ADD MSTORE PUSH19 0x125B9D985B1A590818DBDB9D1C9858DD081251 PUSH1 0x6A SHL PUSH1 0x44 DUP3 ADD MSTORE PUSH1 0x64 ADD PUSH2 0x23C JUMP JUMPDEST PUSH0 DUP3 DUP2 MSTORE PUSH1 0x2 PUSH1 0x20 DUP2 SWAP1 MSTORE PUSH1 0x40 SWAP1 SWAP2 KECCAK256 ADD SLOAD DUP3 SWAP1 PUSH1 0x1 PUSH1 0x1 PUSH1 0xA0 SHL SUB AND CALLER EQ PUSH2 0xFE4 JUMPI PUSH1 0x40 MLOAD PUSH3 0x461BCD PUSH1 0xE5 SHL DUP2 MSTORE PUSH1 0x20 PUSH1 0x4 DUP3 ADD MSTORE PUSH1 0xA PUSH1 0x24 DUP3 ADD MSTORE PUSH10 0x2737BA103330B936B2B9 PUSH1 0xB1 SHL PUSH1 0x44 DUP3 ADD MSTORE PUSH1 0x64 ADD PUSH2 0x23C JUMP JUMPDEST DUP3 PUSH1 0x1 DUP1 PUSH0 DUP4 DUP2 MSTORE PUSH1 0x2 PUSH1 0x20 MSTORE PUSH1 0x40 SWAP1 KECCAK256 PUSH1 0x7 ADD SLOAD PUSH1 0xFF AND PUSH1 0x5 DUP2 GT ISZERO PUSH2 0x100D JUMPI PUSH2 0x100D PUSH2 0x14E1 JUMP JUMPDEST EQ PUSH2 0x104B JUMPI PUSH1 0x40 MLOAD PUSH3 0x461BCD PUSH1 0xE5 SHL DUP2 MSTORE PUSH1 0x20 PUSH1 0x4 DUP3 ADD MSTORE PUSH1 0xE PUSH1 0x24 DUP3 ADD MSTORE PUSH14 0x496E76616C696420737461747573 PUSH1 0x90 SHL PUSH1 0x44 DUP3 ADD MSTORE PUSH1 0x64 ADD PUSH2 0x23C JUMP JUMPDEST PUSH0 DUP6 DUP2 MSTORE PUSH1 0x2 PUSH1 0x20 MSTORE PUSH1 0x40 DUP1 DUP3 KECCAK256 PUSH1 0x7 ADD DUP1 SLOAD PUSH1 0xFF NOT AND PUSH1 0x3 OR SWAP1 SSTORE MLOAD DUP7 SWAP2 PUSH32 0x3606E8614F03AB01C4F844A0539F68278CD3BA27D7E6970771B43F08157EAB2 SWAP2 LOG2 POP POP POP POP POP JUMP JUMPDEST DUP1 PUSH1 0x1 SLOAD DUP2 LT PUSH2 0x10DC JUMPI PUSH1 0x40 MLOAD PUSH3 0x461BCD PUSH1 0xE5 SHL DUP2 MSTORE PUSH1 0x20 PUSH1 0x4 DUP3 ADD MSTORE PUSH1 0x13 PUSH1 0x24 DUP3 ADD MSTORE PUSH19 0x125B9D985B1A590818DBDB9D1C9858DD081251 PUSH1 0x6A SHL PUSH1 0x44 DUP3 ADD MSTORE PUSH1 0x64 ADD PUSH2 0x23C JUMP JUMPDEST PUSH0 DUP3 DUP2 MSTORE PUSH1 0x2 PUSH1 0x20 MSTORE PUSH1 0x40 SWAP1 KECCAK256 PUSH1 0x1 ADD SLOAD DUP3 SWAP1 PUSH1 0x1 PUSH1 0x1 PUSH1 0xA0 SHL SUB AND CALLER EQ PUSH2 0x1137 JUMPI PUSH1 0x40 MLOAD PUSH3 0x461BCD PUSH1 0xE5 SHL DUP2 MSTORE PUSH1 0x20 PUSH1 0x4 DUP3 ADD MSTORE PUSH1 0xE PUSH1 0x24 DUP3 ADD MSTORE PUSH14 0x2737BA1031B7B73A3930B1BA37B9 PUSH1 0x91 SHL PUSH1 0x44 DUP3 ADD MSTORE PUSH1 0x64 ADD PUSH2 0x23C JUMP JUMPDEST DUP3 PUSH1 0x3 DUP1 PUSH0 DUP4 DUP2 MSTORE PUSH1 0x2 PUSH1 0x20 MSTORE PUSH1 0x40 SWAP1 KECCAK256 PUSH1 0x7 ADD SLOAD PUSH1 0xFF AND PUSH1 0x5 DUP2 GT ISZERO PUSH2 0x1160 JUMPI PUSH2 0x1160 PUSH2 0x14E1 JUMP JUMPDEST EQ PUSH2 0x119E JUMPI PUSH1 0x40 MLOAD PUSH3 0x461BCD PUSH1 0xE5 SHL DUP2 MSTORE PUSH1 0x20 PUSH1 0x4 DUP3 ADD MSTORE PUSH1 0xE PUSH1 0x24 DUP3 ADD MSTORE PUSH14 0x496E76616C696420737461747573 PUSH1 0x90 SHL PUSH1 0x44 DUP3 ADD MSTORE PUSH1 0x64 ADD PUSH2 0x23C JUMP JUMPDEST PUSH0 SLOAD PUSH1 0xFF AND ISZERO PUSH2 0x11F0 JUMPI PUSH1 0x40 MLOAD PUSH3 0x461BCD PUSH1 0xE5 SHL DUP2 MSTORE PUSH1 0x20 PUSH1 0x4 DUP3 ADD MSTORE PUSH1 0x17 PUSH1 0x24 DUP3 ADD MSTORE PUSH32 0x5265656E7472616E742063616C6C206465746563746564000000000000000000 PUSH1 0x44 DUP3 ADD MSTORE PUSH1 0x64 ADD PUSH2 0x23C JUMP JUMPDEST PUSH0 DUP1 SLOAD PUSH1 0xFF NOT AND PUSH1 0x1 OR DUP2 SSTORE DUP6 DUP2 MSTORE PUSH1 0x2 PUSH1 0x20 MSTORE PUSH1 0x40 SWAP1 KECCAK256 PUSH1 0x6 DUP2 ADD SLOAD DUP1 PUSH2 0x125A JUMPI PUSH1 0x40 MLOAD PUSH3 0x461BCD PUSH1 0xE5 SHL DUP2 MSTORE PUSH1 0x20 PUSH1 0x4 DUP3 ADD MSTORE PUSH1 0x13 PUSH1 0x24 DUP3 ADD MSTORE PUSH32 0x4E6F2066756E647320746F2072656C6561736500000000000000000000000000 PUSH1 0x44 DUP3 ADD MSTORE PUSH1 0x64 ADD PUSH2 0x23C JUMP JUMPDEST PUSH0 PUSH1 0x6 DUP4 ADD DUP2 SWAP1 SSTORE PUSH1 0x7 DUP4 ADD DUP1 SLOAD PUSH1 0xFF NOT AND PUSH1 0x4 OR SWAP1 SSTORE PUSH1 0x2 DUP4 ADD SLOAD PUSH1 0x40 MLOAD PUSH1 0x1 PUSH1 0x1 PUSH1 0xA0 SHL SUB SWAP1 SWAP2 AND SWAP1 DUP4 SWAP1 DUP4 DUP2 DUP2 DUP2 DUP6 DUP8 GAS CALL SWAP3 POP POP POP RETURNDATASIZE DUP1 PUSH0 DUP2 EQ PUSH2 0x12BD JUMPI PUSH1 0x40 MLOAD SWAP2 POP PUSH1 0x1F NOT PUSH1 0x3F RETURNDATASIZE ADD AND DUP3 ADD PUSH1 0x40 MSTORE RETURNDATASIZE DUP3 MSTORE RETURNDATASIZE PUSH0 PUSH1 0x20 DUP5 ADD RETURNDATACOPY PUSH2 0x12C2 JUMP JUMPDEST PUSH1 0x60 SWAP2 POP JUMPDEST POP POP SWAP1 POP DUP1 PUSH2 0x1313 JUMPI PUSH1 0x40 MLOAD PUSH3 0x461BCD PUSH1 0xE5 SHL DUP2 MSTORE PUSH1 0x20 PUSH1 0x4 DUP3 ADD MSTORE PUSH1 0xE PUSH1 0x24 DUP3 ADD MSTORE PUSH32 0x5061796D656E74206661696C6564000000000000000000000000000000000000 PUSH1 0x44 DUP3 ADD MSTORE PUSH1 0x64 ADD PUSH2 0x23C JUMP JUMPDEST PUSH1 0x40 MLOAD DUP9 SWAP1 PUSH32 0xFCC296B8BDD64E3F1D1FAADEF50CB2D6550F645316330FE57CB1DD7E0612EAD0 SWAP1 PUSH0 SWAP1 LOG2 POP POP PUSH0 DUP1 SLOAD PUSH1 0xFF NOT AND SWAP1 SSTORE POP POP POP POP POP POP JUMP JUMPDEST PUSH1 0x40 MLOAD DUP1 PUSH2 0x100 ADD PUSH1 0x40 MSTORE DUP1 PUSH0 DUP2 MSTORE PUSH1 0x20 ADD PUSH0 PUSH1 0x1 PUSH1 0x1 PUSH1 0xA0 SHL SUB AND DUP2 MSTORE PUSH1 0x20 ADD PUSH0 PUSH1 0x1 PUSH1 0x1 PUSH1 0xA0 SHL SUB AND DUP2 MSTORE PUSH1 0x20 ADD PUSH1 0x60 DUP2 MSTORE PUSH1 0x20 ADD PUSH0 DUP2 MSTORE PUSH1 0x20 ADD PUSH0 DUP2 MSTORE PUSH1 0x20 ADD PUSH0 DUP2 MSTORE PUSH1 0x20 ADD PUSH0 PUSH1 0x5 DUP2 GT ISZERO PUSH2 0x13AB JUMPI PUSH2 0x13AB PUSH2 0x14E1 JUMP JUMPDEST SWAP1 MSTORE SWAP1 JUMP JUMPDEST PUSH4 0x4E487B71 PUSH1 0xE0 SHL PUSH0 MSTORE PUSH1 0x41 PUSH1 0x4 MSTORE PUSH1 0x24 PUSH0 REVERT JUMPDEST PUSH0 DUP1 PUSH0 DUP1 PUSH1 0x80 DUP6 DUP8 SUB SLT ISZERO PUSH2 0x13D7 JUMPI PUSH0 DUP1 REVERT JUMPDEST DUP5 CALLDATALOAD PUSH1 0x1 PUSH1 0x1 PUSH1 0xA0 SHL SUB DUP2 AND DUP2 EQ PUSH2 0x13ED JUMPI PUSH0 DUP1 REVERT JUMPDEST SWAP4 POP PUSH1 0x20 DUP6 ADD CALLDATALOAD PUSH8 0xFFFFFFFFFFFFFFFF DUP1 DUP3 GT ISZERO PUSH2 0x1409 JUMPI PUSH0 DUP1 REVERT JUMPDEST DUP2 DUP8 ADD SWAP2 POP DUP8 PUSH1 0x1F DUP4 ADD SLT PUSH2 0x141C JUMPI PUSH0 DUP1 REVERT JUMPDEST DUP2 CALLDATALOAD DUP2 DUP2 GT ISZERO PUSH2 0x142E JUMPI PUSH2 0x142E PUSH2 0x13B0 JUMP JUMPDEST PUSH1 0x40 MLOAD PUSH1 0x1F DUP3 ADD PUSH1 0x1F NOT SWAP1 DUP2 AND PUSH1 0x3F ADD AND DUP2 ADD SWAP1 DUP4 DUP3 GT DUP2 DUP4 LT OR ISZERO PUSH2 0x1456 JUMPI PUSH2 0x1456 PUSH2 0x13B0 JUMP JUMPDEST DUP2 PUSH1 0x40 MSTORE DUP3 DUP2 MSTORE DUP11 PUSH1 0x20 DUP5 DUP8 ADD ADD GT ISZERO PUSH2 0x146E JUMPI PUSH0 DUP1 REVERT JUMPDEST DUP3 PUSH1 0x20 DUP7 ADD PUSH1 0x20 DUP4 ADD CALLDATACOPY PUSH0 SWAP3 DUP2 ADD PUSH1 0x20 ADD SWAP3 SWAP1 SWAP3 MSTORE POP SWAP6 SWAP9 SWAP6 SWAP8 POP POP POP POP PUSH1 0x40 DUP5 ADD CALLDATALOAD SWAP4 PUSH1 0x60 ADD CALLDATALOAD SWAP3 SWAP2 POP POP JUMP JUMPDEST PUSH0 PUSH1 0x20 DUP3 DUP5 SUB SLT ISZERO PUSH2 0x14AC JUMPI PUSH0 DUP1 REVERT JUMPDEST POP CALLDATALOAD SWAP2 SWAP1 POP JUMP JUMPDEST PUSH0 DUP2 MLOAD DUP1 DUP5 MSTORE DUP1 PUSH1 0x20 DUP5 ADD PUSH1 0x20 DUP7 ADD MCOPY PUSH0 PUSH1 0x20 DUP3 DUP7 ADD ADD MSTORE PUSH1 0x20 PUSH1 0x1F NOT PUSH1 0x1F DUP4 ADD AND DUP6 ADD ADD SWAP2 POP POP SWAP3 SWAP2 POP POP JUMP JUMPDEST PUSH4 0x4E487B71 PUSH1 0xE0 SHL PUSH0 MSTORE PUSH1 0x21 PUSH1 0x4 MSTORE PUSH1 0x24 PUSH0 REVERT JUMPDEST PUSH1 0x6 DUP2 LT PUSH2 0x1511 JUMPI PUSH4 0x4E487B71 PUSH1 0xE0 SHL PUSH0 MSTORE PUSH1 0x21 PUSH1 0x4 MSTORE PUSH1 0x24 PUSH0 REVERT JUMPDEST SWAP1 MSTORE JUMP JUMPDEST PUSH0 PUSH2 0x100 DUP11 DUP4 MSTORE PUSH1 0x1 PUSH1 0x1 PUSH1 0xA0 SHL SUB DUP1 DUP12 AND PUSH1 0x20 DUP6 ADD MSTORE DUP1 DUP11 AND PUSH1 0x40 DUP6 ADD MSTORE POP DUP1 PUSH1 0x60 DUP5 ADD MSTORE PUSH2 0x1547 DUP2 DUP5 ADD DUP10 PUSH2 0x14B3 JUMP JUMPDEST SWAP2 POP POP DUP6 PUSH1 0x80 DUP4 ADD MSTORE DUP5 PUSH1 0xA0 DUP4 ADD MSTORE DUP4 PUSH1 0xC0 DUP4 ADD MSTORE PUSH2 0x1569 PUSH1 0xE0 DUP4 ADD DUP5 PUSH2 0x14F5 JUMP JUMPDEST SWAP10 SWAP9 POP POP POP POP POP POP POP POP POP JUMP JUMPDEST PUSH1 0x20 DUP2 MSTORE DUP2 MLOAD PUSH1 0x20 DUP3 ADD MSTORE PUSH0 PUSH1 0x20 DUP4 ADD MLOAD PUSH1 0x1 PUSH1 0x1 PUSH1 0xA0 SHL SUB DUP1 DUP3 AND PUSH1 0x40 DUP6 ADD MSTORE DUP1 PUSH1 0x40 DUP7 ADD MLOAD AND PUSH1 0x60 DUP6 ADD MSTORE POP POP PUSH1 0x60 DUP4 ADD MLOAD PUSH2 0x100 DUP1 PUSH1 0x80 DUP6 ADD MSTORE PUSH2 0x15C1 PUSH2 0x120 DUP6 ADD DUP4 PUSH2 0x14B3 JUMP JUMPDEST SWAP2 POP PUSH1 0x80 DUP6 ADD MLOAD PUSH1 0xA0 DUP6 ADD MSTORE PUSH1 0xA0 DUP6 ADD MLOAD PUSH1 0xC0 DUP6 ADD MSTORE PUSH1 0xC0 DUP6 ADD MLOAD PUSH1 0xE0 DUP6 ADD MSTORE PUSH1 0xE0 DUP6 ADD MLOAD PUSH2 0x15F2 DUP3 DUP7 ADD DUP3 PUSH2 0x14F5 JUMP JUMPDEST POP SWAP1 SWAP5 SWAP4 POP POP POP POP JUMP JUMPDEST PUSH0 DUP1 PUSH1 0x40 DUP4 DUP6 SUB SLT ISZERO PUSH2 0x160D JUMPI PUSH0 DUP1 REVERT JUMPDEST POP POP DUP1 CALLDATALOAD SWAP3 PUSH1 0x20 SWAP1 SWAP2 ADD CALLDATALOAD SWAP2 POP JUMP JUMPDEST PUSH4 0x4E487B71 PUSH1 0xE0 SHL PUSH0 MSTORE PUSH1 0x11 PUSH1 0x4 MSTORE PUSH1 0x24 PUSH0 REVERT JUMPDEST DUP1 DUP3 MUL DUP2 ISZERO DUP3 DUP3 DIV DUP5 EQ OR PUSH2 0x1647 JUMPI PUSH2 0x1647 PUSH2 0x161C JUMP JUMPDEST SWAP3 SWAP2 POP POP JUMP JUMPDEST PUSH1 0x1 DUP2 DUP2 SHR SWAP1 DUP3 AND DUP1 PUSH2 0x1661 JUMPI PUSH1 0x7F DUP3 AND SWAP2 POP JUMPDEST PUSH1 0x20 DUP3 LT DUP2 SUB PUSH2 0x788 JUMPI PUSH4 0x4E487B71 PUSH1 0xE0 SHL PUSH0 MSTORE PUSH1 0x22 PUSH1 0x4 MSTORE PUSH1 0x24 PUSH0 REVERT JUMPDEST PUSH1 0x1F DUP3 GT ISZERO PUSH2 0x16C6 JUMPI DUP1 PUSH0 MSTORE PUSH1 0x20 PUSH0 KECCAK256 PUSH1 0x1F DUP5 ADD PUSH1 0x5 SHR DUP2 ADD PUSH1 0x20 DUP6 LT ISZERO PUSH2 0x16A4 JUMPI POP DUP1 JUMPDEST PUSH1 0x1F DUP5 ADD PUSH1 0x5 SHR DUP3 ADD SWAP2 POP JUMPDEST DUP2 DUP2 LT ISZERO PUSH2 0x16C3 JUMPI PUSH0 DUP2 SSTORE PUSH1 0x1 ADD PUSH2 0x16B0 JUMP JUMPDEST POP POP JUMPDEST POP POP POP JUMP JUMPDEST DUP2 MLOAD PUSH8 0xFFFFFFFFFFFFFFFF DUP2 GT ISZERO PUSH2 0x16E5 JUMPI PUSH2 0x16E5 PUSH2 0x13B0 JUMP JUMPDEST PUSH2 0x16F9 DUP2 PUSH2 0x16F3 DUP5 SLOAD PUSH2 0x164D JUMP JUMPDEST DUP5 PUSH2 0x167F JUMP JUMPDEST PUSH1 0x20 DUP1 PUSH1 0x1F DUP4 GT PUSH1 0x1 DUP2 EQ PUSH2 0x172C JUMPI PUSH0 DUP5 ISZERO PUSH2 0x1715 JUMPI POP DUP6 DUP4 ADD MLOAD JUMPDEST PUSH0 NOT PUSH1 0x3 DUP7 SWAP1 SHL SHR NOT AND PUSH1 0x1 DUP6 SWAP1 SHL OR DUP6 SSTORE PUSH2 0x1783 JUMP JUMPDEST PUSH0 DUP6 DUP2 MSTORE PUSH1 0x20 DUP2 KECCAK256 PUSH1 0x1F NOT DUP7 AND SWAP2 JUMPDEST DUP3 DUP2 LT ISZERO PUSH2 0x175A JUMPI DUP9 DUP7 ADD MLOAD DUP3 SSTORE SWAP5 DUP5 ADD SWAP5 PUSH1 0x1 SWAP1 SWAP2 ADD SWAP1 DUP5 ADD PUSH2 0x173B JUMP JUMPDEST POP DUP6 DUP3 LT ISZERO PUSH2 0x1777 JUMPI DUP8 DUP6 ADD MLOAD PUSH0 NOT PUSH1 0x3 DUP9 SWAP1 SHL PUSH1 0xF8 AND SHR NOT AND DUP2 SSTORE JUMPDEST POP POP PUSH1 0x1 DUP5 PUSH1 0x1 SHL ADD DUP6 SSTORE JUMPDEST POP POP POP POP POP POP JUMP JUMPDEST PUSH0 PUSH1 0x1 DUP3 ADD PUSH2 0x179C JUMPI PUSH2 0x179C PUSH2 0x161C JUMP JUMPDEST POP PUSH1 0x1 ADD SWAP1 JUMP JUMPDEST DUP2 DUP2 SUB DUP2 DUP2 GT ISZERO PUSH2 0x1647 JUMPI PUSH2 0x1647 PUSH2 0x161C JUMP INVALID LOG2 PUSH5 0x6970667358 0x22 SLT KECCAK256 0xC4 NOT 0xE9 PUSH11 0x29A02A5530162E5E569554 0xCB PUSH25 0xDE2533EA37D9D64286D88210DDC85C64736F6C634300081900 CALLER "
    },
    "gasEstimates": {
      "creation": {
        "codeDepositCost": "1224800",
        "executionCost": "1273",
        "totalCost": "1226073"
      },
      "external": {
        "acceptContract(uint256)": "32292",
        "confirmDelivery(uint256)": "infinite",
        "contractCounter()": "2307",
        "contracts(uint256)": "infinite",
        "createContract(address,string,uint256,uint256)": "infinite",
        "getContract(uint256)": "infinite",
        "getContractBalance()": "249",
        "markOutForDelivery(uint256)": "32292",
        "rejectContract(uint256)": "infinite",
        "updateContract(uint256,uint256)": "infinite"
      }
    },
    "methodIdentifiers": {
      "acceptContract(uint256)": "9a115c04",
      "confirmDelivery(uint256)": "fd84cb97",
      "contractCounter()": "067bd3b4",
      "contracts(uint256)": "474da79a",
      "createContract(address,string,uint256,uint256)": "24cc936b",
      "getContract(uint256)": "6ebc8c86",
      "getContractBalance()": "6f9fb98a",
      "markOutForDelivery(uint256)": "d3176889",
      "rejectContract(uint256)": "c99994ef",
      "updateContract(uint256,uint256)": "868dce01"
    }
  },
  "storageLayout": {
    "storage": [
      {
        "astId": 3,
        "contract": "KrishiVerseEscrow.sol:KrishiVerseEscrow",
        "label": "locked",
        "offset": 0,
        "slot": "0",
        "type": "t_bool"
      },
      {
        "astId": 48,
        "contract": "KrishiVerseEscrow.sol:KrishiVerseEscrow",
        "label": "contractCounter",
        "offset": 0,
        "slot": "1",
        "type": "t_uint256"
      },
      {
        "astId": 53,
        "contract": "KrishiVerseEscrow.sol:KrishiVerseEscrow",
        "label": "contracts",
        "offset": 0,
        "slot": "2",
        "type": "t_mapping(t_uint256,t_struct(CropContract)46_storage)"
      }
    ],
    "types": {
      "t_address": {
        "encoding": "inplace",
        "label": "address",
        "numberOfBytes": "20"
      },
      "t_bool": {
        "encoding": "inplace",
        "label": "bool",
        "numberOfBytes": "1"
      },
      "t_enum(Status)28": {
        "encoding": "inplace",
        "label": "enum KrishiVerseEscrow.Status",
        "numberOfBytes": "1"
      },
      "t_mapping(t_uint256,t_struct(CropContract)46_storage)": {
        "encoding": "mapping",
        "key": "t_uint256",
        "label": "mapping(uint256 => struct KrishiVerseEscrow.CropContract)",
        "numberOfBytes": "32",
        "value": "t_struct(CropContract)46_storage"
      },
      "t_string_storage": {
        "encoding": "bytes",
        "label": "string",
        "numberOfBytes": "32"
      },
      "t_struct(CropContract)46_storage": {
        "encoding": "inplace",
        "label": "struct KrishiVerseEscrow.CropContract",
        "members": [
          {
            "astId": 30,
            "contract": "KrishiVerseEscrow.sol:KrishiVerseEscrow",
            "label": "id",
            "offset": 0,
            "slot": "0",
            "type": "t_uint256"
          },
          {
            "astId": 32,
            "contract": "KrishiVerseEscrow.sol:KrishiVerseEscrow",
            "label": "contractor",
            "offset": 0,
            "slot": "1",
            "type": "t_address"
          },
          {
            "astId": 34,
            "contract": "KrishiVerseEscrow.sol:KrishiVerseEscrow",
            "label": "farmer",
            "offset": 0,
            "slot": "2",
            "type": "t_address"
          },
          {
            "astId": 36,
            "contract": "KrishiVerseEscrow.sol:KrishiVerseEscrow",
            "label": "cropName",
            "offset": 0,
            "slot": "3",
            "type": "t_string_storage"
          },
          {
            "astId": 38,
            "contract": "KrishiVerseEscrow.sol:KrishiVerseEscrow",
            "label": "quantity",
            "offset": 0,
            "slot": "4",
            "type": "t_uint256"
          },
          {
            "astId": 40,
            "contract": "KrishiVerseEscrow.sol:KrishiVerseEscrow",
            "label": "pricePerTon",
            "offset": 0,
            "slot": "5",
            "type": "t_uint256"
          },
          {
            "astId": 42,
            "contract": "KrishiVerseEscrow.sol:KrishiVerseEscrow",
            "label": "totalAmount",
            "offset": 0,
            "slot": "6",
            "type": "t_uint256"
          },
          {
            "astId": 45,
            "contract": "KrishiVerseEscrow.sol:KrishiVerseEscrow",
            "label": "status",
            "offset": 0,
            "slot": "7",
            "type": "t_enum(Status)28"
          }
        ],
        "numberOfBytes": "256"
      },
      "t_uint256": {
        "encoding": "inplace",
        "label": "uint256",
        "numberOfBytes": "32"
      }
    }
  },
  "userdoc": {
    "kind": "user",
    "methods": {},
    "version": 1
  }
}